{
	"contracts/4_DebugTheGraph.sol": {
		"DeubgTheGraph": {
			"abi": [
				{
					"anonymous": false,
					"inputs": [
						{
							"indexed": false,
							"internalType": "uint256",
							"name": "abc",
							"type": "uint256"
						}
					],
					"name": "ABC",
					"type": "event"
				},
				{
					"inputs": [
						{
							"internalType": "address",
							"name": "",
							"type": "address"
						}
					],
					"name": "balances",
					"outputs": [
						{
							"internalType": "uint256",
							"name": "",
							"type": "uint256"
						}
					],
					"stateMutability": "view",
					"type": "function"
				},
				{
					"inputs": [],
					"name": "buy",
					"outputs": [],
					"stateMutability": "nonpayable",
					"type": "function"
				},
				{
					"inputs": [],
					"name": "deadline",
					"outputs": [
						{
							"internalType": "uint256",
							"name": "",
							"type": "uint256"
						}
					],
					"stateMutability": "view",
					"type": "function"
				},
				{
					"inputs": [],
					"name": "debugDeadLine",
					"outputs": [
						{
							"internalType": "uint256",
							"name": "",
							"type": "uint256"
						}
					],
					"stateMutability": "view",
					"type": "function"
				},
				{
					"inputs": [],
					"name": "getBalanceOfContract",
					"outputs": [
						{
							"internalType": "uint256",
							"name": "",
							"type": "uint256"
						}
					],
					"stateMutability": "view",
					"type": "function"
				},
				{
					"inputs": [],
					"name": "stake",
					"outputs": [],
					"stateMutability": "payable",
					"type": "function"
				},
				{
					"inputs": [],
					"name": "withdraw",
					"outputs": [],
					"stateMutability": "payable",
					"type": "function"
				}
			],
			"devdoc": {
				"kind": "dev",
				"methods": {},
				"version": 1
			},
			"evm": {
				"assembly": "    /* \"contracts/4_DebugTheGraph.sol\":100:794  contract DeubgTheGraph {... */\n  mstore(0x40, 0x80)\n    /* \"contracts/4_DebugTheGraph.sol\":350:360  30 seconds */\n  0x1e\n    /* \"contracts/4_DebugTheGraph.sol\":332:347  block.timestamp */\n  timestamp\n    /* \"contracts/4_DebugTheGraph.sol\":332:360  block.timestamp + 30 seconds */\n  tag_1\n  swap2\n  swap1\n  tag_2\n  jump\t// in\ntag_1:\n    /* \"contracts/4_DebugTheGraph.sol\":306:360  uint256 public deadline = block.timestamp + 30 seconds */\n  0x01\n  sstore\n    /* \"contracts/4_DebugTheGraph.sol\":397:412  block.timestamp */\n  timestamp\n    /* \"contracts/4_DebugTheGraph.sol\":366:412  uint256 public debugDeadLine = block.timestamp */\n  0x02\n  sstore\n    /* \"contracts/4_DebugTheGraph.sol\":100:794  contract DeubgTheGraph {... */\n  callvalue\n  dup1\n  iszero\n  tag_3\n  jumpi\n  0x00\n  dup1\n  revert\ntag_3:\n  pop\n  jump(tag_4)\n    /* \"#utility.yul\":7:312   */\ntag_2:\n    /* \"#utility.yul\":47:50   */\n  0x00\n    /* \"#utility.yul\":66:86   */\n  tag_7\n    /* \"#utility.yul\":84:85   */\n  dup3\n    /* \"#utility.yul\":66:86   */\n  tag_8\n  jump\t// in\ntag_7:\n    /* \"#utility.yul\":61:86   */\n  swap2\n  pop\n    /* \"#utility.yul\":100:120   */\n  tag_9\n    /* \"#utility.yul\":118:119   */\n  dup4\n    /* \"#utility.yul\":100:120   */\n  tag_8\n  jump\t// in\ntag_9:\n    /* \"#utility.yul\":95:120   */\n  swap3\n  pop\n    /* \"#utility.yul\":254:255   */\n  dup3\n    /* \"#utility.yul\":186:252   */\n  0xffffffffffffffffffffffffffffffffffffffffffffffffffffffffffffffff\n    /* \"#utility.yul\":182:256   */\n  sub\n    /* \"#utility.yul\":179:180   */\n  dup3\n    /* \"#utility.yul\":176:257   */\n  gt\n    /* \"#utility.yul\":173:280   */\n  iszero\n  tag_10\n  jumpi\n    /* \"#utility.yul\":260:278   */\n  tag_11\n  tag_12\n  jump\t// in\ntag_11:\n    /* \"#utility.yul\":173:280   */\ntag_10:\n    /* \"#utility.yul\":304:305   */\n  dup3\n    /* \"#utility.yul\":301:302   */\n  dup3\n    /* \"#utility.yul\":297:306   */\n  add\n    /* \"#utility.yul\":290:306   */\n  swap1\n  pop\n    /* \"#utility.yul\":7:312   */\n  swap3\n  swap2\n  pop\n  pop\n  jump\t// out\n    /* \"#utility.yul\":318:395   */\ntag_8:\n    /* \"#utility.yul\":355:362   */\n  0x00\n    /* \"#utility.yul\":384:389   */\n  dup2\n    /* \"#utility.yul\":373:389   */\n  swap1\n  pop\n    /* \"#utility.yul\":318:395   */\n  swap2\n  swap1\n  pop\n  jump\t// out\n    /* \"#utility.yul\":401:581   */\ntag_12:\n    /* \"#utility.yul\":449:526   */\n  0x4e487b7100000000000000000000000000000000000000000000000000000000\n    /* \"#utility.yul\":446:447   */\n  0x00\n    /* \"#utility.yul\":439:527   */\n  mstore\n    /* \"#utility.yul\":546:550   */\n  0x11\n    /* \"#utility.yul\":543:544   */\n  0x04\n    /* \"#utility.yul\":536:551   */\n  mstore\n    /* \"#utility.yul\":570:574   */\n  0x24\n    /* \"#utility.yul\":567:568   */\n  0x00\n    /* \"#utility.yul\":560:575   */\n  revert\n    /* \"contracts/4_DebugTheGraph.sol\":100:794  contract DeubgTheGraph {... */\ntag_4:\n  dataSize(sub_0)\n  dup1\n  dataOffset(sub_0)\n  0x00\n  codecopy\n  0x00\n  return\nstop\n\nsub_0: assembly {\n        /* \"contracts/4_DebugTheGraph.sol\":100:794  contract DeubgTheGraph {... */\n      mstore(0x40, 0x80)\n      jumpi(tag_1, lt(calldatasize, 0x04))\n      shr(0xe0, calldataload(0x00))\n      dup1\n      0x3a4b66f1\n      gt\n      tag_9\n      jumpi\n      dup1\n      0x3a4b66f1\n      eq\n      tag_5\n      jumpi\n      dup1\n      0x3ccfd60b\n      eq\n      tag_6\n      jumpi\n      dup1\n      0x496b574a\n      eq\n      tag_7\n      jumpi\n      dup1\n      0xa6f2ae3a\n      eq\n      tag_8\n      jumpi\n      jump(tag_1)\n    tag_9:\n      dup1\n      0x22968885\n      eq\n      tag_2\n      jumpi\n      dup1\n      0x27e235e3\n      eq\n      tag_3\n      jumpi\n      dup1\n      0x29dcb0cf\n      eq\n      tag_4\n      jumpi\n    tag_1:\n      0x00\n      dup1\n      revert\n        /* \"contracts/4_DebugTheGraph.sol\":634:741  function getBalanceOfContract() public view returns (uint256) {... */\n    tag_2:\n      callvalue\n      dup1\n      iszero\n      tag_10\n      jumpi\n      0x00\n      dup1\n      revert\n    tag_10:\n      pop\n      tag_11\n      tag_12\n      jump\t// in\n    tag_11:\n      mload(0x40)\n      tag_13\n      swap2\n      swap1\n      tag_14\n      jump\t// in\n    tag_13:\n      mload(0x40)\n      dup1\n      swap2\n      sub\n      swap1\n      return\n        /* \"contracts/4_DebugTheGraph.sol\":184:228  mapping (address => uint256) public balances */\n    tag_3:\n      callvalue\n      dup1\n      iszero\n      tag_15\n      jumpi\n      0x00\n      dup1\n      revert\n    tag_15:\n      pop\n      tag_16\n      0x04\n      dup1\n      calldatasize\n      sub\n      dup2\n      add\n      swap1\n      tag_17\n      swap2\n      swap1\n      tag_18\n      jump\t// in\n    tag_17:\n      tag_19\n      jump\t// in\n    tag_16:\n      mload(0x40)\n      tag_20\n      swap2\n      swap1\n      tag_14\n      jump\t// in\n    tag_20:\n      mload(0x40)\n      dup1\n      swap2\n      sub\n      swap1\n      return\n        /* \"contracts/4_DebugTheGraph.sol\":306:360  uint256 public deadline = block.timestamp + 30 seconds */\n    tag_4:\n      callvalue\n      dup1\n      iszero\n      tag_21\n      jumpi\n      0x00\n      dup1\n      revert\n    tag_21:\n      pop\n      tag_22\n      tag_23\n      jump\t// in\n    tag_22:\n      mload(0x40)\n      tag_24\n      swap2\n      swap1\n      tag_14\n      jump\t// in\n    tag_24:\n      mload(0x40)\n      dup1\n      swap2\n      sub\n      swap1\n      return\n        /* \"contracts/4_DebugTheGraph.sol\":419:592  function stake() payable public  {... */\n    tag_5:\n      tag_25\n      tag_26\n      jump\t// in\n    tag_25:\n      stop\n        /* \"contracts/4_DebugTheGraph.sol\":747:791  function withdraw() public payable  {... */\n    tag_6:\n      tag_27\n      tag_28\n      jump\t// in\n    tag_27:\n      stop\n        /* \"contracts/4_DebugTheGraph.sol\":366:412  uint256 public debugDeadLine = block.timestamp */\n    tag_7:\n      callvalue\n      dup1\n      iszero\n      tag_29\n      jumpi\n      0x00\n      dup1\n      revert\n    tag_29:\n      pop\n      tag_30\n      tag_31\n      jump\t// in\n    tag_30:\n      mload(0x40)\n      tag_32\n      swap2\n      swap1\n      tag_14\n      jump\t// in\n    tag_32:\n      mload(0x40)\n      dup1\n      swap2\n      sub\n      swap1\n      return\n        /* \"contracts/4_DebugTheGraph.sol\":235:299  function buy() public {... */\n    tag_8:\n      callvalue\n      dup1\n      iszero\n      tag_33\n      jumpi\n      0x00\n      dup1\n      revert\n    tag_33:\n      pop\n      tag_34\n      tag_35\n      jump\t// in\n    tag_34:\n      stop\n        /* \"contracts/4_DebugTheGraph.sol\":634:741  function getBalanceOfContract() public view returns (uint256) {... */\n    tag_12:\n        /* \"contracts/4_DebugTheGraph.sol\":687:694  uint256 */\n      0x00\n        /* \"contracts/4_DebugTheGraph.sol\":713:734  address(this).balance */\n      selfbalance\n        /* \"contracts/4_DebugTheGraph.sol\":706:734  return address(this).balance */\n      swap1\n      pop\n        /* \"contracts/4_DebugTheGraph.sol\":634:741  function getBalanceOfContract() public view returns (uint256) {... */\n      swap1\n      jump\t// out\n        /* \"contracts/4_DebugTheGraph.sol\":184:228  mapping (address => uint256) public balances */\n    tag_19:\n      mstore(0x20, 0x00)\n      dup1\n      0x00\n      mstore\n      keccak256(0x00, 0x40)\n      0x00\n      swap2\n      pop\n      swap1\n      pop\n      sload\n      dup2\n      jump\t// out\n        /* \"contracts/4_DebugTheGraph.sol\":306:360  uint256 public deadline = block.timestamp + 30 seconds */\n    tag_23:\n      sload(0x01)\n      dup2\n      jump\t// out\n        /* \"contracts/4_DebugTheGraph.sol\":419:592  function stake() payable public  {... */\n    tag_26:\n        /* \"contracts/4_DebugTheGraph.sol\":462:498  console.log(\"msg.sender\",msg.sender) */\n      tag_38\n      mload(0x40)\n      dup1\n      0x40\n      add\n      0x40\n      mstore\n      dup1\n      0x0a\n      dup2\n      mstore\n      0x20\n      add\n      0x6d73672e73656e64657200000000000000000000000000000000000000000000\n      dup2\n      mstore\n      pop\n        /* \"contracts/4_DebugTheGraph.sol\":487:497  msg.sender */\n      caller\n        /* \"contracts/4_DebugTheGraph.sol\":462:473  console.log */\n      tag_39\n        /* \"contracts/4_DebugTheGraph.sol\":462:498  console.log(\"msg.sender\",msg.sender) */\n      jump\t// in\n    tag_38:\n        /* \"contracts/4_DebugTheGraph.sol\":508:542  console.log(\"msg.value\",msg.value) */\n      tag_40\n      mload(0x40)\n      dup1\n      0x40\n      add\n      0x40\n      mstore\n      dup1\n      0x09\n      dup2\n      mstore\n      0x20\n      add\n      0x6d73672e76616c75650000000000000000000000000000000000000000000000\n      dup2\n      mstore\n      pop\n        /* \"contracts/4_DebugTheGraph.sol\":532:541  msg.value */\n      callvalue\n        /* \"contracts/4_DebugTheGraph.sol\":508:519  console.log */\n      tag_41\n        /* \"contracts/4_DebugTheGraph.sol\":508:542  console.log(\"msg.value\",msg.value) */\n      jump\t// in\n    tag_40:\n        /* \"contracts/4_DebugTheGraph.sol\":576:585  msg.value */\n      callvalue\n        /* \"contracts/4_DebugTheGraph.sol\":552:560  balances */\n      0x00\n        /* \"contracts/4_DebugTheGraph.sol\":552:572  balances[msg.sender] */\n      dup1\n        /* \"contracts/4_DebugTheGraph.sol\":561:571  msg.sender */\n      caller\n        /* \"contracts/4_DebugTheGraph.sol\":552:572  balances[msg.sender] */\n      0xffffffffffffffffffffffffffffffffffffffff\n      and\n      0xffffffffffffffffffffffffffffffffffffffff\n      and\n      dup2\n      mstore\n      0x20\n      add\n      swap1\n      dup2\n      mstore\n      0x20\n      add\n      0x00\n      keccak256\n      0x00\n        /* \"contracts/4_DebugTheGraph.sol\":552:585  balances[msg.sender] += msg.value */\n      dup3\n      dup3\n      sload\n      tag_42\n      swap2\n      swap1\n      tag_43\n      jump\t// in\n    tag_42:\n      swap3\n      pop\n      pop\n      dup2\n      swap1\n      sstore\n      pop\n        /* \"contracts/4_DebugTheGraph.sol\":419:592  function stake() payable public  {... */\n      jump\t// out\n        /* \"contracts/4_DebugTheGraph.sol\":747:791  function withdraw() public payable  {... */\n    tag_28:\n      jump\t// out\n        /* \"contracts/4_DebugTheGraph.sol\":366:412  uint256 public debugDeadLine = block.timestamp */\n    tag_31:\n      sload(0x02)\n      dup2\n      jump\t// out\n        /* \"contracts/4_DebugTheGraph.sol\":235:299  function buy() public {... */\n    tag_35:\n        /* \"contracts/4_DebugTheGraph.sol\":272:292  ABC(block.timestamp) */\n      0xdde71ec107d36cacc35f19230110eaa83cd22c0640f1ded308eeb1d9b037c6c1\n        /* \"contracts/4_DebugTheGraph.sol\":276:291  block.timestamp */\n      timestamp\n        /* \"contracts/4_DebugTheGraph.sol\":272:292  ABC(block.timestamp) */\n      mload(0x40)\n      tag_46\n      swap2\n      swap1\n      tag_14\n      jump\t// in\n    tag_46:\n      mload(0x40)\n      dup1\n      swap2\n      sub\n      swap1\n      log1\n        /* \"contracts/4_DebugTheGraph.sol\":235:299  function buy() public {... */\n      jump\t// out\n        /* \"hardhat/console.sol\":6352:6488  function log(string memory p0, address p1) internal view {... */\n    tag_39:\n        /* \"hardhat/console.sol\":6413:6484  _sendLogPayload(abi.encodeWithSignature(\"log(string,address)\", p0, p1)) */\n      tag_48\n        /* \"hardhat/console.sol\":6476:6478  p0 */\n      dup3\n        /* \"hardhat/console.sol\":6480:6482  p1 */\n      dup3\n        /* \"hardhat/console.sol\":6429:6483  abi.encodeWithSignature(\"log(string,address)\", p0, p1) */\n      add(0x24, mload(0x40))\n      tag_49\n      swap3\n      swap2\n      swap1\n      tag_50\n      jump\t// in\n    tag_49:\n      mload(0x40)\n      0x20\n      dup2\n      dup4\n      sub\n      sub\n      dup2\n      mstore\n      swap1\n      0x40\n      mstore\n      and(not(0xffffffffffffffffffffffffffffffffffffffffffffffffffffffff), 0x319af33300000000000000000000000000000000000000000000000000000000)\n      0x20\n      dup3\n      add\n      dup1\n      mload\n      0xffffffffffffffffffffffffffffffffffffffffffffffffffffffff\n      dup4\n      dup2\n      dup4\n      and\n      or\n      dup4\n      mstore\n      pop\n      pop\n      pop\n      pop\n        /* \"hardhat/console.sol\":6413:6428  _sendLogPayload */\n      tag_51\n        /* \"hardhat/console.sol\":6413:6484  _sendLogPayload(abi.encodeWithSignature(\"log(string,address)\", p0, p1)) */\n      jump\t// in\n    tag_48:\n        /* \"hardhat/console.sol\":6352:6488  function log(string memory p0, address p1) internal view {... */\n      pop\n      pop\n      jump\t// out\n        /* \"hardhat/console.sol\":5936:6072  function log(string memory p0, uint256 p1) internal view {... */\n    tag_41:\n        /* \"hardhat/console.sol\":5997:6068  _sendLogPayload(abi.encodeWithSignature(\"log(string,uint256)\", p0, p1)) */\n      tag_53\n        /* \"hardhat/console.sol\":6060:6062  p0 */\n      dup3\n        /* \"hardhat/console.sol\":6064:6066  p1 */\n      dup3\n        /* \"hardhat/console.sol\":6013:6067  abi.encodeWithSignature(\"log(string,uint256)\", p0, p1) */\n      add(0x24, mload(0x40))\n      tag_54\n      swap3\n      swap2\n      swap1\n      tag_55\n      jump\t// in\n    tag_54:\n      mload(0x40)\n      0x20\n      dup2\n      dup4\n      sub\n      sub\n      dup2\n      mstore\n      swap1\n      0x40\n      mstore\n      and(not(0xffffffffffffffffffffffffffffffffffffffffffffffffffffffff), 0xb60e72cc00000000000000000000000000000000000000000000000000000000)\n      0x20\n      dup3\n      add\n      dup1\n      mload\n      0xffffffffffffffffffffffffffffffffffffffffffffffffffffffff\n      dup4\n      dup2\n      dup4\n      and\n      or\n      dup4\n      mstore\n      pop\n      pop\n      pop\n      pop\n        /* \"hardhat/console.sol\":5997:6012  _sendLogPayload */\n      tag_51\n        /* \"hardhat/console.sol\":5997:6068  _sendLogPayload(abi.encodeWithSignature(\"log(string,uint256)\", p0, p1)) */\n      jump\t// in\n    tag_53:\n        /* \"hardhat/console.sol\":5936:6072  function log(string memory p0, uint256 p1) internal view {... */\n      pop\n      pop\n      jump\t// out\n        /* \"hardhat/console.sol\":176:464  function _sendLogPayload(bytes memory payload) private view {... */\n    tag_51:\n        /* \"hardhat/console.sol\":240:261  uint256 payloadLength */\n      0x00\n        /* \"hardhat/console.sol\":264:271  payload */\n      dup2\n        /* \"hardhat/console.sol\":264:278  payload.length */\n      mload\n        /* \"hardhat/console.sol\":240:278  uint256 payloadLength = payload.length */\n      swap1\n      pop\n        /* \"hardhat/console.sol\":282:304  address consoleAddress */\n      0x00\n        /* \"hardhat/console.sol\":129:171  0x000000000000000000636F6e736F6c652e6c6f67 */\n      0x636f6e736f6c652e6c6f67\n        /* \"hardhat/console.sol\":282:322  address consoleAddress = CONSOLE_ADDRESS */\n      swap1\n      pop\n        /* \"hardhat/console.sol\":373:375  32 */\n      0x20\n        /* \"hardhat/console.sol\":364:371  payload */\n      dup4\n        /* \"hardhat/console.sol\":360:376  add(payload, 32) */\n      add\n        /* \"hardhat/console.sol\":455:456  0 */\n      0x00\n        /* \"hardhat/console.sol\":452:453  0 */\n      dup1\n        /* \"hardhat/console.sol\":437:450  payloadLength */\n      dup5\n        /* \"hardhat/console.sol\":423:435  payloadStart */\n      dup4\n        /* \"hardhat/console.sol\":407:421  consoleAddress */\n      dup6\n        /* \"hardhat/console.sol\":400:405  gas() */\n      gas\n        /* \"hardhat/console.sol\":389:457  staticcall(gas(), consoleAddress, payloadStart, payloadLength, 0, 0) */\n      staticcall\n        /* \"hardhat/console.sol\":335:461  {... */\n      pop\n      pop\n      pop\n      pop\n        /* \"hardhat/console.sol\":176:464  function _sendLogPayload(bytes memory payload) private view {... */\n      pop\n      jump\t// out\n        /* \"#utility.yul\":7:146   */\n    tag_58:\n        /* \"#utility.yul\":53:58   */\n      0x00\n        /* \"#utility.yul\":91:97   */\n      dup2\n        /* \"#utility.yul\":78:98   */\n      calldataload\n        /* \"#utility.yul\":69:98   */\n      swap1\n      pop\n        /* \"#utility.yul\":107:140   */\n      tag_60\n        /* \"#utility.yul\":134:139   */\n      dup2\n        /* \"#utility.yul\":107:140   */\n      tag_61\n      jump\t// in\n    tag_60:\n        /* \"#utility.yul\":7:146   */\n      swap3\n      swap2\n      pop\n      pop\n      jump\t// out\n        /* \"#utility.yul\":152:481   */\n    tag_18:\n        /* \"#utility.yul\":211:217   */\n      0x00\n        /* \"#utility.yul\":260:262   */\n      0x20\n        /* \"#utility.yul\":248:257   */\n      dup3\n        /* \"#utility.yul\":239:246   */\n      dup5\n        /* \"#utility.yul\":235:258   */\n      sub\n        /* \"#utility.yul\":231:263   */\n      slt\n        /* \"#utility.yul\":228:347   */\n      iszero\n      tag_63\n      jumpi\n        /* \"#utility.yul\":266:345   */\n      tag_64\n      tag_65\n      jump\t// in\n    tag_64:\n        /* \"#utility.yul\":228:347   */\n    tag_63:\n        /* \"#utility.yul\":386:387   */\n      0x00\n        /* \"#utility.yul\":411:464   */\n      tag_66\n        /* \"#utility.yul\":456:463   */\n      dup5\n        /* \"#utility.yul\":447:453   */\n      dup3\n        /* \"#utility.yul\":436:445   */\n      dup6\n        /* \"#utility.yul\":432:454   */\n      add\n        /* \"#utility.yul\":411:464   */\n      tag_58\n      jump\t// in\n    tag_66:\n        /* \"#utility.yul\":401:464   */\n      swap2\n      pop\n        /* \"#utility.yul\":357:474   */\n      pop\n        /* \"#utility.yul\":152:481   */\n      swap3\n      swap2\n      pop\n      pop\n      jump\t// out\n        /* \"#utility.yul\":487:605   */\n    tag_67:\n        /* \"#utility.yul\":574:598   */\n      tag_69\n        /* \"#utility.yul\":592:597   */\n      dup2\n        /* \"#utility.yul\":574:598   */\n      tag_70\n      jump\t// in\n    tag_69:\n        /* \"#utility.yul\":569:572   */\n      dup3\n        /* \"#utility.yul\":562:599   */\n      mstore\n        /* \"#utility.yul\":487:605   */\n      pop\n      pop\n      jump\t// out\n        /* \"#utility.yul\":611:975   */\n    tag_71:\n        /* \"#utility.yul\":699:702   */\n      0x00\n        /* \"#utility.yul\":727:766   */\n      tag_73\n        /* \"#utility.yul\":760:765   */\n      dup3\n        /* \"#utility.yul\":727:766   */\n      tag_74\n      jump\t// in\n    tag_73:\n        /* \"#utility.yul\":782:853   */\n      tag_75\n        /* \"#utility.yul\":846:852   */\n      dup2\n        /* \"#utility.yul\":841:844   */\n      dup6\n        /* \"#utility.yul\":782:853   */\n      tag_76\n      jump\t// in\n    tag_75:\n        /* \"#utility.yul\":775:853   */\n      swap4\n      pop\n        /* \"#utility.yul\":862:914   */\n      tag_77\n        /* \"#utility.yul\":907:913   */\n      dup2\n        /* \"#utility.yul\":902:905   */\n      dup6\n        /* \"#utility.yul\":895:899   */\n      0x20\n        /* \"#utility.yul\":888:893   */\n      dup7\n        /* \"#utility.yul\":884:900   */\n      add\n        /* \"#utility.yul\":862:914   */\n      tag_78\n      jump\t// in\n    tag_77:\n        /* \"#utility.yul\":939:968   */\n      tag_79\n        /* \"#utility.yul\":961:967   */\n      dup2\n        /* \"#utility.yul\":939:968   */\n      tag_80\n      jump\t// in\n    tag_79:\n        /* \"#utility.yul\":934:937   */\n      dup5\n        /* \"#utility.yul\":930:969   */\n      add\n        /* \"#utility.yul\":923:969   */\n      swap2\n      pop\n        /* \"#utility.yul\":703:975   */\n      pop\n        /* \"#utility.yul\":611:975   */\n      swap3\n      swap2\n      pop\n      pop\n      jump\t// out\n        /* \"#utility.yul\":981:1099   */\n    tag_81:\n        /* \"#utility.yul\":1068:1092   */\n      tag_83\n        /* \"#utility.yul\":1086:1091   */\n      dup2\n        /* \"#utility.yul\":1068:1092   */\n      tag_84\n      jump\t// in\n    tag_83:\n        /* \"#utility.yul\":1063:1066   */\n      dup3\n        /* \"#utility.yul\":1056:1093   */\n      mstore\n        /* \"#utility.yul\":981:1099   */\n      pop\n      pop\n      jump\t// out\n        /* \"#utility.yul\":1105:1528   */\n    tag_50:\n        /* \"#utility.yul\":1246:1250   */\n      0x00\n        /* \"#utility.yul\":1284:1286   */\n      0x40\n        /* \"#utility.yul\":1273:1282   */\n      dup3\n        /* \"#utility.yul\":1269:1287   */\n      add\n        /* \"#utility.yul\":1261:1287   */\n      swap1\n      pop\n        /* \"#utility.yul\":1333:1342   */\n      dup2\n        /* \"#utility.yul\":1327:1331   */\n      dup2\n        /* \"#utility.yul\":1323:1343   */\n      sub\n        /* \"#utility.yul\":1319:1320   */\n      0x00\n        /* \"#utility.yul\":1308:1317   */\n      dup4\n        /* \"#utility.yul\":1304:1321   */\n      add\n        /* \"#utility.yul\":1297:1344   */\n      mstore\n        /* \"#utility.yul\":1361:1439   */\n      tag_86\n        /* \"#utility.yul\":1434:1438   */\n      dup2\n        /* \"#utility.yul\":1425:1431   */\n      dup6\n        /* \"#utility.yul\":1361:1439   */\n      tag_71\n      jump\t// in\n    tag_86:\n        /* \"#utility.yul\":1353:1439   */\n      swap1\n      pop\n        /* \"#utility.yul\":1449:1521   */\n      tag_87\n        /* \"#utility.yul\":1517:1519   */\n      0x20\n        /* \"#utility.yul\":1506:1515   */\n      dup4\n        /* \"#utility.yul\":1502:1520   */\n      add\n        /* \"#utility.yul\":1493:1499   */\n      dup5\n        /* \"#utility.yul\":1449:1521   */\n      tag_67\n      jump\t// in\n    tag_87:\n        /* \"#utility.yul\":1105:1528   */\n      swap4\n      swap3\n      pop\n      pop\n      pop\n      jump\t// out\n        /* \"#utility.yul\":1534:1957   */\n    tag_55:\n        /* \"#utility.yul\":1675:1679   */\n      0x00\n        /* \"#utility.yul\":1713:1715   */\n      0x40\n        /* \"#utility.yul\":1702:1711   */\n      dup3\n        /* \"#utility.yul\":1698:1716   */\n      add\n        /* \"#utility.yul\":1690:1716   */\n      swap1\n      pop\n        /* \"#utility.yul\":1762:1771   */\n      dup2\n        /* \"#utility.yul\":1756:1760   */\n      dup2\n        /* \"#utility.yul\":1752:1772   */\n      sub\n        /* \"#utility.yul\":1748:1749   */\n      0x00\n        /* \"#utility.yul\":1737:1746   */\n      dup4\n        /* \"#utility.yul\":1733:1750   */\n      add\n        /* \"#utility.yul\":1726:1773   */\n      mstore\n        /* \"#utility.yul\":1790:1868   */\n      tag_89\n        /* \"#utility.yul\":1863:1867   */\n      dup2\n        /* \"#utility.yul\":1854:1860   */\n      dup6\n        /* \"#utility.yul\":1790:1868   */\n      tag_71\n      jump\t// in\n    tag_89:\n        /* \"#utility.yul\":1782:1868   */\n      swap1\n      pop\n        /* \"#utility.yul\":1878:1950   */\n      tag_90\n        /* \"#utility.yul\":1946:1948   */\n      0x20\n        /* \"#utility.yul\":1935:1944   */\n      dup4\n        /* \"#utility.yul\":1931:1949   */\n      add\n        /* \"#utility.yul\":1922:1928   */\n      dup5\n        /* \"#utility.yul\":1878:1950   */\n      tag_81\n      jump\t// in\n    tag_90:\n        /* \"#utility.yul\":1534:1957   */\n      swap4\n      swap3\n      pop\n      pop\n      pop\n      jump\t// out\n        /* \"#utility.yul\":1963:2185   */\n    tag_14:\n        /* \"#utility.yul\":2056:2060   */\n      0x00\n        /* \"#utility.yul\":2094:2096   */\n      0x20\n        /* \"#utility.yul\":2083:2092   */\n      dup3\n        /* \"#utility.yul\":2079:2097   */\n      add\n        /* \"#utility.yul\":2071:2097   */\n      swap1\n      pop\n        /* \"#utility.yul\":2107:2178   */\n      tag_92\n        /* \"#utility.yul\":2175:2176   */\n      0x00\n        /* \"#utility.yul\":2164:2173   */\n      dup4\n        /* \"#utility.yul\":2160:2177   */\n      add\n        /* \"#utility.yul\":2151:2157   */\n      dup5\n        /* \"#utility.yul\":2107:2178   */\n      tag_81\n      jump\t// in\n    tag_92:\n        /* \"#utility.yul\":1963:2185   */\n      swap3\n      swap2\n      pop\n      pop\n      jump\t// out\n        /* \"#utility.yul\":2272:2371   */\n    tag_74:\n        /* \"#utility.yul\":2324:2330   */\n      0x00\n        /* \"#utility.yul\":2358:2363   */\n      dup2\n        /* \"#utility.yul\":2352:2364   */\n      mload\n        /* \"#utility.yul\":2342:2364   */\n      swap1\n      pop\n        /* \"#utility.yul\":2272:2371   */\n      swap2\n      swap1\n      pop\n      jump\t// out\n        /* \"#utility.yul\":2377:2546   */\n    tag_76:\n        /* \"#utility.yul\":2461:2472   */\n      0x00\n        /* \"#utility.yul\":2495:2501   */\n      dup3\n        /* \"#utility.yul\":2490:2493   */\n      dup3\n        /* \"#utility.yul\":2483:2502   */\n      mstore\n        /* \"#utility.yul\":2535:2539   */\n      0x20\n        /* \"#utility.yul\":2530:2533   */\n      dup3\n        /* \"#utility.yul\":2526:2540   */\n      add\n        /* \"#utility.yul\":2511:2540   */\n      swap1\n      pop\n        /* \"#utility.yul\":2377:2546   */\n      swap3\n      swap2\n      pop\n      pop\n      jump\t// out\n        /* \"#utility.yul\":2552:2857   */\n    tag_43:\n        /* \"#utility.yul\":2592:2595   */\n      0x00\n        /* \"#utility.yul\":2611:2631   */\n      tag_98\n        /* \"#utility.yul\":2629:2630   */\n      dup3\n        /* \"#utility.yul\":2611:2631   */\n      tag_84\n      jump\t// in\n    tag_98:\n        /* \"#utility.yul\":2606:2631   */\n      swap2\n      pop\n        /* \"#utility.yul\":2645:2665   */\n      tag_99\n        /* \"#utility.yul\":2663:2664   */\n      dup4\n        /* \"#utility.yul\":2645:2665   */\n      tag_84\n      jump\t// in\n    tag_99:\n        /* \"#utility.yul\":2640:2665   */\n      swap3\n      pop\n        /* \"#utility.yul\":2799:2800   */\n      dup3\n        /* \"#utility.yul\":2731:2797   */\n      0xffffffffffffffffffffffffffffffffffffffffffffffffffffffffffffffff\n        /* \"#utility.yul\":2727:2801   */\n      sub\n        /* \"#utility.yul\":2724:2725   */\n      dup3\n        /* \"#utility.yul\":2721:2802   */\n      gt\n        /* \"#utility.yul\":2718:2825   */\n      iszero\n      tag_100\n      jumpi\n        /* \"#utility.yul\":2805:2823   */\n      tag_101\n      tag_102\n      jump\t// in\n    tag_101:\n        /* \"#utility.yul\":2718:2825   */\n    tag_100:\n        /* \"#utility.yul\":2849:2850   */\n      dup3\n        /* \"#utility.yul\":2846:2847   */\n      dup3\n        /* \"#utility.yul\":2842:2851   */\n      add\n        /* \"#utility.yul\":2835:2851   */\n      swap1\n      pop\n        /* \"#utility.yul\":2552:2857   */\n      swap3\n      swap2\n      pop\n      pop\n      jump\t// out\n        /* \"#utility.yul\":2863:2959   */\n    tag_70:\n        /* \"#utility.yul\":2900:2907   */\n      0x00\n        /* \"#utility.yul\":2929:2953   */\n      tag_104\n        /* \"#utility.yul\":2947:2952   */\n      dup3\n        /* \"#utility.yul\":2929:2953   */\n      tag_105\n      jump\t// in\n    tag_104:\n        /* \"#utility.yul\":2918:2953   */\n      swap1\n      pop\n        /* \"#utility.yul\":2863:2959   */\n      swap2\n      swap1\n      pop\n      jump\t// out\n        /* \"#utility.yul\":2965:3091   */\n    tag_105:\n        /* \"#utility.yul\":3002:3009   */\n      0x00\n        /* \"#utility.yul\":3042:3084   */\n      0xffffffffffffffffffffffffffffffffffffffff\n        /* \"#utility.yul\":3035:3040   */\n      dup3\n        /* \"#utility.yul\":3031:3085   */\n      and\n        /* \"#utility.yul\":3020:3085   */\n      swap1\n      pop\n        /* \"#utility.yul\":2965:3091   */\n      swap2\n      swap1\n      pop\n      jump\t// out\n        /* \"#utility.yul\":3097:3174   */\n    tag_84:\n        /* \"#utility.yul\":3134:3141   */\n      0x00\n        /* \"#utility.yul\":3163:3168   */\n      dup2\n        /* \"#utility.yul\":3152:3168   */\n      swap1\n      pop\n        /* \"#utility.yul\":3097:3174   */\n      swap2\n      swap1\n      pop\n      jump\t// out\n        /* \"#utility.yul\":3180:3487   */\n    tag_78:\n        /* \"#utility.yul\":3248:3249   */\n      0x00\n        /* \"#utility.yul\":3258:3371   */\n    tag_109:\n        /* \"#utility.yul\":3272:3278   */\n      dup4\n        /* \"#utility.yul\":3269:3270   */\n      dup2\n        /* \"#utility.yul\":3266:3279   */\n      lt\n        /* \"#utility.yul\":3258:3371   */\n      iszero\n      tag_111\n      jumpi\n        /* \"#utility.yul\":3357:3358   */\n      dup1\n        /* \"#utility.yul\":3352:3355   */\n      dup3\n        /* \"#utility.yul\":3348:3359   */\n      add\n        /* \"#utility.yul\":3342:3360   */\n      mload\n        /* \"#utility.yul\":3338:3339   */\n      dup2\n        /* \"#utility.yul\":3333:3336   */\n      dup5\n        /* \"#utility.yul\":3329:3340   */\n      add\n        /* \"#utility.yul\":3322:3361   */\n      mstore\n        /* \"#utility.yul\":3294:3296   */\n      0x20\n        /* \"#utility.yul\":3291:3292   */\n      dup2\n        /* \"#utility.yul\":3287:3297   */\n      add\n        /* \"#utility.yul\":3282:3297   */\n      swap1\n      pop\n        /* \"#utility.yul\":3258:3371   */\n      jump(tag_109)\n    tag_111:\n        /* \"#utility.yul\":3389:3395   */\n      dup4\n        /* \"#utility.yul\":3386:3387   */\n      dup2\n        /* \"#utility.yul\":3383:3396   */\n      gt\n        /* \"#utility.yul\":3380:3481   */\n      iszero\n      tag_112\n      jumpi\n        /* \"#utility.yul\":3469:3470   */\n      0x00\n        /* \"#utility.yul\":3460:3466   */\n      dup5\n        /* \"#utility.yul\":3455:3458   */\n      dup5\n        /* \"#utility.yul\":3451:3467   */\n      add\n        /* \"#utility.yul\":3444:3471   */\n      mstore\n        /* \"#utility.yul\":3380:3481   */\n    tag_112:\n        /* \"#utility.yul\":3229:3487   */\n      pop\n        /* \"#utility.yul\":3180:3487   */\n      pop\n      pop\n      pop\n      jump\t// out\n        /* \"#utility.yul\":3493:3673   */\n    tag_102:\n        /* \"#utility.yul\":3541:3618   */\n      0x4e487b7100000000000000000000000000000000000000000000000000000000\n        /* \"#utility.yul\":3538:3539   */\n      0x00\n        /* \"#utility.yul\":3531:3619   */\n      mstore\n        /* \"#utility.yul\":3638:3642   */\n      0x11\n        /* \"#utility.yul\":3635:3636   */\n      0x04\n        /* \"#utility.yul\":3628:3643   */\n      mstore\n        /* \"#utility.yul\":3662:3666   */\n      0x24\n        /* \"#utility.yul\":3659:3660   */\n      0x00\n        /* \"#utility.yul\":3652:3667   */\n      revert\n        /* \"#utility.yul\":3802:3919   */\n    tag_65:\n        /* \"#utility.yul\":3911:3912   */\n      0x00\n        /* \"#utility.yul\":3908:3909   */\n      dup1\n        /* \"#utility.yul\":3901:3913   */\n      revert\n        /* \"#utility.yul\":3925:4027   */\n    tag_80:\n        /* \"#utility.yul\":3966:3972   */\n      0x00\n        /* \"#utility.yul\":4017:4019   */\n      0x1f\n        /* \"#utility.yul\":4013:4020   */\n      not\n        /* \"#utility.yul\":4008:4010   */\n      0x1f\n        /* \"#utility.yul\":4001:4006   */\n      dup4\n        /* \"#utility.yul\":3997:4011   */\n      add\n        /* \"#utility.yul\":3993:4021   */\n      and\n        /* \"#utility.yul\":3983:4021   */\n      swap1\n      pop\n        /* \"#utility.yul\":3925:4027   */\n      swap2\n      swap1\n      pop\n      jump\t// out\n        /* \"#utility.yul\":4033:4155   */\n    tag_61:\n        /* \"#utility.yul\":4106:4130   */\n      tag_119\n        /* \"#utility.yul\":4124:4129   */\n      dup2\n        /* \"#utility.yul\":4106:4130   */\n      tag_70\n      jump\t// in\n    tag_119:\n        /* \"#utility.yul\":4099:4104   */\n      dup2\n        /* \"#utility.yul\":4096:4131   */\n      eq\n        /* \"#utility.yul\":4086:4149   */\n      tag_120\n      jumpi\n        /* \"#utility.yul\":4145:4146   */\n      0x00\n        /* \"#utility.yul\":4142:4143   */\n      dup1\n        /* \"#utility.yul\":4135:4147   */\n      revert\n        /* \"#utility.yul\":4086:4149   */\n    tag_120:\n        /* \"#utility.yul\":4033:4155   */\n      pop\n      jump\t// out\n\n    auxdata: 0xa26469706673582212208856389004a4c0f5353f609edd59335e9735f2f1988796f0487d638658bb5f7164736f6c63430008070033\n}\n",
				"bytecode": {
					"linkReferences": {},
					"object": "6080604052601e42610011919061002a565b6001554260025534801561002457600080fd5b506100b9565b600061003582610080565b915061004083610080565b9250827fffffffffffffffffffffffffffffffffffffffffffffffffffffffffffffffff038211156100755761007461008a565b5b828201905092915050565b6000819050919050565b7f4e487b7100000000000000000000000000000000000000000000000000000000600052601160045260246000fd5b610682806100c86000396000f3fe6080604052600436106100705760003560e01c80633a4b66f11161004e5780633a4b66f1146101085780633ccfd60b14610112578063496b574a1461011c578063a6f2ae3a1461014757610070565b8063229688851461007557806327e235e3146100a057806329dcb0cf146100dd575b600080fd5b34801561008157600080fd5b5061008a61015e565b60405161009791906104f4565b60405180910390f35b3480156100ac57600080fd5b506100c760048036038101906100c29190610410565b610166565b6040516100d491906104f4565b60405180910390f35b3480156100e957600080fd5b506100f261017e565b6040516100ff91906104f4565b60405180910390f35b610110610184565b005b61011a610259565b005b34801561012857600080fd5b5061013161025b565b60405161013e91906104f4565b60405180910390f35b34801561015357600080fd5b5061015c610261565b005b600047905090565b60006020528060005260406000206000915090505481565b60015481565b6101c36040518060400160405280600a81526020017f6d73672e73656e646572000000000000000000000000000000000000000000008152503361029a565b6102026040518060400160405280600981526020017f6d73672e76616c7565000000000000000000000000000000000000000000000081525034610336565b346000803373ffffffffffffffffffffffffffffffffffffffff1673ffffffffffffffffffffffffffffffffffffffff1681526020019081526020016000206000828254610250919061052b565b92505081905550565b565b60025481565b7fdde71ec107d36cacc35f19230110eaa83cd22c0640f1ded308eeb1d9b037c6c14260405161029091906104f4565b60405180910390a1565b61033282826040516024016102b0929190610494565b6040516020818303038152906040527f319af333000000000000000000000000000000000000000000000000000000007bffffffffffffffffffffffffffffffffffffffffffffffffffffffff19166020820180517bffffffffffffffffffffffffffffffffffffffffffffffffffffffff83818316178352505050506103d2565b5050565b6103ce828260405160240161034c9291906104c4565b6040516020818303038152906040527fb60e72cc000000000000000000000000000000000000000000000000000000007bffffffffffffffffffffffffffffffffffffffffffffffffffffffff19166020820180517bffffffffffffffffffffffffffffffffffffffffffffffffffffffff83818316178352505050506103d2565b5050565b60008151905060006a636f6e736f6c652e6c6f679050602083016000808483855afa5050505050565b60008135905061040a81610635565b92915050565b6000602082840312156104265761042561061f565b5b6000610434848285016103fb565b91505092915050565b61044681610581565b82525050565b60006104578261050f565b610461818561051a565b93506104718185602086016105bd565b61047a81610624565b840191505092915050565b61048e816105b3565b82525050565b600060408201905081810360008301526104ae818561044c565b90506104bd602083018461043d565b9392505050565b600060408201905081810360008301526104de818561044c565b90506104ed6020830184610485565b9392505050565b60006020820190506105096000830184610485565b92915050565b600081519050919050565b600082825260208201905092915050565b6000610536826105b3565b9150610541836105b3565b9250827fffffffffffffffffffffffffffffffffffffffffffffffffffffffffffffffff03821115610576576105756105f0565b5b828201905092915050565b600061058c82610593565b9050919050565b600073ffffffffffffffffffffffffffffffffffffffff82169050919050565b6000819050919050565b60005b838110156105db5780820151818401526020810190506105c0565b838111156105ea576000848401525b50505050565b7f4e487b7100000000000000000000000000000000000000000000000000000000600052601160045260246000fd5b600080fd5b6000601f19601f8301169050919050565b61063e81610581565b811461064957600080fd5b5056fea26469706673582212208856389004a4c0f5353f609edd59335e9735f2f1988796f0487d638658bb5f7164736f6c63430008070033",
					"opcodes": "PUSH1 0x80 PUSH1 0x40 MSTORE PUSH1 0x1E TIMESTAMP PUSH2 0x11 SWAP2 SWAP1 PUSH2 0x2A JUMP JUMPDEST PUSH1 0x1 SSTORE TIMESTAMP PUSH1 0x2 SSTORE CALLVALUE DUP1 ISZERO PUSH2 0x24 JUMPI PUSH1 0x0 DUP1 REVERT JUMPDEST POP PUSH2 0xB9 JUMP JUMPDEST PUSH1 0x0 PUSH2 0x35 DUP3 PUSH2 0x80 JUMP JUMPDEST SWAP2 POP PUSH2 0x40 DUP4 PUSH2 0x80 JUMP JUMPDEST SWAP3 POP DUP3 PUSH32 0xFFFFFFFFFFFFFFFFFFFFFFFFFFFFFFFFFFFFFFFFFFFFFFFFFFFFFFFFFFFFFFFF SUB DUP3 GT ISZERO PUSH2 0x75 JUMPI PUSH2 0x74 PUSH2 0x8A JUMP JUMPDEST JUMPDEST DUP3 DUP3 ADD SWAP1 POP SWAP3 SWAP2 POP POP JUMP JUMPDEST PUSH1 0x0 DUP2 SWAP1 POP SWAP2 SWAP1 POP JUMP JUMPDEST PUSH32 0x4E487B7100000000000000000000000000000000000000000000000000000000 PUSH1 0x0 MSTORE PUSH1 0x11 PUSH1 0x4 MSTORE PUSH1 0x24 PUSH1 0x0 REVERT JUMPDEST PUSH2 0x682 DUP1 PUSH2 0xC8 PUSH1 0x0 CODECOPY PUSH1 0x0 RETURN INVALID PUSH1 0x80 PUSH1 0x40 MSTORE PUSH1 0x4 CALLDATASIZE LT PUSH2 0x70 JUMPI PUSH1 0x0 CALLDATALOAD PUSH1 0xE0 SHR DUP1 PUSH4 0x3A4B66F1 GT PUSH2 0x4E JUMPI DUP1 PUSH4 0x3A4B66F1 EQ PUSH2 0x108 JUMPI DUP1 PUSH4 0x3CCFD60B EQ PUSH2 0x112 JUMPI DUP1 PUSH4 0x496B574A EQ PUSH2 0x11C JUMPI DUP1 PUSH4 0xA6F2AE3A EQ PUSH2 0x147 JUMPI PUSH2 0x70 JUMP JUMPDEST DUP1 PUSH4 0x22968885 EQ PUSH2 0x75 JUMPI DUP1 PUSH4 0x27E235E3 EQ PUSH2 0xA0 JUMPI DUP1 PUSH4 0x29DCB0CF EQ PUSH2 0xDD JUMPI JUMPDEST PUSH1 0x0 DUP1 REVERT JUMPDEST CALLVALUE DUP1 ISZERO PUSH2 0x81 JUMPI PUSH1 0x0 DUP1 REVERT JUMPDEST POP PUSH2 0x8A PUSH2 0x15E JUMP JUMPDEST PUSH1 0x40 MLOAD PUSH2 0x97 SWAP2 SWAP1 PUSH2 0x4F4 JUMP JUMPDEST PUSH1 0x40 MLOAD DUP1 SWAP2 SUB SWAP1 RETURN JUMPDEST CALLVALUE DUP1 ISZERO PUSH2 0xAC JUMPI PUSH1 0x0 DUP1 REVERT JUMPDEST POP PUSH2 0xC7 PUSH1 0x4 DUP1 CALLDATASIZE SUB DUP2 ADD SWAP1 PUSH2 0xC2 SWAP2 SWAP1 PUSH2 0x410 JUMP JUMPDEST PUSH2 0x166 JUMP JUMPDEST PUSH1 0x40 MLOAD PUSH2 0xD4 SWAP2 SWAP1 PUSH2 0x4F4 JUMP JUMPDEST PUSH1 0x40 MLOAD DUP1 SWAP2 SUB SWAP1 RETURN JUMPDEST CALLVALUE DUP1 ISZERO PUSH2 0xE9 JUMPI PUSH1 0x0 DUP1 REVERT JUMPDEST POP PUSH2 0xF2 PUSH2 0x17E JUMP JUMPDEST PUSH1 0x40 MLOAD PUSH2 0xFF SWAP2 SWAP1 PUSH2 0x4F4 JUMP JUMPDEST PUSH1 0x40 MLOAD DUP1 SWAP2 SUB SWAP1 RETURN JUMPDEST PUSH2 0x110 PUSH2 0x184 JUMP JUMPDEST STOP JUMPDEST PUSH2 0x11A PUSH2 0x259 JUMP JUMPDEST STOP JUMPDEST CALLVALUE DUP1 ISZERO PUSH2 0x128 JUMPI PUSH1 0x0 DUP1 REVERT JUMPDEST POP PUSH2 0x131 PUSH2 0x25B JUMP JUMPDEST PUSH1 0x40 MLOAD PUSH2 0x13E SWAP2 SWAP1 PUSH2 0x4F4 JUMP JUMPDEST PUSH1 0x40 MLOAD DUP1 SWAP2 SUB SWAP1 RETURN JUMPDEST CALLVALUE DUP1 ISZERO PUSH2 0x153 JUMPI PUSH1 0x0 DUP1 REVERT JUMPDEST POP PUSH2 0x15C PUSH2 0x261 JUMP JUMPDEST STOP JUMPDEST PUSH1 0x0 SELFBALANCE SWAP1 POP SWAP1 JUMP JUMPDEST PUSH1 0x0 PUSH1 0x20 MSTORE DUP1 PUSH1 0x0 MSTORE PUSH1 0x40 PUSH1 0x0 KECCAK256 PUSH1 0x0 SWAP2 POP SWAP1 POP SLOAD DUP2 JUMP JUMPDEST PUSH1 0x1 SLOAD DUP2 JUMP JUMPDEST PUSH2 0x1C3 PUSH1 0x40 MLOAD DUP1 PUSH1 0x40 ADD PUSH1 0x40 MSTORE DUP1 PUSH1 0xA DUP2 MSTORE PUSH1 0x20 ADD PUSH32 0x6D73672E73656E64657200000000000000000000000000000000000000000000 DUP2 MSTORE POP CALLER PUSH2 0x29A JUMP JUMPDEST PUSH2 0x202 PUSH1 0x40 MLOAD DUP1 PUSH1 0x40 ADD PUSH1 0x40 MSTORE DUP1 PUSH1 0x9 DUP2 MSTORE PUSH1 0x20 ADD PUSH32 0x6D73672E76616C75650000000000000000000000000000000000000000000000 DUP2 MSTORE POP CALLVALUE PUSH2 0x336 JUMP JUMPDEST CALLVALUE PUSH1 0x0 DUP1 CALLER PUSH20 0xFFFFFFFFFFFFFFFFFFFFFFFFFFFFFFFFFFFFFFFF AND PUSH20 0xFFFFFFFFFFFFFFFFFFFFFFFFFFFFFFFFFFFFFFFF AND DUP2 MSTORE PUSH1 0x20 ADD SWAP1 DUP2 MSTORE PUSH1 0x20 ADD PUSH1 0x0 KECCAK256 PUSH1 0x0 DUP3 DUP3 SLOAD PUSH2 0x250 SWAP2 SWAP1 PUSH2 0x52B JUMP JUMPDEST SWAP3 POP POP DUP2 SWAP1 SSTORE POP JUMP JUMPDEST JUMP JUMPDEST PUSH1 0x2 SLOAD DUP2 JUMP JUMPDEST PUSH32 0xDDE71EC107D36CACC35F19230110EAA83CD22C0640F1DED308EEB1D9B037C6C1 TIMESTAMP PUSH1 0x40 MLOAD PUSH2 0x290 SWAP2 SWAP1 PUSH2 0x4F4 JUMP JUMPDEST PUSH1 0x40 MLOAD DUP1 SWAP2 SUB SWAP1 LOG1 JUMP JUMPDEST PUSH2 0x332 DUP3 DUP3 PUSH1 0x40 MLOAD PUSH1 0x24 ADD PUSH2 0x2B0 SWAP3 SWAP2 SWAP1 PUSH2 0x494 JUMP JUMPDEST PUSH1 0x40 MLOAD PUSH1 0x20 DUP2 DUP4 SUB SUB DUP2 MSTORE SWAP1 PUSH1 0x40 MSTORE PUSH32 0x319AF33300000000000000000000000000000000000000000000000000000000 PUSH28 0xFFFFFFFFFFFFFFFFFFFFFFFFFFFFFFFFFFFFFFFFFFFFFFFFFFFFFFFF NOT AND PUSH1 0x20 DUP3 ADD DUP1 MLOAD PUSH28 0xFFFFFFFFFFFFFFFFFFFFFFFFFFFFFFFFFFFFFFFFFFFFFFFFFFFFFFFF DUP4 DUP2 DUP4 AND OR DUP4 MSTORE POP POP POP POP PUSH2 0x3D2 JUMP JUMPDEST POP POP JUMP JUMPDEST PUSH2 0x3CE DUP3 DUP3 PUSH1 0x40 MLOAD PUSH1 0x24 ADD PUSH2 0x34C SWAP3 SWAP2 SWAP1 PUSH2 0x4C4 JUMP JUMPDEST PUSH1 0x40 MLOAD PUSH1 0x20 DUP2 DUP4 SUB SUB DUP2 MSTORE SWAP1 PUSH1 0x40 MSTORE PUSH32 0xB60E72CC00000000000000000000000000000000000000000000000000000000 PUSH28 0xFFFFFFFFFFFFFFFFFFFFFFFFFFFFFFFFFFFFFFFFFFFFFFFFFFFFFFFF NOT AND PUSH1 0x20 DUP3 ADD DUP1 MLOAD PUSH28 0xFFFFFFFFFFFFFFFFFFFFFFFFFFFFFFFFFFFFFFFFFFFFFFFFFFFFFFFF DUP4 DUP2 DUP4 AND OR DUP4 MSTORE POP POP POP POP PUSH2 0x3D2 JUMP JUMPDEST POP POP JUMP JUMPDEST PUSH1 0x0 DUP2 MLOAD SWAP1 POP PUSH1 0x0 PUSH11 0x636F6E736F6C652E6C6F67 SWAP1 POP PUSH1 0x20 DUP4 ADD PUSH1 0x0 DUP1 DUP5 DUP4 DUP6 GAS STATICCALL POP POP POP POP POP JUMP JUMPDEST PUSH1 0x0 DUP2 CALLDATALOAD SWAP1 POP PUSH2 0x40A DUP2 PUSH2 0x635 JUMP JUMPDEST SWAP3 SWAP2 POP POP JUMP JUMPDEST PUSH1 0x0 PUSH1 0x20 DUP3 DUP5 SUB SLT ISZERO PUSH2 0x426 JUMPI PUSH2 0x425 PUSH2 0x61F JUMP JUMPDEST JUMPDEST PUSH1 0x0 PUSH2 0x434 DUP5 DUP3 DUP6 ADD PUSH2 0x3FB JUMP JUMPDEST SWAP2 POP POP SWAP3 SWAP2 POP POP JUMP JUMPDEST PUSH2 0x446 DUP2 PUSH2 0x581 JUMP JUMPDEST DUP3 MSTORE POP POP JUMP JUMPDEST PUSH1 0x0 PUSH2 0x457 DUP3 PUSH2 0x50F JUMP JUMPDEST PUSH2 0x461 DUP2 DUP6 PUSH2 0x51A JUMP JUMPDEST SWAP4 POP PUSH2 0x471 DUP2 DUP6 PUSH1 0x20 DUP7 ADD PUSH2 0x5BD JUMP JUMPDEST PUSH2 0x47A DUP2 PUSH2 0x624 JUMP JUMPDEST DUP5 ADD SWAP2 POP POP SWAP3 SWAP2 POP POP JUMP JUMPDEST PUSH2 0x48E DUP2 PUSH2 0x5B3 JUMP JUMPDEST DUP3 MSTORE POP POP JUMP JUMPDEST PUSH1 0x0 PUSH1 0x40 DUP3 ADD SWAP1 POP DUP2 DUP2 SUB PUSH1 0x0 DUP4 ADD MSTORE PUSH2 0x4AE DUP2 DUP6 PUSH2 0x44C JUMP JUMPDEST SWAP1 POP PUSH2 0x4BD PUSH1 0x20 DUP4 ADD DUP5 PUSH2 0x43D JUMP JUMPDEST SWAP4 SWAP3 POP POP POP JUMP JUMPDEST PUSH1 0x0 PUSH1 0x40 DUP3 ADD SWAP1 POP DUP2 DUP2 SUB PUSH1 0x0 DUP4 ADD MSTORE PUSH2 0x4DE DUP2 DUP6 PUSH2 0x44C JUMP JUMPDEST SWAP1 POP PUSH2 0x4ED PUSH1 0x20 DUP4 ADD DUP5 PUSH2 0x485 JUMP JUMPDEST SWAP4 SWAP3 POP POP POP JUMP JUMPDEST PUSH1 0x0 PUSH1 0x20 DUP3 ADD SWAP1 POP PUSH2 0x509 PUSH1 0x0 DUP4 ADD DUP5 PUSH2 0x485 JUMP JUMPDEST SWAP3 SWAP2 POP POP JUMP JUMPDEST PUSH1 0x0 DUP2 MLOAD SWAP1 POP SWAP2 SWAP1 POP JUMP JUMPDEST PUSH1 0x0 DUP3 DUP3 MSTORE PUSH1 0x20 DUP3 ADD SWAP1 POP SWAP3 SWAP2 POP POP JUMP JUMPDEST PUSH1 0x0 PUSH2 0x536 DUP3 PUSH2 0x5B3 JUMP JUMPDEST SWAP2 POP PUSH2 0x541 DUP4 PUSH2 0x5B3 JUMP JUMPDEST SWAP3 POP DUP3 PUSH32 0xFFFFFFFFFFFFFFFFFFFFFFFFFFFFFFFFFFFFFFFFFFFFFFFFFFFFFFFFFFFFFFFF SUB DUP3 GT ISZERO PUSH2 0x576 JUMPI PUSH2 0x575 PUSH2 0x5F0 JUMP JUMPDEST JUMPDEST DUP3 DUP3 ADD SWAP1 POP SWAP3 SWAP2 POP POP JUMP JUMPDEST PUSH1 0x0 PUSH2 0x58C DUP3 PUSH2 0x593 JUMP JUMPDEST SWAP1 POP SWAP2 SWAP1 POP JUMP JUMPDEST PUSH1 0x0 PUSH20 0xFFFFFFFFFFFFFFFFFFFFFFFFFFFFFFFFFFFFFFFF DUP3 AND SWAP1 POP SWAP2 SWAP1 POP JUMP JUMPDEST PUSH1 0x0 DUP2 SWAP1 POP SWAP2 SWAP1 POP JUMP JUMPDEST PUSH1 0x0 JUMPDEST DUP4 DUP2 LT ISZERO PUSH2 0x5DB JUMPI DUP1 DUP3 ADD MLOAD DUP2 DUP5 ADD MSTORE PUSH1 0x20 DUP2 ADD SWAP1 POP PUSH2 0x5C0 JUMP JUMPDEST DUP4 DUP2 GT ISZERO PUSH2 0x5EA JUMPI PUSH1 0x0 DUP5 DUP5 ADD MSTORE JUMPDEST POP POP POP POP JUMP JUMPDEST PUSH32 0x4E487B7100000000000000000000000000000000000000000000000000000000 PUSH1 0x0 MSTORE PUSH1 0x11 PUSH1 0x4 MSTORE PUSH1 0x24 PUSH1 0x0 REVERT JUMPDEST PUSH1 0x0 DUP1 REVERT JUMPDEST PUSH1 0x0 PUSH1 0x1F NOT PUSH1 0x1F DUP4 ADD AND SWAP1 POP SWAP2 SWAP1 POP JUMP JUMPDEST PUSH2 0x63E DUP2 PUSH2 0x581 JUMP JUMPDEST DUP2 EQ PUSH2 0x649 JUMPI PUSH1 0x0 DUP1 REVERT JUMPDEST POP JUMP INVALID LOG2 PUSH5 0x6970667358 0x22 SLT KECCAK256 DUP9 JUMP CODESIZE SWAP1 DIV LOG4 0xC0 CREATE2 CALLDATALOAD EXTCODEHASH PUSH1 0x9E 0xDD MSIZE CALLER 0x5E SWAP8 CALLDATALOAD CALLCODE CALL SWAP9 DUP8 SWAP7 CREATE BASEFEE PUSH30 0x638658BB5F7164736F6C6343000807003300000000000000000000000000 "
				},
				"gasEstimates": {
					"creation": {
						"codeDepositCost": "333200",
						"executionCost": "infinite",
						"totalCost": "infinite"
					},
					"external": {
						"balances(address)": "2837",
						"buy()": "1400",
						"deadline()": "2474",
						"debugDeadLine()": "2473",
						"getBalanceOfContract()": "340",
						"stake()": "infinite",
						"withdraw()": "142"
					}
				},
				"methodIdentifiers": {
					"balances(address)": "27e235e3",
					"buy()": "a6f2ae3a",
					"deadline()": "29dcb0cf",
					"debugDeadLine()": "496b574a",
					"getBalanceOfContract()": "22968885",
					"stake()": "3a4b66f1",
					"withdraw()": "3ccfd60b"
				}
			},
			"storageLayout": {
				"storage": [
					{
						"astId": 10,
						"contract": "contracts/4_DebugTheGraph.sol:DeubgTheGraph",
						"label": "balances",
						"offset": 0,
						"slot": "0",
						"type": "t_mapping(t_address,t_uint256)"
					},
					{
						"astId": 25,
						"contract": "contracts/4_DebugTheGraph.sol:DeubgTheGraph",
						"label": "deadline",
						"offset": 0,
						"slot": "1",
						"type": "t_uint256"
					},
					{
						"astId": 29,
						"contract": "contracts/4_DebugTheGraph.sol:DeubgTheGraph",
						"label": "debugDeadLine",
						"offset": 0,
						"slot": "2",
						"type": "t_uint256"
					}
				],
				"types": {
					"t_address": {
						"encoding": "inplace",
						"label": "address",
						"numberOfBytes": "20"
					},
					"t_mapping(t_address,t_uint256)": {
						"encoding": "mapping",
						"key": "t_address",
						"label": "mapping(address => uint256)",
						"numberOfBytes": "32",
						"value": "t_uint256"
					},
					"t_uint256": {
						"encoding": "inplace",
						"label": "uint256",
						"numberOfBytes": "32"
					}
				}
			},
			"userdoc": {
				"kind": "user",
				"methods": {},
				"version": 1
			}
		}
	}
}