{
	"contracts/4_DebugTheGraph.sol": {
		"DeubgTheGraph": {
			"abi": [
				{
					"anonymous": false,
					"inputs": [
						{
							"indexed": false,
							"internalType": "uint256",
							"name": "abc",
							"type": "uint256"
						}
					],
					"name": "ABC",
					"type": "event"
				},
				{
					"stateMutability": "payable",
					"type": "fallback"
				},
				{
					"inputs": [
						{
							"internalType": "address",
							"name": "",
							"type": "address"
						}
					],
					"name": "balances",
					"outputs": [
						{
							"internalType": "uint256",
							"name": "",
							"type": "uint256"
						}
					],
					"stateMutability": "view",
					"type": "function"
				},
				{
					"inputs": [],
					"name": "buy",
					"outputs": [],
					"stateMutability": "nonpayable",
					"type": "function"
				},
				{
					"inputs": [],
					"name": "getBalanceOfContract",
					"outputs": [
						{
							"internalType": "uint256",
							"name": "",
							"type": "uint256"
						}
					],
					"stateMutability": "view",
					"type": "function"
				},
				{
					"inputs": [],
					"name": "stake",
					"outputs": [],
					"stateMutability": "payable",
					"type": "function"
				},
				{
					"inputs": [
						{
							"internalType": "address payable",
							"name": "to",
							"type": "address"
						}
					],
					"name": "withdraw",
					"outputs": [],
					"stateMutability": "nonpayable",
					"type": "function"
				},
				{
					"stateMutability": "payable",
					"type": "receive"
				}
			],
			"devdoc": {
				"kind": "dev",
				"methods": {},
				"version": 1
			},
			"evm": {
				"assembly": "    /* \"contracts/4_DebugTheGraph.sol\":100:858  contract DeubgTheGraph {... */\n  mstore(0x40, 0x80)\n  callvalue\n  dup1\n  iszero\n  tag_1\n  jumpi\n  0x00\n  dup1\n  revert\ntag_1:\n  pop\n  dataSize(sub_0)\n  dup1\n  dataOffset(sub_0)\n  0x00\n  codecopy\n  0x00\n  return\nstop\n\nsub_0: assembly {\n        /* \"contracts/4_DebugTheGraph.sol\":100:858  contract DeubgTheGraph {... */\n      mstore(0x40, 0x80)\n      jumpi(tag_1, lt(calldatasize, 0x04))\n      shr(0xe0, calldataload(0x00))\n      dup1\n      0x22968885\n      eq\n      tag_3\n      jumpi\n      dup1\n      0x27e235e3\n      eq\n      tag_4\n      jumpi\n      dup1\n      0x3a4b66f1\n      eq\n      tag_5\n      jumpi\n      dup1\n      0x51cff8d9\n      eq\n      tag_6\n      jumpi\n      dup1\n      0xa6f2ae3a\n      eq\n      tag_7\n      jumpi\n      jump(tag_2)\n    tag_1:\n      jumpi(tag_2, calldatasize)\n      stop\n    tag_2:\n      stop\n        /* \"contracts/4_DebugTheGraph.sol\":521:628  function getBalanceOfContract() public view returns (uint256) {... */\n    tag_3:\n      callvalue\n      dup1\n      iszero\n      tag_12\n      jumpi\n      0x00\n      dup1\n      revert\n    tag_12:\n      pop\n      tag_13\n      tag_14\n      jump\t// in\n    tag_13:\n      mload(0x40)\n      tag_15\n      swap2\n      swap1\n      tag_16\n      jump\t// in\n    tag_15:\n      mload(0x40)\n      dup1\n      swap2\n      sub\n      swap1\n      return\n        /* \"contracts/4_DebugTheGraph.sol\":184:228  mapping (address => uint256) public balances */\n    tag_4:\n      callvalue\n      dup1\n      iszero\n      tag_17\n      jumpi\n      0x00\n      dup1\n      revert\n    tag_17:\n      pop\n      tag_18\n      0x04\n      dup1\n      calldatasize\n      sub\n      dup2\n      add\n      swap1\n      tag_19\n      swap2\n      swap1\n      tag_20\n      jump\t// in\n    tag_19:\n      tag_21\n      jump\t// in\n    tag_18:\n      mload(0x40)\n      tag_22\n      swap2\n      swap1\n      tag_16\n      jump\t// in\n    tag_22:\n      mload(0x40)\n      dup1\n      swap2\n      sub\n      swap1\n      return\n        /* \"contracts/4_DebugTheGraph.sol\":306:479  function stake() payable public  {... */\n    tag_5:\n      tag_23\n      tag_24\n      jump\t// in\n    tag_23:\n      stop\n        /* \"contracts/4_DebugTheGraph.sol\":634:777  function withdraw(address payable to) public {... */\n    tag_6:\n      callvalue\n      dup1\n      iszero\n      tag_25\n      jumpi\n      0x00\n      dup1\n      revert\n    tag_25:\n      pop\n      tag_26\n      0x04\n      dup1\n      calldatasize\n      sub\n      dup2\n      add\n      swap1\n      tag_27\n      swap2\n      swap1\n      tag_28\n      jump\t// in\n    tag_27:\n      tag_29\n      jump\t// in\n    tag_26:\n      stop\n        /* \"contracts/4_DebugTheGraph.sol\":235:299  function buy() public {... */\n    tag_7:\n      callvalue\n      dup1\n      iszero\n      tag_30\n      jumpi\n      0x00\n      dup1\n      revert\n    tag_30:\n      pop\n      tag_31\n      tag_32\n      jump\t// in\n    tag_31:\n      stop\n        /* \"contracts/4_DebugTheGraph.sol\":521:628  function getBalanceOfContract() public view returns (uint256) {... */\n    tag_14:\n        /* \"contracts/4_DebugTheGraph.sol\":574:581  uint256 */\n      0x00\n        /* \"contracts/4_DebugTheGraph.sol\":600:621  address(this).balance */\n      selfbalance\n        /* \"contracts/4_DebugTheGraph.sol\":593:621  return address(this).balance */\n      swap1\n      pop\n        /* \"contracts/4_DebugTheGraph.sol\":521:628  function getBalanceOfContract() public view returns (uint256) {... */\n      swap1\n      jump\t// out\n        /* \"contracts/4_DebugTheGraph.sol\":184:228  mapping (address => uint256) public balances */\n    tag_21:\n      mstore(0x20, 0x00)\n      dup1\n      0x00\n      mstore\n      keccak256(0x00, 0x40)\n      0x00\n      swap2\n      pop\n      swap1\n      pop\n      sload\n      dup2\n      jump\t// out\n        /* \"contracts/4_DebugTheGraph.sol\":306:479  function stake() payable public  {... */\n    tag_24:\n        /* \"contracts/4_DebugTheGraph.sol\":349:385  console.log(\"msg.sender\",msg.sender) */\n      tag_35\n      mload(0x40)\n      dup1\n      0x40\n      add\n      0x40\n      mstore\n      dup1\n      0x0a\n      dup2\n      mstore\n      0x20\n      add\n      0x6d73672e73656e64657200000000000000000000000000000000000000000000\n      dup2\n      mstore\n      pop\n        /* \"contracts/4_DebugTheGraph.sol\":374:384  msg.sender */\n      caller\n        /* \"contracts/4_DebugTheGraph.sol\":349:360  console.log */\n      tag_36\n        /* \"contracts/4_DebugTheGraph.sol\":349:385  console.log(\"msg.sender\",msg.sender) */\n      jump\t// in\n    tag_35:\n        /* \"contracts/4_DebugTheGraph.sol\":395:429  console.log(\"msg.value\",msg.value) */\n      tag_37\n      mload(0x40)\n      dup1\n      0x40\n      add\n      0x40\n      mstore\n      dup1\n      0x09\n      dup2\n      mstore\n      0x20\n      add\n      0x6d73672e76616c75650000000000000000000000000000000000000000000000\n      dup2\n      mstore\n      pop\n        /* \"contracts/4_DebugTheGraph.sol\":419:428  msg.value */\n      callvalue\n        /* \"contracts/4_DebugTheGraph.sol\":395:406  console.log */\n      tag_38\n        /* \"contracts/4_DebugTheGraph.sol\":395:429  console.log(\"msg.value\",msg.value) */\n      jump\t// in\n    tag_37:\n        /* \"contracts/4_DebugTheGraph.sol\":463:472  msg.value */\n      callvalue\n        /* \"contracts/4_DebugTheGraph.sol\":439:447  balances */\n      0x00\n        /* \"contracts/4_DebugTheGraph.sol\":439:459  balances[msg.sender] */\n      dup1\n        /* \"contracts/4_DebugTheGraph.sol\":448:458  msg.sender */\n      caller\n        /* \"contracts/4_DebugTheGraph.sol\":439:459  balances[msg.sender] */\n      0xffffffffffffffffffffffffffffffffffffffff\n      and\n      0xffffffffffffffffffffffffffffffffffffffff\n      and\n      dup2\n      mstore\n      0x20\n      add\n      swap1\n      dup2\n      mstore\n      0x20\n      add\n      0x00\n      keccak256\n      0x00\n        /* \"contracts/4_DebugTheGraph.sol\":439:472  balances[msg.sender] += msg.value */\n      dup3\n      dup3\n      sload\n      tag_39\n      swap2\n      swap1\n      tag_40\n      jump\t// in\n    tag_39:\n      swap3\n      pop\n      pop\n      dup2\n      swap1\n      sstore\n      pop\n        /* \"contracts/4_DebugTheGraph.sol\":306:479  function stake() payable public  {... */\n      jump\t// out\n        /* \"contracts/4_DebugTheGraph.sol\":634:777  function withdraw(address payable to) public {... */\n    tag_29:\n        /* \"contracts/4_DebugTheGraph.sol\":689:704  uint256 _amount */\n      0x00\n        /* \"contracts/4_DebugTheGraph.sol\":707:715  balances */\n      dup1\n        /* \"contracts/4_DebugTheGraph.sol\":707:727  balances[msg.sender] */\n      0x00\n        /* \"contracts/4_DebugTheGraph.sol\":716:726  msg.sender */\n      caller\n        /* \"contracts/4_DebugTheGraph.sol\":707:727  balances[msg.sender] */\n      0xffffffffffffffffffffffffffffffffffffffff\n      and\n      0xffffffffffffffffffffffffffffffffffffffff\n      and\n      dup2\n      mstore\n      0x20\n      add\n      swap1\n      dup2\n      mstore\n      0x20\n      add\n      0x00\n      keccak256\n      sload\n        /* \"contracts/4_DebugTheGraph.sol\":689:727  uint256 _amount = balances[msg.sender] */\n      swap1\n      pop\n        /* \"contracts/4_DebugTheGraph.sol\":745:755  msg.sender */\n      caller\n        /* \"contracts/4_DebugTheGraph.sol\":737:761  payable(msg.sender).send */\n      0xffffffffffffffffffffffffffffffffffffffff\n      and\n        /* \"contracts/4_DebugTheGraph.sol\":737:770  payable(msg.sender).send(_amount) */\n      0x08fc\n        /* \"contracts/4_DebugTheGraph.sol\":762:769  _amount */\n      dup3\n        /* \"contracts/4_DebugTheGraph.sol\":737:770  payable(msg.sender).send(_amount) */\n      swap1\n      dup2\n      iszero\n      mul\n      swap1\n      mload(0x40)\n      0x00\n      mload(0x40)\n      dup1\n      dup4\n      sub\n      dup2\n      dup6\n      dup9\n      dup9\n      call\n      swap4\n      pop\n      pop\n      pop\n      pop\n      pop\n        /* \"contracts/4_DebugTheGraph.sol\":679:777  {... */\n      pop\n        /* \"contracts/4_DebugTheGraph.sol\":634:777  function withdraw(address payable to) public {... */\n      pop\n      jump\t// out\n        /* \"contracts/4_DebugTheGraph.sol\":235:299  function buy() public {... */\n    tag_32:\n        /* \"contracts/4_DebugTheGraph.sol\":272:292  ABC(block.timestamp) */\n      0xdde71ec107d36cacc35f19230110eaa83cd22c0640f1ded308eeb1d9b037c6c1\n        /* \"contracts/4_DebugTheGraph.sol\":276:291  block.timestamp */\n      timestamp\n        /* \"contracts/4_DebugTheGraph.sol\":272:292  ABC(block.timestamp) */\n      mload(0x40)\n      tag_44\n      swap2\n      swap1\n      tag_16\n      jump\t// in\n    tag_44:\n      mload(0x40)\n      dup1\n      swap2\n      sub\n      swap1\n      log1\n        /* \"contracts/4_DebugTheGraph.sol\":235:299  function buy() public {... */\n      jump\t// out\n        /* \"hardhat/console.sol\":6352:6488  function log(string memory p0, address p1) internal view {... */\n    tag_36:\n        /* \"hardhat/console.sol\":6413:6484  _sendLogPayload(abi.encodeWithSignature(\"log(string,address)\", p0, p1)) */\n      tag_46\n        /* \"hardhat/console.sol\":6476:6478  p0 */\n      dup3\n        /* \"hardhat/console.sol\":6480:6482  p1 */\n      dup3\n        /* \"hardhat/console.sol\":6429:6483  abi.encodeWithSignature(\"log(string,address)\", p0, p1) */\n      add(0x24, mload(0x40))\n      tag_47\n      swap3\n      swap2\n      swap1\n      tag_48\n      jump\t// in\n    tag_47:\n      mload(0x40)\n      0x20\n      dup2\n      dup4\n      sub\n      sub\n      dup2\n      mstore\n      swap1\n      0x40\n      mstore\n      and(not(0xffffffffffffffffffffffffffffffffffffffffffffffffffffffff), 0x319af33300000000000000000000000000000000000000000000000000000000)\n      0x20\n      dup3\n      add\n      dup1\n      mload\n      0xffffffffffffffffffffffffffffffffffffffffffffffffffffffff\n      dup4\n      dup2\n      dup4\n      and\n      or\n      dup4\n      mstore\n      pop\n      pop\n      pop\n      pop\n        /* \"hardhat/console.sol\":6413:6428  _sendLogPayload */\n      tag_49\n        /* \"hardhat/console.sol\":6413:6484  _sendLogPayload(abi.encodeWithSignature(\"log(string,address)\", p0, p1)) */\n      jump\t// in\n    tag_46:\n        /* \"hardhat/console.sol\":6352:6488  function log(string memory p0, address p1) internal view {... */\n      pop\n      pop\n      jump\t// out\n        /* \"hardhat/console.sol\":5936:6072  function log(string memory p0, uint256 p1) internal view {... */\n    tag_38:\n        /* \"hardhat/console.sol\":5997:6068  _sendLogPayload(abi.encodeWithSignature(\"log(string,uint256)\", p0, p1)) */\n      tag_51\n        /* \"hardhat/console.sol\":6060:6062  p0 */\n      dup3\n        /* \"hardhat/console.sol\":6064:6066  p1 */\n      dup3\n        /* \"hardhat/console.sol\":6013:6067  abi.encodeWithSignature(\"log(string,uint256)\", p0, p1) */\n      add(0x24, mload(0x40))\n      tag_52\n      swap3\n      swap2\n      swap1\n      tag_53\n      jump\t// in\n    tag_52:\n      mload(0x40)\n      0x20\n      dup2\n      dup4\n      sub\n      sub\n      dup2\n      mstore\n      swap1\n      0x40\n      mstore\n      and(not(0xffffffffffffffffffffffffffffffffffffffffffffffffffffffff), 0xb60e72cc00000000000000000000000000000000000000000000000000000000)\n      0x20\n      dup3\n      add\n      dup1\n      mload\n      0xffffffffffffffffffffffffffffffffffffffffffffffffffffffff\n      dup4\n      dup2\n      dup4\n      and\n      or\n      dup4\n      mstore\n      pop\n      pop\n      pop\n      pop\n        /* \"hardhat/console.sol\":5997:6012  _sendLogPayload */\n      tag_49\n        /* \"hardhat/console.sol\":5997:6068  _sendLogPayload(abi.encodeWithSignature(\"log(string,uint256)\", p0, p1)) */\n      jump\t// in\n    tag_51:\n        /* \"hardhat/console.sol\":5936:6072  function log(string memory p0, uint256 p1) internal view {... */\n      pop\n      pop\n      jump\t// out\n        /* \"hardhat/console.sol\":176:464  function _sendLogPayload(bytes memory payload) private view {... */\n    tag_49:\n        /* \"hardhat/console.sol\":240:261  uint256 payloadLength */\n      0x00\n        /* \"hardhat/console.sol\":264:271  payload */\n      dup2\n        /* \"hardhat/console.sol\":264:278  payload.length */\n      mload\n        /* \"hardhat/console.sol\":240:278  uint256 payloadLength = payload.length */\n      swap1\n      pop\n        /* \"hardhat/console.sol\":282:304  address consoleAddress */\n      0x00\n        /* \"hardhat/console.sol\":129:171  0x000000000000000000636F6e736F6c652e6c6f67 */\n      0x636f6e736f6c652e6c6f67\n        /* \"hardhat/console.sol\":282:322  address consoleAddress = CONSOLE_ADDRESS */\n      swap1\n      pop\n        /* \"hardhat/console.sol\":373:375  32 */\n      0x20\n        /* \"hardhat/console.sol\":364:371  payload */\n      dup4\n        /* \"hardhat/console.sol\":360:376  add(payload, 32) */\n      add\n        /* \"hardhat/console.sol\":455:456  0 */\n      0x00\n        /* \"hardhat/console.sol\":452:453  0 */\n      dup1\n        /* \"hardhat/console.sol\":437:450  payloadLength */\n      dup5\n        /* \"hardhat/console.sol\":423:435  payloadStart */\n      dup4\n        /* \"hardhat/console.sol\":407:421  consoleAddress */\n      dup6\n        /* \"hardhat/console.sol\":400:405  gas() */\n      gas\n        /* \"hardhat/console.sol\":389:457  staticcall(gas(), consoleAddress, payloadStart, payloadLength, 0, 0) */\n      staticcall\n        /* \"hardhat/console.sol\":335:461  {... */\n      pop\n      pop\n      pop\n      pop\n        /* \"hardhat/console.sol\":176:464  function _sendLogPayload(bytes memory payload) private view {... */\n      pop\n      jump\t// out\n        /* \"#utility.yul\":7:146   */\n    tag_56:\n        /* \"#utility.yul\":53:58   */\n      0x00\n        /* \"#utility.yul\":91:97   */\n      dup2\n        /* \"#utility.yul\":78:98   */\n      calldataload\n        /* \"#utility.yul\":69:98   */\n      swap1\n      pop\n        /* \"#utility.yul\":107:140   */\n      tag_58\n        /* \"#utility.yul\":134:139   */\n      dup2\n        /* \"#utility.yul\":107:140   */\n      tag_59\n      jump\t// in\n    tag_58:\n        /* \"#utility.yul\":7:146   */\n      swap3\n      swap2\n      pop\n      pop\n      jump\t// out\n        /* \"#utility.yul\":152:307   */\n    tag_60:\n        /* \"#utility.yul\":206:211   */\n      0x00\n        /* \"#utility.yul\":244:250   */\n      dup2\n        /* \"#utility.yul\":231:251   */\n      calldataload\n        /* \"#utility.yul\":222:251   */\n      swap1\n      pop\n        /* \"#utility.yul\":260:301   */\n      tag_62\n        /* \"#utility.yul\":295:300   */\n      dup2\n        /* \"#utility.yul\":260:301   */\n      tag_63\n      jump\t// in\n    tag_62:\n        /* \"#utility.yul\":152:307   */\n      swap3\n      swap2\n      pop\n      pop\n      jump\t// out\n        /* \"#utility.yul\":313:642   */\n    tag_20:\n        /* \"#utility.yul\":372:378   */\n      0x00\n        /* \"#utility.yul\":421:423   */\n      0x20\n        /* \"#utility.yul\":409:418   */\n      dup3\n        /* \"#utility.yul\":400:407   */\n      dup5\n        /* \"#utility.yul\":396:419   */\n      sub\n        /* \"#utility.yul\":392:424   */\n      slt\n        /* \"#utility.yul\":389:508   */\n      iszero\n      tag_65\n      jumpi\n        /* \"#utility.yul\":427:506   */\n      tag_66\n      tag_67\n      jump\t// in\n    tag_66:\n        /* \"#utility.yul\":389:508   */\n    tag_65:\n        /* \"#utility.yul\":547:548   */\n      0x00\n        /* \"#utility.yul\":572:625   */\n      tag_68\n        /* \"#utility.yul\":617:624   */\n      dup5\n        /* \"#utility.yul\":608:614   */\n      dup3\n        /* \"#utility.yul\":597:606   */\n      dup6\n        /* \"#utility.yul\":593:615   */\n      add\n        /* \"#utility.yul\":572:625   */\n      tag_56\n      jump\t// in\n    tag_68:\n        /* \"#utility.yul\":562:625   */\n      swap2\n      pop\n        /* \"#utility.yul\":518:635   */\n      pop\n        /* \"#utility.yul\":313:642   */\n      swap3\n      swap2\n      pop\n      pop\n      jump\t// out\n        /* \"#utility.yul\":648:993   */\n    tag_28:\n        /* \"#utility.yul\":715:721   */\n      0x00\n        /* \"#utility.yul\":764:766   */\n      0x20\n        /* \"#utility.yul\":752:761   */\n      dup3\n        /* \"#utility.yul\":743:750   */\n      dup5\n        /* \"#utility.yul\":739:762   */\n      sub\n        /* \"#utility.yul\":735:767   */\n      slt\n        /* \"#utility.yul\":732:851   */\n      iszero\n      tag_70\n      jumpi\n        /* \"#utility.yul\":770:849   */\n      tag_71\n      tag_67\n      jump\t// in\n    tag_71:\n        /* \"#utility.yul\":732:851   */\n    tag_70:\n        /* \"#utility.yul\":890:891   */\n      0x00\n        /* \"#utility.yul\":915:976   */\n      tag_72\n        /* \"#utility.yul\":968:975   */\n      dup5\n        /* \"#utility.yul\":959:965   */\n      dup3\n        /* \"#utility.yul\":948:957   */\n      dup6\n        /* \"#utility.yul\":944:966   */\n      add\n        /* \"#utility.yul\":915:976   */\n      tag_60\n      jump\t// in\n    tag_72:\n        /* \"#utility.yul\":905:976   */\n      swap2\n      pop\n        /* \"#utility.yul\":861:986   */\n      pop\n        /* \"#utility.yul\":648:993   */\n      swap3\n      swap2\n      pop\n      pop\n      jump\t// out\n        /* \"#utility.yul\":999:1117   */\n    tag_73:\n        /* \"#utility.yul\":1086:1110   */\n      tag_75\n        /* \"#utility.yul\":1104:1109   */\n      dup2\n        /* \"#utility.yul\":1086:1110   */\n      tag_76\n      jump\t// in\n    tag_75:\n        /* \"#utility.yul\":1081:1084   */\n      dup3\n        /* \"#utility.yul\":1074:1111   */\n      mstore\n        /* \"#utility.yul\":999:1117   */\n      pop\n      pop\n      jump\t// out\n        /* \"#utility.yul\":1123:1487   */\n    tag_77:\n        /* \"#utility.yul\":1211:1214   */\n      0x00\n        /* \"#utility.yul\":1239:1278   */\n      tag_79\n        /* \"#utility.yul\":1272:1277   */\n      dup3\n        /* \"#utility.yul\":1239:1278   */\n      tag_80\n      jump\t// in\n    tag_79:\n        /* \"#utility.yul\":1294:1365   */\n      tag_81\n        /* \"#utility.yul\":1358:1364   */\n      dup2\n        /* \"#utility.yul\":1353:1356   */\n      dup6\n        /* \"#utility.yul\":1294:1365   */\n      tag_82\n      jump\t// in\n    tag_81:\n        /* \"#utility.yul\":1287:1365   */\n      swap4\n      pop\n        /* \"#utility.yul\":1374:1426   */\n      tag_83\n        /* \"#utility.yul\":1419:1425   */\n      dup2\n        /* \"#utility.yul\":1414:1417   */\n      dup6\n        /* \"#utility.yul\":1407:1411   */\n      0x20\n        /* \"#utility.yul\":1400:1405   */\n      dup7\n        /* \"#utility.yul\":1396:1412   */\n      add\n        /* \"#utility.yul\":1374:1426   */\n      tag_84\n      jump\t// in\n    tag_83:\n        /* \"#utility.yul\":1451:1480   */\n      tag_85\n        /* \"#utility.yul\":1473:1479   */\n      dup2\n        /* \"#utility.yul\":1451:1480   */\n      tag_86\n      jump\t// in\n    tag_85:\n        /* \"#utility.yul\":1446:1449   */\n      dup5\n        /* \"#utility.yul\":1442:1481   */\n      add\n        /* \"#utility.yul\":1435:1481   */\n      swap2\n      pop\n        /* \"#utility.yul\":1215:1487   */\n      pop\n        /* \"#utility.yul\":1123:1487   */\n      swap3\n      swap2\n      pop\n      pop\n      jump\t// out\n        /* \"#utility.yul\":1493:1611   */\n    tag_87:\n        /* \"#utility.yul\":1580:1604   */\n      tag_89\n        /* \"#utility.yul\":1598:1603   */\n      dup2\n        /* \"#utility.yul\":1580:1604   */\n      tag_90\n      jump\t// in\n    tag_89:\n        /* \"#utility.yul\":1575:1578   */\n      dup3\n        /* \"#utility.yul\":1568:1605   */\n      mstore\n        /* \"#utility.yul\":1493:1611   */\n      pop\n      pop\n      jump\t// out\n        /* \"#utility.yul\":1617:2040   */\n    tag_48:\n        /* \"#utility.yul\":1758:1762   */\n      0x00\n        /* \"#utility.yul\":1796:1798   */\n      0x40\n        /* \"#utility.yul\":1785:1794   */\n      dup3\n        /* \"#utility.yul\":1781:1799   */\n      add\n        /* \"#utility.yul\":1773:1799   */\n      swap1\n      pop\n        /* \"#utility.yul\":1845:1854   */\n      dup2\n        /* \"#utility.yul\":1839:1843   */\n      dup2\n        /* \"#utility.yul\":1835:1855   */\n      sub\n        /* \"#utility.yul\":1831:1832   */\n      0x00\n        /* \"#utility.yul\":1820:1829   */\n      dup4\n        /* \"#utility.yul\":1816:1833   */\n      add\n        /* \"#utility.yul\":1809:1856   */\n      mstore\n        /* \"#utility.yul\":1873:1951   */\n      tag_92\n        /* \"#utility.yul\":1946:1950   */\n      dup2\n        /* \"#utility.yul\":1937:1943   */\n      dup6\n        /* \"#utility.yul\":1873:1951   */\n      tag_77\n      jump\t// in\n    tag_92:\n        /* \"#utility.yul\":1865:1951   */\n      swap1\n      pop\n        /* \"#utility.yul\":1961:2033   */\n      tag_93\n        /* \"#utility.yul\":2029:2031   */\n      0x20\n        /* \"#utility.yul\":2018:2027   */\n      dup4\n        /* \"#utility.yul\":2014:2032   */\n      add\n        /* \"#utility.yul\":2005:2011   */\n      dup5\n        /* \"#utility.yul\":1961:2033   */\n      tag_73\n      jump\t// in\n    tag_93:\n        /* \"#utility.yul\":1617:2040   */\n      swap4\n      swap3\n      pop\n      pop\n      pop\n      jump\t// out\n        /* \"#utility.yul\":2046:2469   */\n    tag_53:\n        /* \"#utility.yul\":2187:2191   */\n      0x00\n        /* \"#utility.yul\":2225:2227   */\n      0x40\n        /* \"#utility.yul\":2214:2223   */\n      dup3\n        /* \"#utility.yul\":2210:2228   */\n      add\n        /* \"#utility.yul\":2202:2228   */\n      swap1\n      pop\n        /* \"#utility.yul\":2274:2283   */\n      dup2\n        /* \"#utility.yul\":2268:2272   */\n      dup2\n        /* \"#utility.yul\":2264:2284   */\n      sub\n        /* \"#utility.yul\":2260:2261   */\n      0x00\n        /* \"#utility.yul\":2249:2258   */\n      dup4\n        /* \"#utility.yul\":2245:2262   */\n      add\n        /* \"#utility.yul\":2238:2285   */\n      mstore\n        /* \"#utility.yul\":2302:2380   */\n      tag_95\n        /* \"#utility.yul\":2375:2379   */\n      dup2\n        /* \"#utility.yul\":2366:2372   */\n      dup6\n        /* \"#utility.yul\":2302:2380   */\n      tag_77\n      jump\t// in\n    tag_95:\n        /* \"#utility.yul\":2294:2380   */\n      swap1\n      pop\n        /* \"#utility.yul\":2390:2462   */\n      tag_96\n        /* \"#utility.yul\":2458:2460   */\n      0x20\n        /* \"#utility.yul\":2447:2456   */\n      dup4\n        /* \"#utility.yul\":2443:2461   */\n      add\n        /* \"#utility.yul\":2434:2440   */\n      dup5\n        /* \"#utility.yul\":2390:2462   */\n      tag_87\n      jump\t// in\n    tag_96:\n        /* \"#utility.yul\":2046:2469   */\n      swap4\n      swap3\n      pop\n      pop\n      pop\n      jump\t// out\n        /* \"#utility.yul\":2475:2697   */\n    tag_16:\n        /* \"#utility.yul\":2568:2572   */\n      0x00\n        /* \"#utility.yul\":2606:2608   */\n      0x20\n        /* \"#utility.yul\":2595:2604   */\n      dup3\n        /* \"#utility.yul\":2591:2609   */\n      add\n        /* \"#utility.yul\":2583:2609   */\n      swap1\n      pop\n        /* \"#utility.yul\":2619:2690   */\n      tag_98\n        /* \"#utility.yul\":2687:2688   */\n      0x00\n        /* \"#utility.yul\":2676:2685   */\n      dup4\n        /* \"#utility.yul\":2672:2689   */\n      add\n        /* \"#utility.yul\":2663:2669   */\n      dup5\n        /* \"#utility.yul\":2619:2690   */\n      tag_87\n      jump\t// in\n    tag_98:\n        /* \"#utility.yul\":2475:2697   */\n      swap3\n      swap2\n      pop\n      pop\n      jump\t// out\n        /* \"#utility.yul\":2784:2883   */\n    tag_80:\n        /* \"#utility.yul\":2836:2842   */\n      0x00\n        /* \"#utility.yul\":2870:2875   */\n      dup2\n        /* \"#utility.yul\":2864:2876   */\n      mload\n        /* \"#utility.yul\":2854:2876   */\n      swap1\n      pop\n        /* \"#utility.yul\":2784:2883   */\n      swap2\n      swap1\n      pop\n      jump\t// out\n        /* \"#utility.yul\":2889:3058   */\n    tag_82:\n        /* \"#utility.yul\":2973:2984   */\n      0x00\n        /* \"#utility.yul\":3007:3013   */\n      dup3\n        /* \"#utility.yul\":3002:3005   */\n      dup3\n        /* \"#utility.yul\":2995:3014   */\n      mstore\n        /* \"#utility.yul\":3047:3051   */\n      0x20\n        /* \"#utility.yul\":3042:3045   */\n      dup3\n        /* \"#utility.yul\":3038:3052   */\n      add\n        /* \"#utility.yul\":3023:3052   */\n      swap1\n      pop\n        /* \"#utility.yul\":2889:3058   */\n      swap3\n      swap2\n      pop\n      pop\n      jump\t// out\n        /* \"#utility.yul\":3064:3369   */\n    tag_40:\n        /* \"#utility.yul\":3104:3107   */\n      0x00\n        /* \"#utility.yul\":3123:3143   */\n      tag_104\n        /* \"#utility.yul\":3141:3142   */\n      dup3\n        /* \"#utility.yul\":3123:3143   */\n      tag_90\n      jump\t// in\n    tag_104:\n        /* \"#utility.yul\":3118:3143   */\n      swap2\n      pop\n        /* \"#utility.yul\":3157:3177   */\n      tag_105\n        /* \"#utility.yul\":3175:3176   */\n      dup4\n        /* \"#utility.yul\":3157:3177   */\n      tag_90\n      jump\t// in\n    tag_105:\n        /* \"#utility.yul\":3152:3177   */\n      swap3\n      pop\n        /* \"#utility.yul\":3311:3312   */\n      dup3\n        /* \"#utility.yul\":3243:3309   */\n      0xffffffffffffffffffffffffffffffffffffffffffffffffffffffffffffffff\n        /* \"#utility.yul\":3239:3313   */\n      sub\n        /* \"#utility.yul\":3236:3237   */\n      dup3\n        /* \"#utility.yul\":3233:3314   */\n      gt\n        /* \"#utility.yul\":3230:3337   */\n      iszero\n      tag_106\n      jumpi\n        /* \"#utility.yul\":3317:3335   */\n      tag_107\n      tag_108\n      jump\t// in\n    tag_107:\n        /* \"#utility.yul\":3230:3337   */\n    tag_106:\n        /* \"#utility.yul\":3361:3362   */\n      dup3\n        /* \"#utility.yul\":3358:3359   */\n      dup3\n        /* \"#utility.yul\":3354:3363   */\n      add\n        /* \"#utility.yul\":3347:3363   */\n      swap1\n      pop\n        /* \"#utility.yul\":3064:3369   */\n      swap3\n      swap2\n      pop\n      pop\n      jump\t// out\n        /* \"#utility.yul\":3375:3471   */\n    tag_76:\n        /* \"#utility.yul\":3412:3419   */\n      0x00\n        /* \"#utility.yul\":3441:3465   */\n      tag_110\n        /* \"#utility.yul\":3459:3464   */\n      dup3\n        /* \"#utility.yul\":3441:3465   */\n      tag_111\n      jump\t// in\n    tag_110:\n        /* \"#utility.yul\":3430:3465   */\n      swap1\n      pop\n        /* \"#utility.yul\":3375:3471   */\n      swap2\n      swap1\n      pop\n      jump\t// out\n        /* \"#utility.yul\":3477:3581   */\n    tag_112:\n        /* \"#utility.yul\":3522:3529   */\n      0x00\n        /* \"#utility.yul\":3551:3575   */\n      tag_114\n        /* \"#utility.yul\":3569:3574   */\n      dup3\n        /* \"#utility.yul\":3551:3575   */\n      tag_111\n      jump\t// in\n    tag_114:\n        /* \"#utility.yul\":3540:3575   */\n      swap1\n      pop\n        /* \"#utility.yul\":3477:3581   */\n      swap2\n      swap1\n      pop\n      jump\t// out\n        /* \"#utility.yul\":3587:3713   */\n    tag_111:\n        /* \"#utility.yul\":3624:3631   */\n      0x00\n        /* \"#utility.yul\":3664:3706   */\n      0xffffffffffffffffffffffffffffffffffffffff\n        /* \"#utility.yul\":3657:3662   */\n      dup3\n        /* \"#utility.yul\":3653:3707   */\n      and\n        /* \"#utility.yul\":3642:3707   */\n      swap1\n      pop\n        /* \"#utility.yul\":3587:3713   */\n      swap2\n      swap1\n      pop\n      jump\t// out\n        /* \"#utility.yul\":3719:3796   */\n    tag_90:\n        /* \"#utility.yul\":3756:3763   */\n      0x00\n        /* \"#utility.yul\":3785:3790   */\n      dup2\n        /* \"#utility.yul\":3774:3790   */\n      swap1\n      pop\n        /* \"#utility.yul\":3719:3796   */\n      swap2\n      swap1\n      pop\n      jump\t// out\n        /* \"#utility.yul\":3802:4109   */\n    tag_84:\n        /* \"#utility.yul\":3870:3871   */\n      0x00\n        /* \"#utility.yul\":3880:3993   */\n    tag_118:\n        /* \"#utility.yul\":3894:3900   */\n      dup4\n        /* \"#utility.yul\":3891:3892   */\n      dup2\n        /* \"#utility.yul\":3888:3901   */\n      lt\n        /* \"#utility.yul\":3880:3993   */\n      iszero\n      tag_120\n      jumpi\n        /* \"#utility.yul\":3979:3980   */\n      dup1\n        /* \"#utility.yul\":3974:3977   */\n      dup3\n        /* \"#utility.yul\":3970:3981   */\n      add\n        /* \"#utility.yul\":3964:3982   */\n      mload\n        /* \"#utility.yul\":3960:3961   */\n      dup2\n        /* \"#utility.yul\":3955:3958   */\n      dup5\n        /* \"#utility.yul\":3951:3962   */\n      add\n        /* \"#utility.yul\":3944:3983   */\n      mstore\n        /* \"#utility.yul\":3916:3918   */\n      0x20\n        /* \"#utility.yul\":3913:3914   */\n      dup2\n        /* \"#utility.yul\":3909:3919   */\n      add\n        /* \"#utility.yul\":3904:3919   */\n      swap1\n      pop\n        /* \"#utility.yul\":3880:3993   */\n      jump(tag_118)\n    tag_120:\n        /* \"#utility.yul\":4011:4017   */\n      dup4\n        /* \"#utility.yul\":4008:4009   */\n      dup2\n        /* \"#utility.yul\":4005:4018   */\n      gt\n        /* \"#utility.yul\":4002:4103   */\n      iszero\n      tag_121\n      jumpi\n        /* \"#utility.yul\":4091:4092   */\n      0x00\n        /* \"#utility.yul\":4082:4088   */\n      dup5\n        /* \"#utility.yul\":4077:4080   */\n      dup5\n        /* \"#utility.yul\":4073:4089   */\n      add\n        /* \"#utility.yul\":4066:4093   */\n      mstore\n        /* \"#utility.yul\":4002:4103   */\n    tag_121:\n        /* \"#utility.yul\":3851:4109   */\n      pop\n        /* \"#utility.yul\":3802:4109   */\n      pop\n      pop\n      pop\n      jump\t// out\n        /* \"#utility.yul\":4115:4295   */\n    tag_108:\n        /* \"#utility.yul\":4163:4240   */\n      0x4e487b7100000000000000000000000000000000000000000000000000000000\n        /* \"#utility.yul\":4160:4161   */\n      0x00\n        /* \"#utility.yul\":4153:4241   */\n      mstore\n        /* \"#utility.yul\":4260:4264   */\n      0x11\n        /* \"#utility.yul\":4257:4258   */\n      0x04\n        /* \"#utility.yul\":4250:4265   */\n      mstore\n        /* \"#utility.yul\":4284:4288   */\n      0x24\n        /* \"#utility.yul\":4281:4282   */\n      0x00\n        /* \"#utility.yul\":4274:4289   */\n      revert\n        /* \"#utility.yul\":4424:4541   */\n    tag_67:\n        /* \"#utility.yul\":4533:4534   */\n      0x00\n        /* \"#utility.yul\":4530:4531   */\n      dup1\n        /* \"#utility.yul\":4523:4535   */\n      revert\n        /* \"#utility.yul\":4547:4649   */\n    tag_86:\n        /* \"#utility.yul\":4588:4594   */\n      0x00\n        /* \"#utility.yul\":4639:4641   */\n      0x1f\n        /* \"#utility.yul\":4635:4642   */\n      not\n        /* \"#utility.yul\":4630:4632   */\n      0x1f\n        /* \"#utility.yul\":4623:4628   */\n      dup4\n        /* \"#utility.yul\":4619:4633   */\n      add\n        /* \"#utility.yul\":4615:4643   */\n      and\n        /* \"#utility.yul\":4605:4643   */\n      swap1\n      pop\n        /* \"#utility.yul\":4547:4649   */\n      swap2\n      swap1\n      pop\n      jump\t// out\n        /* \"#utility.yul\":4655:4777   */\n    tag_59:\n        /* \"#utility.yul\":4728:4752   */\n      tag_128\n        /* \"#utility.yul\":4746:4751   */\n      dup2\n        /* \"#utility.yul\":4728:4752   */\n      tag_76\n      jump\t// in\n    tag_128:\n        /* \"#utility.yul\":4721:4726   */\n      dup2\n        /* \"#utility.yul\":4718:4753   */\n      eq\n        /* \"#utility.yul\":4708:4771   */\n      tag_129\n      jumpi\n        /* \"#utility.yul\":4767:4768   */\n      0x00\n        /* \"#utility.yul\":4764:4765   */\n      dup1\n        /* \"#utility.yul\":4757:4769   */\n      revert\n        /* \"#utility.yul\":4708:4771   */\n    tag_129:\n        /* \"#utility.yul\":4655:4777   */\n      pop\n      jump\t// out\n        /* \"#utility.yul\":4783:4921   */\n    tag_63:\n        /* \"#utility.yul\":4864:4896   */\n      tag_131\n        /* \"#utility.yul\":4890:4895   */\n      dup2\n        /* \"#utility.yul\":4864:4896   */\n      tag_112\n      jump\t// in\n    tag_131:\n        /* \"#utility.yul\":4857:4862   */\n      dup2\n        /* \"#utility.yul\":4854:4897   */\n      eq\n        /* \"#utility.yul\":4844:4915   */\n      tag_132\n      jumpi\n        /* \"#utility.yul\":4911:4912   */\n      0x00\n        /* \"#utility.yul\":4908:4909   */\n      dup1\n        /* \"#utility.yul\":4901:4913   */\n      revert\n        /* \"#utility.yul\":4844:4915   */\n    tag_132:\n        /* \"#utility.yul\":4783:4921   */\n      pop\n      jump\t// out\n\n    auxdata: 0xa2646970667358221220027babd088b155de08e7aa96947e6b651d08f072fb334ee0d2ab88ea9d0e0c8264736f6c63430008070033\n}\n",
				"bytecode": {
					"linkReferences": {},
					"object": "608060405234801561001057600080fd5b50610707806100206000396000f3fe60806040526004361061004e5760003560e01c8063229688851461005757806327e235e3146100825780633a4b66f1146100bf57806351cff8d9146100c9578063a6f2ae3a146100f257610055565b3661005557005b005b34801561006357600080fd5b5061006c610109565b6040516100799190610550565b60405180910390f35b34801561008e57600080fd5b506100a960048036038101906100a4919061043f565b610111565b6040516100b69190610550565b60405180910390f35b6100c7610129565b005b3480156100d557600080fd5b506100f060048036038101906100eb919061046c565b6101fe565b005b3480156100fe57600080fd5b5061010761027b565b005b600047905090565b60006020528060005260406000206000915090505481565b6101686040518060400160405280600a81526020017f6d73672e73656e64657200000000000000000000000000000000000000000000815250336102b4565b6101a76040518060400160405280600981526020017f6d73672e76616c7565000000000000000000000000000000000000000000000081525034610350565b346000803373ffffffffffffffffffffffffffffffffffffffff1673ffffffffffffffffffffffffffffffffffffffff16815260200190815260200160002060008282546101f59190610587565b92505081905550565b60008060003373ffffffffffffffffffffffffffffffffffffffff1673ffffffffffffffffffffffffffffffffffffffff1681526020019081526020016000205490503373ffffffffffffffffffffffffffffffffffffffff166108fc829081150290604051600060405180830381858888f19350505050505050565b7fdde71ec107d36cacc35f19230110eaa83cd22c0640f1ded308eeb1d9b037c6c1426040516102aa9190610550565b60405180910390a1565b61034c82826040516024016102ca9291906104f0565b6040516020818303038152906040527f319af333000000000000000000000000000000000000000000000000000000007bffffffffffffffffffffffffffffffffffffffffffffffffffffffff19166020820180517bffffffffffffffffffffffffffffffffffffffffffffffffffffffff83818316178352505050506103ec565b5050565b6103e88282604051602401610366929190610520565b6040516020818303038152906040527fb60e72cc000000000000000000000000000000000000000000000000000000007bffffffffffffffffffffffffffffffffffffffffffffffffffffffff19166020820180517bffffffffffffffffffffffffffffffffffffffffffffffffffffffff83818316178352505050506103ec565b5050565b60008151905060006a636f6e736f6c652e6c6f679050602083016000808483855afa5050505050565b600081359050610424816106a3565b92915050565b600081359050610439816106ba565b92915050565b6000602082840312156104555761045461068d565b5b600061046384828501610415565b91505092915050565b6000602082840312156104825761048161068d565b5b60006104908482850161042a565b91505092915050565b6104a2816105dd565b82525050565b60006104b38261056b565b6104bd8185610576565b93506104cd81856020860161062b565b6104d681610692565b840191505092915050565b6104ea81610621565b82525050565b6000604082019050818103600083015261050a81856104a8565b90506105196020830184610499565b9392505050565b6000604082019050818103600083015261053a81856104a8565b905061054960208301846104e1565b9392505050565b600060208201905061056560008301846104e1565b92915050565b600081519050919050565b600082825260208201905092915050565b600061059282610621565b915061059d83610621565b9250827fffffffffffffffffffffffffffffffffffffffffffffffffffffffffffffffff038211156105d2576105d161065e565b5b828201905092915050565b60006105e882610601565b9050919050565b60006105fa82610601565b9050919050565b600073ffffffffffffffffffffffffffffffffffffffff82169050919050565b6000819050919050565b60005b8381101561064957808201518184015260208101905061062e565b83811115610658576000848401525b50505050565b7f4e487b7100000000000000000000000000000000000000000000000000000000600052601160045260246000fd5b600080fd5b6000601f19601f8301169050919050565b6106ac816105dd565b81146106b757600080fd5b50565b6106c3816105ef565b81146106ce57600080fd5b5056fea2646970667358221220027babd088b155de08e7aa96947e6b651d08f072fb334ee0d2ab88ea9d0e0c8264736f6c63430008070033",
					"opcodes": "PUSH1 0x80 PUSH1 0x40 MSTORE CALLVALUE DUP1 ISZERO PUSH2 0x10 JUMPI PUSH1 0x0 DUP1 REVERT JUMPDEST POP PUSH2 0x707 DUP1 PUSH2 0x20 PUSH1 0x0 CODECOPY PUSH1 0x0 RETURN INVALID PUSH1 0x80 PUSH1 0x40 MSTORE PUSH1 0x4 CALLDATASIZE LT PUSH2 0x4E JUMPI PUSH1 0x0 CALLDATALOAD PUSH1 0xE0 SHR DUP1 PUSH4 0x22968885 EQ PUSH2 0x57 JUMPI DUP1 PUSH4 0x27E235E3 EQ PUSH2 0x82 JUMPI DUP1 PUSH4 0x3A4B66F1 EQ PUSH2 0xBF JUMPI DUP1 PUSH4 0x51CFF8D9 EQ PUSH2 0xC9 JUMPI DUP1 PUSH4 0xA6F2AE3A EQ PUSH2 0xF2 JUMPI PUSH2 0x55 JUMP JUMPDEST CALLDATASIZE PUSH2 0x55 JUMPI STOP JUMPDEST STOP JUMPDEST CALLVALUE DUP1 ISZERO PUSH2 0x63 JUMPI PUSH1 0x0 DUP1 REVERT JUMPDEST POP PUSH2 0x6C PUSH2 0x109 JUMP JUMPDEST PUSH1 0x40 MLOAD PUSH2 0x79 SWAP2 SWAP1 PUSH2 0x550 JUMP JUMPDEST PUSH1 0x40 MLOAD DUP1 SWAP2 SUB SWAP1 RETURN JUMPDEST CALLVALUE DUP1 ISZERO PUSH2 0x8E JUMPI PUSH1 0x0 DUP1 REVERT JUMPDEST POP PUSH2 0xA9 PUSH1 0x4 DUP1 CALLDATASIZE SUB DUP2 ADD SWAP1 PUSH2 0xA4 SWAP2 SWAP1 PUSH2 0x43F JUMP JUMPDEST PUSH2 0x111 JUMP JUMPDEST PUSH1 0x40 MLOAD PUSH2 0xB6 SWAP2 SWAP1 PUSH2 0x550 JUMP JUMPDEST PUSH1 0x40 MLOAD DUP1 SWAP2 SUB SWAP1 RETURN JUMPDEST PUSH2 0xC7 PUSH2 0x129 JUMP JUMPDEST STOP JUMPDEST CALLVALUE DUP1 ISZERO PUSH2 0xD5 JUMPI PUSH1 0x0 DUP1 REVERT JUMPDEST POP PUSH2 0xF0 PUSH1 0x4 DUP1 CALLDATASIZE SUB DUP2 ADD SWAP1 PUSH2 0xEB SWAP2 SWAP1 PUSH2 0x46C JUMP JUMPDEST PUSH2 0x1FE JUMP JUMPDEST STOP JUMPDEST CALLVALUE DUP1 ISZERO PUSH2 0xFE JUMPI PUSH1 0x0 DUP1 REVERT JUMPDEST POP PUSH2 0x107 PUSH2 0x27B JUMP JUMPDEST STOP JUMPDEST PUSH1 0x0 SELFBALANCE SWAP1 POP SWAP1 JUMP JUMPDEST PUSH1 0x0 PUSH1 0x20 MSTORE DUP1 PUSH1 0x0 MSTORE PUSH1 0x40 PUSH1 0x0 KECCAK256 PUSH1 0x0 SWAP2 POP SWAP1 POP SLOAD DUP2 JUMP JUMPDEST PUSH2 0x168 PUSH1 0x40 MLOAD DUP1 PUSH1 0x40 ADD PUSH1 0x40 MSTORE DUP1 PUSH1 0xA DUP2 MSTORE PUSH1 0x20 ADD PUSH32 0x6D73672E73656E64657200000000000000000000000000000000000000000000 DUP2 MSTORE POP CALLER PUSH2 0x2B4 JUMP JUMPDEST PUSH2 0x1A7 PUSH1 0x40 MLOAD DUP1 PUSH1 0x40 ADD PUSH1 0x40 MSTORE DUP1 PUSH1 0x9 DUP2 MSTORE PUSH1 0x20 ADD PUSH32 0x6D73672E76616C75650000000000000000000000000000000000000000000000 DUP2 MSTORE POP CALLVALUE PUSH2 0x350 JUMP JUMPDEST CALLVALUE PUSH1 0x0 DUP1 CALLER PUSH20 0xFFFFFFFFFFFFFFFFFFFFFFFFFFFFFFFFFFFFFFFF AND PUSH20 0xFFFFFFFFFFFFFFFFFFFFFFFFFFFFFFFFFFFFFFFF AND DUP2 MSTORE PUSH1 0x20 ADD SWAP1 DUP2 MSTORE PUSH1 0x20 ADD PUSH1 0x0 KECCAK256 PUSH1 0x0 DUP3 DUP3 SLOAD PUSH2 0x1F5 SWAP2 SWAP1 PUSH2 0x587 JUMP JUMPDEST SWAP3 POP POP DUP2 SWAP1 SSTORE POP JUMP JUMPDEST PUSH1 0x0 DUP1 PUSH1 0x0 CALLER PUSH20 0xFFFFFFFFFFFFFFFFFFFFFFFFFFFFFFFFFFFFFFFF AND PUSH20 0xFFFFFFFFFFFFFFFFFFFFFFFFFFFFFFFFFFFFFFFF AND DUP2 MSTORE PUSH1 0x20 ADD SWAP1 DUP2 MSTORE PUSH1 0x20 ADD PUSH1 0x0 KECCAK256 SLOAD SWAP1 POP CALLER PUSH20 0xFFFFFFFFFFFFFFFFFFFFFFFFFFFFFFFFFFFFFFFF AND PUSH2 0x8FC DUP3 SWAP1 DUP2 ISZERO MUL SWAP1 PUSH1 0x40 MLOAD PUSH1 0x0 PUSH1 0x40 MLOAD DUP1 DUP4 SUB DUP2 DUP6 DUP9 DUP9 CALL SWAP4 POP POP POP POP POP POP POP JUMP JUMPDEST PUSH32 0xDDE71EC107D36CACC35F19230110EAA83CD22C0640F1DED308EEB1D9B037C6C1 TIMESTAMP PUSH1 0x40 MLOAD PUSH2 0x2AA SWAP2 SWAP1 PUSH2 0x550 JUMP JUMPDEST PUSH1 0x40 MLOAD DUP1 SWAP2 SUB SWAP1 LOG1 JUMP JUMPDEST PUSH2 0x34C DUP3 DUP3 PUSH1 0x40 MLOAD PUSH1 0x24 ADD PUSH2 0x2CA SWAP3 SWAP2 SWAP1 PUSH2 0x4F0 JUMP JUMPDEST PUSH1 0x40 MLOAD PUSH1 0x20 DUP2 DUP4 SUB SUB DUP2 MSTORE SWAP1 PUSH1 0x40 MSTORE PUSH32 0x319AF33300000000000000000000000000000000000000000000000000000000 PUSH28 0xFFFFFFFFFFFFFFFFFFFFFFFFFFFFFFFFFFFFFFFFFFFFFFFFFFFFFFFF NOT AND PUSH1 0x20 DUP3 ADD DUP1 MLOAD PUSH28 0xFFFFFFFFFFFFFFFFFFFFFFFFFFFFFFFFFFFFFFFFFFFFFFFFFFFFFFFF DUP4 DUP2 DUP4 AND OR DUP4 MSTORE POP POP POP POP PUSH2 0x3EC JUMP JUMPDEST POP POP JUMP JUMPDEST PUSH2 0x3E8 DUP3 DUP3 PUSH1 0x40 MLOAD PUSH1 0x24 ADD PUSH2 0x366 SWAP3 SWAP2 SWAP1 PUSH2 0x520 JUMP JUMPDEST PUSH1 0x40 MLOAD PUSH1 0x20 DUP2 DUP4 SUB SUB DUP2 MSTORE SWAP1 PUSH1 0x40 MSTORE PUSH32 0xB60E72CC00000000000000000000000000000000000000000000000000000000 PUSH28 0xFFFFFFFFFFFFFFFFFFFFFFFFFFFFFFFFFFFFFFFFFFFFFFFFFFFFFFFF NOT AND PUSH1 0x20 DUP3 ADD DUP1 MLOAD PUSH28 0xFFFFFFFFFFFFFFFFFFFFFFFFFFFFFFFFFFFFFFFFFFFFFFFFFFFFFFFF DUP4 DUP2 DUP4 AND OR DUP4 MSTORE POP POP POP POP PUSH2 0x3EC JUMP JUMPDEST POP POP JUMP JUMPDEST PUSH1 0x0 DUP2 MLOAD SWAP1 POP PUSH1 0x0 PUSH11 0x636F6E736F6C652E6C6F67 SWAP1 POP PUSH1 0x20 DUP4 ADD PUSH1 0x0 DUP1 DUP5 DUP4 DUP6 GAS STATICCALL POP POP POP POP POP JUMP JUMPDEST PUSH1 0x0 DUP2 CALLDATALOAD SWAP1 POP PUSH2 0x424 DUP2 PUSH2 0x6A3 JUMP JUMPDEST SWAP3 SWAP2 POP POP JUMP JUMPDEST PUSH1 0x0 DUP2 CALLDATALOAD SWAP1 POP PUSH2 0x439 DUP2 PUSH2 0x6BA JUMP JUMPDEST SWAP3 SWAP2 POP POP JUMP JUMPDEST PUSH1 0x0 PUSH1 0x20 DUP3 DUP5 SUB SLT ISZERO PUSH2 0x455 JUMPI PUSH2 0x454 PUSH2 0x68D JUMP JUMPDEST JUMPDEST PUSH1 0x0 PUSH2 0x463 DUP5 DUP3 DUP6 ADD PUSH2 0x415 JUMP JUMPDEST SWAP2 POP POP SWAP3 SWAP2 POP POP JUMP JUMPDEST PUSH1 0x0 PUSH1 0x20 DUP3 DUP5 SUB SLT ISZERO PUSH2 0x482 JUMPI PUSH2 0x481 PUSH2 0x68D JUMP JUMPDEST JUMPDEST PUSH1 0x0 PUSH2 0x490 DUP5 DUP3 DUP6 ADD PUSH2 0x42A JUMP JUMPDEST SWAP2 POP POP SWAP3 SWAP2 POP POP JUMP JUMPDEST PUSH2 0x4A2 DUP2 PUSH2 0x5DD JUMP JUMPDEST DUP3 MSTORE POP POP JUMP JUMPDEST PUSH1 0x0 PUSH2 0x4B3 DUP3 PUSH2 0x56B JUMP JUMPDEST PUSH2 0x4BD DUP2 DUP6 PUSH2 0x576 JUMP JUMPDEST SWAP4 POP PUSH2 0x4CD DUP2 DUP6 PUSH1 0x20 DUP7 ADD PUSH2 0x62B JUMP JUMPDEST PUSH2 0x4D6 DUP2 PUSH2 0x692 JUMP JUMPDEST DUP5 ADD SWAP2 POP POP SWAP3 SWAP2 POP POP JUMP JUMPDEST PUSH2 0x4EA DUP2 PUSH2 0x621 JUMP JUMPDEST DUP3 MSTORE POP POP JUMP JUMPDEST PUSH1 0x0 PUSH1 0x40 DUP3 ADD SWAP1 POP DUP2 DUP2 SUB PUSH1 0x0 DUP4 ADD MSTORE PUSH2 0x50A DUP2 DUP6 PUSH2 0x4A8 JUMP JUMPDEST SWAP1 POP PUSH2 0x519 PUSH1 0x20 DUP4 ADD DUP5 PUSH2 0x499 JUMP JUMPDEST SWAP4 SWAP3 POP POP POP JUMP JUMPDEST PUSH1 0x0 PUSH1 0x40 DUP3 ADD SWAP1 POP DUP2 DUP2 SUB PUSH1 0x0 DUP4 ADD MSTORE PUSH2 0x53A DUP2 DUP6 PUSH2 0x4A8 JUMP JUMPDEST SWAP1 POP PUSH2 0x549 PUSH1 0x20 DUP4 ADD DUP5 PUSH2 0x4E1 JUMP JUMPDEST SWAP4 SWAP3 POP POP POP JUMP JUMPDEST PUSH1 0x0 PUSH1 0x20 DUP3 ADD SWAP1 POP PUSH2 0x565 PUSH1 0x0 DUP4 ADD DUP5 PUSH2 0x4E1 JUMP JUMPDEST SWAP3 SWAP2 POP POP JUMP JUMPDEST PUSH1 0x0 DUP2 MLOAD SWAP1 POP SWAP2 SWAP1 POP JUMP JUMPDEST PUSH1 0x0 DUP3 DUP3 MSTORE PUSH1 0x20 DUP3 ADD SWAP1 POP SWAP3 SWAP2 POP POP JUMP JUMPDEST PUSH1 0x0 PUSH2 0x592 DUP3 PUSH2 0x621 JUMP JUMPDEST SWAP2 POP PUSH2 0x59D DUP4 PUSH2 0x621 JUMP JUMPDEST SWAP3 POP DUP3 PUSH32 0xFFFFFFFFFFFFFFFFFFFFFFFFFFFFFFFFFFFFFFFFFFFFFFFFFFFFFFFFFFFFFFFF SUB DUP3 GT ISZERO PUSH2 0x5D2 JUMPI PUSH2 0x5D1 PUSH2 0x65E JUMP JUMPDEST JUMPDEST DUP3 DUP3 ADD SWAP1 POP SWAP3 SWAP2 POP POP JUMP JUMPDEST PUSH1 0x0 PUSH2 0x5E8 DUP3 PUSH2 0x601 JUMP JUMPDEST SWAP1 POP SWAP2 SWAP1 POP JUMP JUMPDEST PUSH1 0x0 PUSH2 0x5FA DUP3 PUSH2 0x601 JUMP JUMPDEST SWAP1 POP SWAP2 SWAP1 POP JUMP JUMPDEST PUSH1 0x0 PUSH20 0xFFFFFFFFFFFFFFFFFFFFFFFFFFFFFFFFFFFFFFFF DUP3 AND SWAP1 POP SWAP2 SWAP1 POP JUMP JUMPDEST PUSH1 0x0 DUP2 SWAP1 POP SWAP2 SWAP1 POP JUMP JUMPDEST PUSH1 0x0 JUMPDEST DUP4 DUP2 LT ISZERO PUSH2 0x649 JUMPI DUP1 DUP3 ADD MLOAD DUP2 DUP5 ADD MSTORE PUSH1 0x20 DUP2 ADD SWAP1 POP PUSH2 0x62E JUMP JUMPDEST DUP4 DUP2 GT ISZERO PUSH2 0x658 JUMPI PUSH1 0x0 DUP5 DUP5 ADD MSTORE JUMPDEST POP POP POP POP JUMP JUMPDEST PUSH32 0x4E487B7100000000000000000000000000000000000000000000000000000000 PUSH1 0x0 MSTORE PUSH1 0x11 PUSH1 0x4 MSTORE PUSH1 0x24 PUSH1 0x0 REVERT JUMPDEST PUSH1 0x0 DUP1 REVERT JUMPDEST PUSH1 0x0 PUSH1 0x1F NOT PUSH1 0x1F DUP4 ADD AND SWAP1 POP SWAP2 SWAP1 POP JUMP JUMPDEST PUSH2 0x6AC DUP2 PUSH2 0x5DD JUMP JUMPDEST DUP2 EQ PUSH2 0x6B7 JUMPI PUSH1 0x0 DUP1 REVERT JUMPDEST POP JUMP JUMPDEST PUSH2 0x6C3 DUP2 PUSH2 0x5EF JUMP JUMPDEST DUP2 EQ PUSH2 0x6CE JUMPI PUSH1 0x0 DUP1 REVERT JUMPDEST POP JUMP INVALID LOG2 PUSH5 0x6970667358 0x22 SLT KECCAK256 MUL PUSH28 0xABD088B155DE08E7AA96947E6B651D08F072FB334EE0D2AB88EA9D0E 0xC DUP3 PUSH5 0x736F6C6343 STOP ADDMOD SMOD STOP CALLER "
				},
				"gasEstimates": {
					"creation": {
						"codeDepositCost": "359800",
						"executionCost": "399",
						"totalCost": "360199"
					},
					"external": {
						"": "173",
						"balances(address)": "2814",
						"buy()": "1400",
						"getBalanceOfContract()": "317",
						"stake()": "infinite",
						"withdraw(address)": "infinite"
					}
				},
				"methodIdentifiers": {
					"balances(address)": "27e235e3",
					"buy()": "a6f2ae3a",
					"getBalanceOfContract()": "22968885",
					"stake()": "3a4b66f1",
					"withdraw(address)": "51cff8d9"
				}
			},
			"storageLayout": {
				"storage": [
					{
						"astId": 10,
						"contract": "contracts/4_DebugTheGraph.sol:DeubgTheGraph",
						"label": "balances",
						"offset": 0,
						"slot": "0",
						"type": "t_mapping(t_address,t_uint256)"
					}
				],
				"types": {
					"t_address": {
						"encoding": "inplace",
						"label": "address",
						"numberOfBytes": "20"
					},
					"t_mapping(t_address,t_uint256)": {
						"encoding": "mapping",
						"key": "t_address",
						"label": "mapping(address => uint256)",
						"numberOfBytes": "32",
						"value": "t_uint256"
					},
					"t_uint256": {
						"encoding": "inplace",
						"label": "uint256",
						"numberOfBytes": "32"
					}
				}
			},
			"userdoc": {
				"kind": "user",
				"methods": {},
				"version": 1
			}
		}
	}
}