{
	"contracts/4_DebugTheGraph.sol": {
		"DeubgTheGraph": {
			"abi": [
				{
					"anonymous": false,
					"inputs": [
						{
							"indexed": false,
							"internalType": "uint256",
							"name": "abc",
							"type": "uint256"
						}
					],
					"name": "ABC",
					"type": "event"
				},
				{
					"stateMutability": "payable",
					"type": "fallback"
				},
				{
					"inputs": [
						{
							"internalType": "address",
							"name": "",
							"type": "address"
						}
					],
					"name": "balances",
					"outputs": [
						{
							"internalType": "uint256",
							"name": "",
							"type": "uint256"
						}
					],
					"stateMutability": "view",
					"type": "function"
				},
				{
					"inputs": [],
					"name": "buy",
					"outputs": [],
					"stateMutability": "nonpayable",
					"type": "function"
				},
				{
					"inputs": [],
					"name": "getBalanceOfContract",
					"outputs": [
						{
							"internalType": "uint256",
							"name": "",
							"type": "uint256"
						}
					],
					"stateMutability": "view",
					"type": "function"
				},
				{
					"inputs": [],
					"name": "stake",
					"outputs": [],
					"stateMutability": "payable",
					"type": "function"
				},
				{
					"inputs": [],
					"name": "withdraw",
					"outputs": [],
					"stateMutability": "payable",
					"type": "function"
				},
				{
					"stateMutability": "payable",
					"type": "receive"
				}
			],
			"devdoc": {
				"kind": "dev",
				"methods": {},
				"version": 1
			},
			"evm": {
				"assembly": "    /* \"contracts/4_DebugTheGraph.sol\":100:1187  contract DeubgTheGraph {... */\n  mstore(0x40, 0x80)\n  callvalue\n  dup1\n  iszero\n  tag_1\n  jumpi\n  0x00\n  dup1\n  revert\ntag_1:\n  pop\n  dataSize(sub_0)\n  dup1\n  dataOffset(sub_0)\n  0x00\n  codecopy\n  0x00\n  return\nstop\n\nsub_0: assembly {\n        /* \"contracts/4_DebugTheGraph.sol\":100:1187  contract DeubgTheGraph {... */\n      mstore(0x40, 0x80)\n      jumpi(tag_1, lt(calldatasize, 0x04))\n      shr(0xe0, calldataload(0x00))\n      dup1\n      0x22968885\n      eq\n      tag_3\n      jumpi\n      dup1\n      0x27e235e3\n      eq\n      tag_4\n      jumpi\n      dup1\n      0x3a4b66f1\n      eq\n      tag_5\n      jumpi\n      dup1\n      0x3ccfd60b\n      eq\n      tag_6\n      jumpi\n      dup1\n      0xa6f2ae3a\n      eq\n      tag_7\n      jumpi\n      jump(tag_2)\n    tag_1:\n      jumpi(tag_2, calldatasize)\n      stop\n    tag_2:\n      stop\n        /* \"contracts/4_DebugTheGraph.sol\":521:680  function getBalanceOfContract() public view returns (uint256) {... */\n    tag_3:\n      callvalue\n      dup1\n      iszero\n      tag_12\n      jumpi\n      0x00\n      dup1\n      revert\n    tag_12:\n      pop\n      tag_13\n      tag_14\n      jump\t// in\n    tag_13:\n      mload(0x40)\n      tag_15\n      swap2\n      swap1\n      tag_16\n      jump\t// in\n    tag_15:\n      mload(0x40)\n      dup1\n      swap2\n      sub\n      swap1\n      return\n        /* \"contracts/4_DebugTheGraph.sol\":184:228  mapping (address => uint256) public balances */\n    tag_4:\n      callvalue\n      dup1\n      iszero\n      tag_17\n      jumpi\n      0x00\n      dup1\n      revert\n    tag_17:\n      pop\n      tag_18\n      0x04\n      dup1\n      calldatasize\n      sub\n      dup2\n      add\n      swap1\n      tag_19\n      swap2\n      swap1\n      tag_20\n      jump\t// in\n    tag_19:\n      tag_21\n      jump\t// in\n    tag_18:\n      mload(0x40)\n      tag_22\n      swap2\n      swap1\n      tag_16\n      jump\t// in\n    tag_22:\n      mload(0x40)\n      dup1\n      swap2\n      sub\n      swap1\n      return\n        /* \"contracts/4_DebugTheGraph.sol\":306:479  function stake() payable public  {... */\n    tag_5:\n      tag_23\n      tag_24\n      jump\t// in\n    tag_23:\n      stop\n        /* \"contracts/4_DebugTheGraph.sol\":848:1101  function withdraw() public payable {... */\n    tag_6:\n      tag_25\n      tag_26\n      jump\t// in\n    tag_25:\n      stop\n        /* \"contracts/4_DebugTheGraph.sol\":235:299  function buy() public {... */\n    tag_7:\n      callvalue\n      dup1\n      iszero\n      tag_27\n      jumpi\n      0x00\n      dup1\n      revert\n    tag_27:\n      pop\n      tag_28\n      tag_29\n      jump\t// in\n    tag_28:\n      stop\n        /* \"contracts/4_DebugTheGraph.sol\":521:680  function getBalanceOfContract() public view returns (uint256) {... */\n    tag_14:\n        /* \"contracts/4_DebugTheGraph.sol\":574:581  uint256 */\n      0x00\n        /* \"contracts/4_DebugTheGraph.sol\":593:635  console.log(\"address(this)\",address(this)) */\n      tag_31\n      mload(0x40)\n      dup1\n      0x40\n      add\n      0x40\n      mstore\n      dup1\n      0x0d\n      dup2\n      mstore\n      0x20\n      add\n      0x6164647265737328746869732900000000000000000000000000000000000000\n      dup2\n      mstore\n      pop\n        /* \"contracts/4_DebugTheGraph.sol\":629:633  this */\n      address\n        /* \"contracts/4_DebugTheGraph.sol\":593:604  console.log */\n      tag_32\n        /* \"contracts/4_DebugTheGraph.sol\":593:635  console.log(\"address(this)\",address(this)) */\n      jump\t// in\n    tag_31:\n        /* \"contracts/4_DebugTheGraph.sol\":652:673  address(this).balance */\n      selfbalance\n        /* \"contracts/4_DebugTheGraph.sol\":645:673  return address(this).balance */\n      swap1\n      pop\n        /* \"contracts/4_DebugTheGraph.sol\":521:680  function getBalanceOfContract() public view returns (uint256) {... */\n      swap1\n      jump\t// out\n        /* \"contracts/4_DebugTheGraph.sol\":184:228  mapping (address => uint256) public balances */\n    tag_21:\n      mstore(0x20, 0x00)\n      dup1\n      0x00\n      mstore\n      keccak256(0x00, 0x40)\n      0x00\n      swap2\n      pop\n      swap1\n      pop\n      sload\n      dup2\n      jump\t// out\n        /* \"contracts/4_DebugTheGraph.sol\":306:479  function stake() payable public  {... */\n    tag_24:\n        /* \"contracts/4_DebugTheGraph.sol\":349:385  console.log(\"msg.sender\",msg.sender) */\n      tag_34\n      mload(0x40)\n      dup1\n      0x40\n      add\n      0x40\n      mstore\n      dup1\n      0x0a\n      dup2\n      mstore\n      0x20\n      add\n      0x6d73672e73656e64657200000000000000000000000000000000000000000000\n      dup2\n      mstore\n      pop\n        /* \"contracts/4_DebugTheGraph.sol\":374:384  msg.sender */\n      caller\n        /* \"contracts/4_DebugTheGraph.sol\":349:360  console.log */\n      tag_32\n        /* \"contracts/4_DebugTheGraph.sol\":349:385  console.log(\"msg.sender\",msg.sender) */\n      jump\t// in\n    tag_34:\n        /* \"contracts/4_DebugTheGraph.sol\":395:429  console.log(\"msg.value\",msg.value) */\n      tag_35\n      mload(0x40)\n      dup1\n      0x40\n      add\n      0x40\n      mstore\n      dup1\n      0x09\n      dup2\n      mstore\n      0x20\n      add\n      0x6d73672e76616c75650000000000000000000000000000000000000000000000\n      dup2\n      mstore\n      pop\n        /* \"contracts/4_DebugTheGraph.sol\":419:428  msg.value */\n      callvalue\n        /* \"contracts/4_DebugTheGraph.sol\":395:406  console.log */\n      tag_36\n        /* \"contracts/4_DebugTheGraph.sol\":395:429  console.log(\"msg.value\",msg.value) */\n      jump\t// in\n    tag_35:\n        /* \"contracts/4_DebugTheGraph.sol\":463:472  msg.value */\n      callvalue\n        /* \"contracts/4_DebugTheGraph.sol\":439:447  balances */\n      0x00\n        /* \"contracts/4_DebugTheGraph.sol\":439:459  balances[msg.sender] */\n      dup1\n        /* \"contracts/4_DebugTheGraph.sol\":448:458  msg.sender */\n      caller\n        /* \"contracts/4_DebugTheGraph.sol\":439:459  balances[msg.sender] */\n      0xffffffffffffffffffffffffffffffffffffffff\n      and\n      0xffffffffffffffffffffffffffffffffffffffff\n      and\n      dup2\n      mstore\n      0x20\n      add\n      swap1\n      dup2\n      mstore\n      0x20\n      add\n      0x00\n      keccak256\n      0x00\n        /* \"contracts/4_DebugTheGraph.sol\":439:472  balances[msg.sender] += msg.value */\n      dup3\n      dup3\n      sload\n      tag_37\n      swap2\n      swap1\n      tag_38\n      jump\t// in\n    tag_37:\n      swap3\n      pop\n      pop\n      dup2\n      swap1\n      sstore\n      pop\n        /* \"contracts/4_DebugTheGraph.sol\":306:479  function stake() payable public  {... */\n      jump\t// out\n        /* \"contracts/4_DebugTheGraph.sol\":848:1101  function withdraw() public payable {... */\n    tag_26:\n        /* \"contracts/4_DebugTheGraph.sol\":1063:1073  msg.sender */\n      caller\n        /* \"contracts/4_DebugTheGraph.sol\":1055:1083  payable(msg.sender).transfer */\n      0xffffffffffffffffffffffffffffffffffffffff\n      and\n        /* \"contracts/4_DebugTheGraph.sol\":1055:1094  payable(msg.sender).transfer(msg.value) */\n      0x08fc\n        /* \"contracts/4_DebugTheGraph.sol\":1084:1093  msg.value */\n      callvalue\n        /* \"contracts/4_DebugTheGraph.sol\":1055:1094  payable(msg.sender).transfer(msg.value) */\n      swap1\n      dup2\n      iszero\n      mul\n      swap1\n      mload(0x40)\n      0x00\n      mload(0x40)\n      dup1\n      dup4\n      sub\n      dup2\n      dup6\n      dup9\n      dup9\n      call\n      swap4\n      pop\n      pop\n      pop\n      pop\n      iszero\n      dup1\n      iszero\n      tag_41\n      jumpi\n      returndatasize\n      0x00\n      dup1\n      returndatacopy\n      revert(0x00, returndatasize)\n    tag_41:\n      pop\n        /* \"contracts/4_DebugTheGraph.sol\":848:1101  function withdraw() public payable {... */\n      jump\t// out\n        /* \"contracts/4_DebugTheGraph.sol\":235:299  function buy() public {... */\n    tag_29:\n        /* \"contracts/4_DebugTheGraph.sol\":272:292  ABC(block.timestamp) */\n      0xdde71ec107d36cacc35f19230110eaa83cd22c0640f1ded308eeb1d9b037c6c1\n        /* \"contracts/4_DebugTheGraph.sol\":276:291  block.timestamp */\n      timestamp\n        /* \"contracts/4_DebugTheGraph.sol\":272:292  ABC(block.timestamp) */\n      mload(0x40)\n      tag_43\n      swap2\n      swap1\n      tag_16\n      jump\t// in\n    tag_43:\n      mload(0x40)\n      dup1\n      swap2\n      sub\n      swap1\n      log1\n        /* \"contracts/4_DebugTheGraph.sol\":235:299  function buy() public {... */\n      jump\t// out\n        /* \"hardhat/console.sol\":6352:6488  function log(string memory p0, address p1) internal view {... */\n    tag_32:\n        /* \"hardhat/console.sol\":6413:6484  _sendLogPayload(abi.encodeWithSignature(\"log(string,address)\", p0, p1)) */\n      tag_45\n        /* \"hardhat/console.sol\":6476:6478  p0 */\n      dup3\n        /* \"hardhat/console.sol\":6480:6482  p1 */\n      dup3\n        /* \"hardhat/console.sol\":6429:6483  abi.encodeWithSignature(\"log(string,address)\", p0, p1) */\n      add(0x24, mload(0x40))\n      tag_46\n      swap3\n      swap2\n      swap1\n      tag_47\n      jump\t// in\n    tag_46:\n      mload(0x40)\n      0x20\n      dup2\n      dup4\n      sub\n      sub\n      dup2\n      mstore\n      swap1\n      0x40\n      mstore\n      and(not(0xffffffffffffffffffffffffffffffffffffffffffffffffffffffff), 0x319af33300000000000000000000000000000000000000000000000000000000)\n      0x20\n      dup3\n      add\n      dup1\n      mload\n      0xffffffffffffffffffffffffffffffffffffffffffffffffffffffff\n      dup4\n      dup2\n      dup4\n      and\n      or\n      dup4\n      mstore\n      pop\n      pop\n      pop\n      pop\n        /* \"hardhat/console.sol\":6413:6428  _sendLogPayload */\n      tag_48\n        /* \"hardhat/console.sol\":6413:6484  _sendLogPayload(abi.encodeWithSignature(\"log(string,address)\", p0, p1)) */\n      jump\t// in\n    tag_45:\n        /* \"hardhat/console.sol\":6352:6488  function log(string memory p0, address p1) internal view {... */\n      pop\n      pop\n      jump\t// out\n        /* \"hardhat/console.sol\":5936:6072  function log(string memory p0, uint256 p1) internal view {... */\n    tag_36:\n        /* \"hardhat/console.sol\":5997:6068  _sendLogPayload(abi.encodeWithSignature(\"log(string,uint256)\", p0, p1)) */\n      tag_50\n        /* \"hardhat/console.sol\":6060:6062  p0 */\n      dup3\n        /* \"hardhat/console.sol\":6064:6066  p1 */\n      dup3\n        /* \"hardhat/console.sol\":6013:6067  abi.encodeWithSignature(\"log(string,uint256)\", p0, p1) */\n      add(0x24, mload(0x40))\n      tag_51\n      swap3\n      swap2\n      swap1\n      tag_52\n      jump\t// in\n    tag_51:\n      mload(0x40)\n      0x20\n      dup2\n      dup4\n      sub\n      sub\n      dup2\n      mstore\n      swap1\n      0x40\n      mstore\n      and(not(0xffffffffffffffffffffffffffffffffffffffffffffffffffffffff), 0xb60e72cc00000000000000000000000000000000000000000000000000000000)\n      0x20\n      dup3\n      add\n      dup1\n      mload\n      0xffffffffffffffffffffffffffffffffffffffffffffffffffffffff\n      dup4\n      dup2\n      dup4\n      and\n      or\n      dup4\n      mstore\n      pop\n      pop\n      pop\n      pop\n        /* \"hardhat/console.sol\":5997:6012  _sendLogPayload */\n      tag_48\n        /* \"hardhat/console.sol\":5997:6068  _sendLogPayload(abi.encodeWithSignature(\"log(string,uint256)\", p0, p1)) */\n      jump\t// in\n    tag_50:\n        /* \"hardhat/console.sol\":5936:6072  function log(string memory p0, uint256 p1) internal view {... */\n      pop\n      pop\n      jump\t// out\n        /* \"hardhat/console.sol\":176:464  function _sendLogPayload(bytes memory payload) private view {... */\n    tag_48:\n        /* \"hardhat/console.sol\":240:261  uint256 payloadLength */\n      0x00\n        /* \"hardhat/console.sol\":264:271  payload */\n      dup2\n        /* \"hardhat/console.sol\":264:278  payload.length */\n      mload\n        /* \"hardhat/console.sol\":240:278  uint256 payloadLength = payload.length */\n      swap1\n      pop\n        /* \"hardhat/console.sol\":282:304  address consoleAddress */\n      0x00\n        /* \"hardhat/console.sol\":129:171  0x000000000000000000636F6e736F6c652e6c6f67 */\n      0x636f6e736f6c652e6c6f67\n        /* \"hardhat/console.sol\":282:322  address consoleAddress = CONSOLE_ADDRESS */\n      swap1\n      pop\n        /* \"hardhat/console.sol\":373:375  32 */\n      0x20\n        /* \"hardhat/console.sol\":364:371  payload */\n      dup4\n        /* \"hardhat/console.sol\":360:376  add(payload, 32) */\n      add\n        /* \"hardhat/console.sol\":455:456  0 */\n      0x00\n        /* \"hardhat/console.sol\":452:453  0 */\n      dup1\n        /* \"hardhat/console.sol\":437:450  payloadLength */\n      dup5\n        /* \"hardhat/console.sol\":423:435  payloadStart */\n      dup4\n        /* \"hardhat/console.sol\":407:421  consoleAddress */\n      dup6\n        /* \"hardhat/console.sol\":400:405  gas() */\n      gas\n        /* \"hardhat/console.sol\":389:457  staticcall(gas(), consoleAddress, payloadStart, payloadLength, 0, 0) */\n      staticcall\n        /* \"hardhat/console.sol\":335:461  {... */\n      pop\n      pop\n      pop\n      pop\n        /* \"hardhat/console.sol\":176:464  function _sendLogPayload(bytes memory payload) private view {... */\n      pop\n      jump\t// out\n        /* \"#utility.yul\":7:146   */\n    tag_55:\n        /* \"#utility.yul\":53:58   */\n      0x00\n        /* \"#utility.yul\":91:97   */\n      dup2\n        /* \"#utility.yul\":78:98   */\n      calldataload\n        /* \"#utility.yul\":69:98   */\n      swap1\n      pop\n        /* \"#utility.yul\":107:140   */\n      tag_57\n        /* \"#utility.yul\":134:139   */\n      dup2\n        /* \"#utility.yul\":107:140   */\n      tag_58\n      jump\t// in\n    tag_57:\n        /* \"#utility.yul\":7:146   */\n      swap3\n      swap2\n      pop\n      pop\n      jump\t// out\n        /* \"#utility.yul\":152:481   */\n    tag_20:\n        /* \"#utility.yul\":211:217   */\n      0x00\n        /* \"#utility.yul\":260:262   */\n      0x20\n        /* \"#utility.yul\":248:257   */\n      dup3\n        /* \"#utility.yul\":239:246   */\n      dup5\n        /* \"#utility.yul\":235:258   */\n      sub\n        /* \"#utility.yul\":231:263   */\n      slt\n        /* \"#utility.yul\":228:347   */\n      iszero\n      tag_60\n      jumpi\n        /* \"#utility.yul\":266:345   */\n      tag_61\n      tag_62\n      jump\t// in\n    tag_61:\n        /* \"#utility.yul\":228:347   */\n    tag_60:\n        /* \"#utility.yul\":386:387   */\n      0x00\n        /* \"#utility.yul\":411:464   */\n      tag_63\n        /* \"#utility.yul\":456:463   */\n      dup5\n        /* \"#utility.yul\":447:453   */\n      dup3\n        /* \"#utility.yul\":436:445   */\n      dup6\n        /* \"#utility.yul\":432:454   */\n      add\n        /* \"#utility.yul\":411:464   */\n      tag_55\n      jump\t// in\n    tag_63:\n        /* \"#utility.yul\":401:464   */\n      swap2\n      pop\n        /* \"#utility.yul\":357:474   */\n      pop\n        /* \"#utility.yul\":152:481   */\n      swap3\n      swap2\n      pop\n      pop\n      jump\t// out\n        /* \"#utility.yul\":487:605   */\n    tag_64:\n        /* \"#utility.yul\":574:598   */\n      tag_66\n        /* \"#utility.yul\":592:597   */\n      dup2\n        /* \"#utility.yul\":574:598   */\n      tag_67\n      jump\t// in\n    tag_66:\n        /* \"#utility.yul\":569:572   */\n      dup3\n        /* \"#utility.yul\":562:599   */\n      mstore\n        /* \"#utility.yul\":487:605   */\n      pop\n      pop\n      jump\t// out\n        /* \"#utility.yul\":611:975   */\n    tag_68:\n        /* \"#utility.yul\":699:702   */\n      0x00\n        /* \"#utility.yul\":727:766   */\n      tag_70\n        /* \"#utility.yul\":760:765   */\n      dup3\n        /* \"#utility.yul\":727:766   */\n      tag_71\n      jump\t// in\n    tag_70:\n        /* \"#utility.yul\":782:853   */\n      tag_72\n        /* \"#utility.yul\":846:852   */\n      dup2\n        /* \"#utility.yul\":841:844   */\n      dup6\n        /* \"#utility.yul\":782:853   */\n      tag_73\n      jump\t// in\n    tag_72:\n        /* \"#utility.yul\":775:853   */\n      swap4\n      pop\n        /* \"#utility.yul\":862:914   */\n      tag_74\n        /* \"#utility.yul\":907:913   */\n      dup2\n        /* \"#utility.yul\":902:905   */\n      dup6\n        /* \"#utility.yul\":895:899   */\n      0x20\n        /* \"#utility.yul\":888:893   */\n      dup7\n        /* \"#utility.yul\":884:900   */\n      add\n        /* \"#utility.yul\":862:914   */\n      tag_75\n      jump\t// in\n    tag_74:\n        /* \"#utility.yul\":939:968   */\n      tag_76\n        /* \"#utility.yul\":961:967   */\n      dup2\n        /* \"#utility.yul\":939:968   */\n      tag_77\n      jump\t// in\n    tag_76:\n        /* \"#utility.yul\":934:937   */\n      dup5\n        /* \"#utility.yul\":930:969   */\n      add\n        /* \"#utility.yul\":923:969   */\n      swap2\n      pop\n        /* \"#utility.yul\":703:975   */\n      pop\n        /* \"#utility.yul\":611:975   */\n      swap3\n      swap2\n      pop\n      pop\n      jump\t// out\n        /* \"#utility.yul\":981:1099   */\n    tag_78:\n        /* \"#utility.yul\":1068:1092   */\n      tag_80\n        /* \"#utility.yul\":1086:1091   */\n      dup2\n        /* \"#utility.yul\":1068:1092   */\n      tag_81\n      jump\t// in\n    tag_80:\n        /* \"#utility.yul\":1063:1066   */\n      dup3\n        /* \"#utility.yul\":1056:1093   */\n      mstore\n        /* \"#utility.yul\":981:1099   */\n      pop\n      pop\n      jump\t// out\n        /* \"#utility.yul\":1105:1528   */\n    tag_47:\n        /* \"#utility.yul\":1246:1250   */\n      0x00\n        /* \"#utility.yul\":1284:1286   */\n      0x40\n        /* \"#utility.yul\":1273:1282   */\n      dup3\n        /* \"#utility.yul\":1269:1287   */\n      add\n        /* \"#utility.yul\":1261:1287   */\n      swap1\n      pop\n        /* \"#utility.yul\":1333:1342   */\n      dup2\n        /* \"#utility.yul\":1327:1331   */\n      dup2\n        /* \"#utility.yul\":1323:1343   */\n      sub\n        /* \"#utility.yul\":1319:1320   */\n      0x00\n        /* \"#utility.yul\":1308:1317   */\n      dup4\n        /* \"#utility.yul\":1304:1321   */\n      add\n        /* \"#utility.yul\":1297:1344   */\n      mstore\n        /* \"#utility.yul\":1361:1439   */\n      tag_83\n        /* \"#utility.yul\":1434:1438   */\n      dup2\n        /* \"#utility.yul\":1425:1431   */\n      dup6\n        /* \"#utility.yul\":1361:1439   */\n      tag_68\n      jump\t// in\n    tag_83:\n        /* \"#utility.yul\":1353:1439   */\n      swap1\n      pop\n        /* \"#utility.yul\":1449:1521   */\n      tag_84\n        /* \"#utility.yul\":1517:1519   */\n      0x20\n        /* \"#utility.yul\":1506:1515   */\n      dup4\n        /* \"#utility.yul\":1502:1520   */\n      add\n        /* \"#utility.yul\":1493:1499   */\n      dup5\n        /* \"#utility.yul\":1449:1521   */\n      tag_64\n      jump\t// in\n    tag_84:\n        /* \"#utility.yul\":1105:1528   */\n      swap4\n      swap3\n      pop\n      pop\n      pop\n      jump\t// out\n        /* \"#utility.yul\":1534:1957   */\n    tag_52:\n        /* \"#utility.yul\":1675:1679   */\n      0x00\n        /* \"#utility.yul\":1713:1715   */\n      0x40\n        /* \"#utility.yul\":1702:1711   */\n      dup3\n        /* \"#utility.yul\":1698:1716   */\n      add\n        /* \"#utility.yul\":1690:1716   */\n      swap1\n      pop\n        /* \"#utility.yul\":1762:1771   */\n      dup2\n        /* \"#utility.yul\":1756:1760   */\n      dup2\n        /* \"#utility.yul\":1752:1772   */\n      sub\n        /* \"#utility.yul\":1748:1749   */\n      0x00\n        /* \"#utility.yul\":1737:1746   */\n      dup4\n        /* \"#utility.yul\":1733:1750   */\n      add\n        /* \"#utility.yul\":1726:1773   */\n      mstore\n        /* \"#utility.yul\":1790:1868   */\n      tag_86\n        /* \"#utility.yul\":1863:1867   */\n      dup2\n        /* \"#utility.yul\":1854:1860   */\n      dup6\n        /* \"#utility.yul\":1790:1868   */\n      tag_68\n      jump\t// in\n    tag_86:\n        /* \"#utility.yul\":1782:1868   */\n      swap1\n      pop\n        /* \"#utility.yul\":1878:1950   */\n      tag_87\n        /* \"#utility.yul\":1946:1948   */\n      0x20\n        /* \"#utility.yul\":1935:1944   */\n      dup4\n        /* \"#utility.yul\":1931:1949   */\n      add\n        /* \"#utility.yul\":1922:1928   */\n      dup5\n        /* \"#utility.yul\":1878:1950   */\n      tag_78\n      jump\t// in\n    tag_87:\n        /* \"#utility.yul\":1534:1957   */\n      swap4\n      swap3\n      pop\n      pop\n      pop\n      jump\t// out\n        /* \"#utility.yul\":1963:2185   */\n    tag_16:\n        /* \"#utility.yul\":2056:2060   */\n      0x00\n        /* \"#utility.yul\":2094:2096   */\n      0x20\n        /* \"#utility.yul\":2083:2092   */\n      dup3\n        /* \"#utility.yul\":2079:2097   */\n      add\n        /* \"#utility.yul\":2071:2097   */\n      swap1\n      pop\n        /* \"#utility.yul\":2107:2178   */\n      tag_89\n        /* \"#utility.yul\":2175:2176   */\n      0x00\n        /* \"#utility.yul\":2164:2173   */\n      dup4\n        /* \"#utility.yul\":2160:2177   */\n      add\n        /* \"#utility.yul\":2151:2157   */\n      dup5\n        /* \"#utility.yul\":2107:2178   */\n      tag_78\n      jump\t// in\n    tag_89:\n        /* \"#utility.yul\":1963:2185   */\n      swap3\n      swap2\n      pop\n      pop\n      jump\t// out\n        /* \"#utility.yul\":2272:2371   */\n    tag_71:\n        /* \"#utility.yul\":2324:2330   */\n      0x00\n        /* \"#utility.yul\":2358:2363   */\n      dup2\n        /* \"#utility.yul\":2352:2364   */\n      mload\n        /* \"#utility.yul\":2342:2364   */\n      swap1\n      pop\n        /* \"#utility.yul\":2272:2371   */\n      swap2\n      swap1\n      pop\n      jump\t// out\n        /* \"#utility.yul\":2377:2546   */\n    tag_73:\n        /* \"#utility.yul\":2461:2472   */\n      0x00\n        /* \"#utility.yul\":2495:2501   */\n      dup3\n        /* \"#utility.yul\":2490:2493   */\n      dup3\n        /* \"#utility.yul\":2483:2502   */\n      mstore\n        /* \"#utility.yul\":2535:2539   */\n      0x20\n        /* \"#utility.yul\":2530:2533   */\n      dup3\n        /* \"#utility.yul\":2526:2540   */\n      add\n        /* \"#utility.yul\":2511:2540   */\n      swap1\n      pop\n        /* \"#utility.yul\":2377:2546   */\n      swap3\n      swap2\n      pop\n      pop\n      jump\t// out\n        /* \"#utility.yul\":2552:2857   */\n    tag_38:\n        /* \"#utility.yul\":2592:2595   */\n      0x00\n        /* \"#utility.yul\":2611:2631   */\n      tag_95\n        /* \"#utility.yul\":2629:2630   */\n      dup3\n        /* \"#utility.yul\":2611:2631   */\n      tag_81\n      jump\t// in\n    tag_95:\n        /* \"#utility.yul\":2606:2631   */\n      swap2\n      pop\n        /* \"#utility.yul\":2645:2665   */\n      tag_96\n        /* \"#utility.yul\":2663:2664   */\n      dup4\n        /* \"#utility.yul\":2645:2665   */\n      tag_81\n      jump\t// in\n    tag_96:\n        /* \"#utility.yul\":2640:2665   */\n      swap3\n      pop\n        /* \"#utility.yul\":2799:2800   */\n      dup3\n        /* \"#utility.yul\":2731:2797   */\n      0xffffffffffffffffffffffffffffffffffffffffffffffffffffffffffffffff\n        /* \"#utility.yul\":2727:2801   */\n      sub\n        /* \"#utility.yul\":2724:2725   */\n      dup3\n        /* \"#utility.yul\":2721:2802   */\n      gt\n        /* \"#utility.yul\":2718:2825   */\n      iszero\n      tag_97\n      jumpi\n        /* \"#utility.yul\":2805:2823   */\n      tag_98\n      tag_99\n      jump\t// in\n    tag_98:\n        /* \"#utility.yul\":2718:2825   */\n    tag_97:\n        /* \"#utility.yul\":2849:2850   */\n      dup3\n        /* \"#utility.yul\":2846:2847   */\n      dup3\n        /* \"#utility.yul\":2842:2851   */\n      add\n        /* \"#utility.yul\":2835:2851   */\n      swap1\n      pop\n        /* \"#utility.yul\":2552:2857   */\n      swap3\n      swap2\n      pop\n      pop\n      jump\t// out\n        /* \"#utility.yul\":2863:2959   */\n    tag_67:\n        /* \"#utility.yul\":2900:2907   */\n      0x00\n        /* \"#utility.yul\":2929:2953   */\n      tag_101\n        /* \"#utility.yul\":2947:2952   */\n      dup3\n        /* \"#utility.yul\":2929:2953   */\n      tag_102\n      jump\t// in\n    tag_101:\n        /* \"#utility.yul\":2918:2953   */\n      swap1\n      pop\n        /* \"#utility.yul\":2863:2959   */\n      swap2\n      swap1\n      pop\n      jump\t// out\n        /* \"#utility.yul\":2965:3091   */\n    tag_102:\n        /* \"#utility.yul\":3002:3009   */\n      0x00\n        /* \"#utility.yul\":3042:3084   */\n      0xffffffffffffffffffffffffffffffffffffffff\n        /* \"#utility.yul\":3035:3040   */\n      dup3\n        /* \"#utility.yul\":3031:3085   */\n      and\n        /* \"#utility.yul\":3020:3085   */\n      swap1\n      pop\n        /* \"#utility.yul\":2965:3091   */\n      swap2\n      swap1\n      pop\n      jump\t// out\n        /* \"#utility.yul\":3097:3174   */\n    tag_81:\n        /* \"#utility.yul\":3134:3141   */\n      0x00\n        /* \"#utility.yul\":3163:3168   */\n      dup2\n        /* \"#utility.yul\":3152:3168   */\n      swap1\n      pop\n        /* \"#utility.yul\":3097:3174   */\n      swap2\n      swap1\n      pop\n      jump\t// out\n        /* \"#utility.yul\":3180:3487   */\n    tag_75:\n        /* \"#utility.yul\":3248:3249   */\n      0x00\n        /* \"#utility.yul\":3258:3371   */\n    tag_106:\n        /* \"#utility.yul\":3272:3278   */\n      dup4\n        /* \"#utility.yul\":3269:3270   */\n      dup2\n        /* \"#utility.yul\":3266:3279   */\n      lt\n        /* \"#utility.yul\":3258:3371   */\n      iszero\n      tag_108\n      jumpi\n        /* \"#utility.yul\":3357:3358   */\n      dup1\n        /* \"#utility.yul\":3352:3355   */\n      dup3\n        /* \"#utility.yul\":3348:3359   */\n      add\n        /* \"#utility.yul\":3342:3360   */\n      mload\n        /* \"#utility.yul\":3338:3339   */\n      dup2\n        /* \"#utility.yul\":3333:3336   */\n      dup5\n        /* \"#utility.yul\":3329:3340   */\n      add\n        /* \"#utility.yul\":3322:3361   */\n      mstore\n        /* \"#utility.yul\":3294:3296   */\n      0x20\n        /* \"#utility.yul\":3291:3292   */\n      dup2\n        /* \"#utility.yul\":3287:3297   */\n      add\n        /* \"#utility.yul\":3282:3297   */\n      swap1\n      pop\n        /* \"#utility.yul\":3258:3371   */\n      jump(tag_106)\n    tag_108:\n        /* \"#utility.yul\":3389:3395   */\n      dup4\n        /* \"#utility.yul\":3386:3387   */\n      dup2\n        /* \"#utility.yul\":3383:3396   */\n      gt\n        /* \"#utility.yul\":3380:3481   */\n      iszero\n      tag_109\n      jumpi\n        /* \"#utility.yul\":3469:3470   */\n      0x00\n        /* \"#utility.yul\":3460:3466   */\n      dup5\n        /* \"#utility.yul\":3455:3458   */\n      dup5\n        /* \"#utility.yul\":3451:3467   */\n      add\n        /* \"#utility.yul\":3444:3471   */\n      mstore\n        /* \"#utility.yul\":3380:3481   */\n    tag_109:\n        /* \"#utility.yul\":3229:3487   */\n      pop\n        /* \"#utility.yul\":3180:3487   */\n      pop\n      pop\n      pop\n      jump\t// out\n        /* \"#utility.yul\":3493:3673   */\n    tag_99:\n        /* \"#utility.yul\":3541:3618   */\n      0x4e487b7100000000000000000000000000000000000000000000000000000000\n        /* \"#utility.yul\":3538:3539   */\n      0x00\n        /* \"#utility.yul\":3531:3619   */\n      mstore\n        /* \"#utility.yul\":3638:3642   */\n      0x11\n        /* \"#utility.yul\":3635:3636   */\n      0x04\n        /* \"#utility.yul\":3628:3643   */\n      mstore\n        /* \"#utility.yul\":3662:3666   */\n      0x24\n        /* \"#utility.yul\":3659:3660   */\n      0x00\n        /* \"#utility.yul\":3652:3667   */\n      revert\n        /* \"#utility.yul\":3802:3919   */\n    tag_62:\n        /* \"#utility.yul\":3911:3912   */\n      0x00\n        /* \"#utility.yul\":3908:3909   */\n      dup1\n        /* \"#utility.yul\":3901:3913   */\n      revert\n        /* \"#utility.yul\":3925:4027   */\n    tag_77:\n        /* \"#utility.yul\":3966:3972   */\n      0x00\n        /* \"#utility.yul\":4017:4019   */\n      0x1f\n        /* \"#utility.yul\":4013:4020   */\n      not\n        /* \"#utility.yul\":4008:4010   */\n      0x1f\n        /* \"#utility.yul\":4001:4006   */\n      dup4\n        /* \"#utility.yul\":3997:4011   */\n      add\n        /* \"#utility.yul\":3993:4021   */\n      and\n        /* \"#utility.yul\":3983:4021   */\n      swap1\n      pop\n        /* \"#utility.yul\":3925:4027   */\n      swap2\n      swap1\n      pop\n      jump\t// out\n        /* \"#utility.yul\":4033:4155   */\n    tag_58:\n        /* \"#utility.yul\":4106:4130   */\n      tag_116\n        /* \"#utility.yul\":4124:4129   */\n      dup2\n        /* \"#utility.yul\":4106:4130   */\n      tag_67\n      jump\t// in\n    tag_116:\n        /* \"#utility.yul\":4099:4104   */\n      dup2\n        /* \"#utility.yul\":4096:4131   */\n      eq\n        /* \"#utility.yul\":4086:4149   */\n      tag_117\n      jumpi\n        /* \"#utility.yul\":4145:4146   */\n      0x00\n        /* \"#utility.yul\":4142:4143   */\n      dup1\n        /* \"#utility.yul\":4135:4147   */\n      revert\n        /* \"#utility.yul\":4086:4149   */\n    tag_117:\n        /* \"#utility.yul\":4033:4155   */\n      pop\n      jump\t// out\n\n    auxdata: 0xa264697066735822122016d599cd01ed0454da146c47936a0ba15d2147f10797efe0ac2c805f91ed66e464736f6c63430008070033\n}\n",
				"bytecode": {
					"linkReferences": {},
					"object": "608060405234801561001057600080fd5b50610688806100206000396000f3fe60806040526004361061004e5760003560e01c8063229688851461005757806327e235e3146100825780633a4b66f1146100bf5780633ccfd60b146100c9578063a6f2ae3a146100d357610055565b3661005557005b005b34801561006357600080fd5b5061006c6100ea565b60405161007991906104fa565b60405180910390f35b34801561008e57600080fd5b506100a960048036038101906100a49190610416565b610131565b6040516100b691906104fa565b60405180910390f35b6100c7610149565b005b6100d161021e565b005b3480156100df57600080fd5b506100e8610267565b005b600061012b6040518060400160405280600d81526020017f6164647265737328746869732900000000000000000000000000000000000000815250306102a0565b47905090565b60006020528060005260406000206000915090505481565b6101886040518060400160405280600a81526020017f6d73672e73656e64657200000000000000000000000000000000000000000000815250336102a0565b6101c76040518060400160405280600981526020017f6d73672e76616c756500000000000000000000000000000000000000000000008152503461033c565b346000803373ffffffffffffffffffffffffffffffffffffffff1673ffffffffffffffffffffffffffffffffffffffff16815260200190815260200160002060008282546102159190610531565b92505081905550565b3373ffffffffffffffffffffffffffffffffffffffff166108fc349081150290604051600060405180830381858888f19350505050158015610264573d6000803e3d6000fd5b50565b7fdde71ec107d36cacc35f19230110eaa83cd22c0640f1ded308eeb1d9b037c6c14260405161029691906104fa565b60405180910390a1565b61033882826040516024016102b692919061049a565b6040516020818303038152906040527f319af333000000000000000000000000000000000000000000000000000000007bffffffffffffffffffffffffffffffffffffffffffffffffffffffff19166020820180517bffffffffffffffffffffffffffffffffffffffffffffffffffffffff83818316178352505050506103d8565b5050565b6103d482826040516024016103529291906104ca565b6040516020818303038152906040527fb60e72cc000000000000000000000000000000000000000000000000000000007bffffffffffffffffffffffffffffffffffffffffffffffffffffffff19166020820180517bffffffffffffffffffffffffffffffffffffffffffffffffffffffff83818316178352505050506103d8565b5050565b60008151905060006a636f6e736f6c652e6c6f679050602083016000808483855afa5050505050565b6000813590506104108161063b565b92915050565b60006020828403121561042c5761042b610625565b5b600061043a84828501610401565b91505092915050565b61044c81610587565b82525050565b600061045d82610515565b6104678185610520565b93506104778185602086016105c3565b6104808161062a565b840191505092915050565b610494816105b9565b82525050565b600060408201905081810360008301526104b48185610452565b90506104c36020830184610443565b9392505050565b600060408201905081810360008301526104e48185610452565b90506104f3602083018461048b565b9392505050565b600060208201905061050f600083018461048b565b92915050565b600081519050919050565b600082825260208201905092915050565b600061053c826105b9565b9150610547836105b9565b9250827fffffffffffffffffffffffffffffffffffffffffffffffffffffffffffffffff0382111561057c5761057b6105f6565b5b828201905092915050565b600061059282610599565b9050919050565b600073ffffffffffffffffffffffffffffffffffffffff82169050919050565b6000819050919050565b60005b838110156105e15780820151818401526020810190506105c6565b838111156105f0576000848401525b50505050565b7f4e487b7100000000000000000000000000000000000000000000000000000000600052601160045260246000fd5b600080fd5b6000601f19601f8301169050919050565b61064481610587565b811461064f57600080fd5b5056fea264697066735822122016d599cd01ed0454da146c47936a0ba15d2147f10797efe0ac2c805f91ed66e464736f6c63430008070033",
					"opcodes": "PUSH1 0x80 PUSH1 0x40 MSTORE CALLVALUE DUP1 ISZERO PUSH2 0x10 JUMPI PUSH1 0x0 DUP1 REVERT JUMPDEST POP PUSH2 0x688 DUP1 PUSH2 0x20 PUSH1 0x0 CODECOPY PUSH1 0x0 RETURN INVALID PUSH1 0x80 PUSH1 0x40 MSTORE PUSH1 0x4 CALLDATASIZE LT PUSH2 0x4E JUMPI PUSH1 0x0 CALLDATALOAD PUSH1 0xE0 SHR DUP1 PUSH4 0x22968885 EQ PUSH2 0x57 JUMPI DUP1 PUSH4 0x27E235E3 EQ PUSH2 0x82 JUMPI DUP1 PUSH4 0x3A4B66F1 EQ PUSH2 0xBF JUMPI DUP1 PUSH4 0x3CCFD60B EQ PUSH2 0xC9 JUMPI DUP1 PUSH4 0xA6F2AE3A EQ PUSH2 0xD3 JUMPI PUSH2 0x55 JUMP JUMPDEST CALLDATASIZE PUSH2 0x55 JUMPI STOP JUMPDEST STOP JUMPDEST CALLVALUE DUP1 ISZERO PUSH2 0x63 JUMPI PUSH1 0x0 DUP1 REVERT JUMPDEST POP PUSH2 0x6C PUSH2 0xEA JUMP JUMPDEST PUSH1 0x40 MLOAD PUSH2 0x79 SWAP2 SWAP1 PUSH2 0x4FA JUMP JUMPDEST PUSH1 0x40 MLOAD DUP1 SWAP2 SUB SWAP1 RETURN JUMPDEST CALLVALUE DUP1 ISZERO PUSH2 0x8E JUMPI PUSH1 0x0 DUP1 REVERT JUMPDEST POP PUSH2 0xA9 PUSH1 0x4 DUP1 CALLDATASIZE SUB DUP2 ADD SWAP1 PUSH2 0xA4 SWAP2 SWAP1 PUSH2 0x416 JUMP JUMPDEST PUSH2 0x131 JUMP JUMPDEST PUSH1 0x40 MLOAD PUSH2 0xB6 SWAP2 SWAP1 PUSH2 0x4FA JUMP JUMPDEST PUSH1 0x40 MLOAD DUP1 SWAP2 SUB SWAP1 RETURN JUMPDEST PUSH2 0xC7 PUSH2 0x149 JUMP JUMPDEST STOP JUMPDEST PUSH2 0xD1 PUSH2 0x21E JUMP JUMPDEST STOP JUMPDEST CALLVALUE DUP1 ISZERO PUSH2 0xDF JUMPI PUSH1 0x0 DUP1 REVERT JUMPDEST POP PUSH2 0xE8 PUSH2 0x267 JUMP JUMPDEST STOP JUMPDEST PUSH1 0x0 PUSH2 0x12B PUSH1 0x40 MLOAD DUP1 PUSH1 0x40 ADD PUSH1 0x40 MSTORE DUP1 PUSH1 0xD DUP2 MSTORE PUSH1 0x20 ADD PUSH32 0x6164647265737328746869732900000000000000000000000000000000000000 DUP2 MSTORE POP ADDRESS PUSH2 0x2A0 JUMP JUMPDEST SELFBALANCE SWAP1 POP SWAP1 JUMP JUMPDEST PUSH1 0x0 PUSH1 0x20 MSTORE DUP1 PUSH1 0x0 MSTORE PUSH1 0x40 PUSH1 0x0 KECCAK256 PUSH1 0x0 SWAP2 POP SWAP1 POP SLOAD DUP2 JUMP JUMPDEST PUSH2 0x188 PUSH1 0x40 MLOAD DUP1 PUSH1 0x40 ADD PUSH1 0x40 MSTORE DUP1 PUSH1 0xA DUP2 MSTORE PUSH1 0x20 ADD PUSH32 0x6D73672E73656E64657200000000000000000000000000000000000000000000 DUP2 MSTORE POP CALLER PUSH2 0x2A0 JUMP JUMPDEST PUSH2 0x1C7 PUSH1 0x40 MLOAD DUP1 PUSH1 0x40 ADD PUSH1 0x40 MSTORE DUP1 PUSH1 0x9 DUP2 MSTORE PUSH1 0x20 ADD PUSH32 0x6D73672E76616C75650000000000000000000000000000000000000000000000 DUP2 MSTORE POP CALLVALUE PUSH2 0x33C JUMP JUMPDEST CALLVALUE PUSH1 0x0 DUP1 CALLER PUSH20 0xFFFFFFFFFFFFFFFFFFFFFFFFFFFFFFFFFFFFFFFF AND PUSH20 0xFFFFFFFFFFFFFFFFFFFFFFFFFFFFFFFFFFFFFFFF AND DUP2 MSTORE PUSH1 0x20 ADD SWAP1 DUP2 MSTORE PUSH1 0x20 ADD PUSH1 0x0 KECCAK256 PUSH1 0x0 DUP3 DUP3 SLOAD PUSH2 0x215 SWAP2 SWAP1 PUSH2 0x531 JUMP JUMPDEST SWAP3 POP POP DUP2 SWAP1 SSTORE POP JUMP JUMPDEST CALLER PUSH20 0xFFFFFFFFFFFFFFFFFFFFFFFFFFFFFFFFFFFFFFFF AND PUSH2 0x8FC CALLVALUE SWAP1 DUP2 ISZERO MUL SWAP1 PUSH1 0x40 MLOAD PUSH1 0x0 PUSH1 0x40 MLOAD DUP1 DUP4 SUB DUP2 DUP6 DUP9 DUP9 CALL SWAP4 POP POP POP POP ISZERO DUP1 ISZERO PUSH2 0x264 JUMPI RETURNDATASIZE PUSH1 0x0 DUP1 RETURNDATACOPY RETURNDATASIZE PUSH1 0x0 REVERT JUMPDEST POP JUMP JUMPDEST PUSH32 0xDDE71EC107D36CACC35F19230110EAA83CD22C0640F1DED308EEB1D9B037C6C1 TIMESTAMP PUSH1 0x40 MLOAD PUSH2 0x296 SWAP2 SWAP1 PUSH2 0x4FA JUMP JUMPDEST PUSH1 0x40 MLOAD DUP1 SWAP2 SUB SWAP1 LOG1 JUMP JUMPDEST PUSH2 0x338 DUP3 DUP3 PUSH1 0x40 MLOAD PUSH1 0x24 ADD PUSH2 0x2B6 SWAP3 SWAP2 SWAP1 PUSH2 0x49A JUMP JUMPDEST PUSH1 0x40 MLOAD PUSH1 0x20 DUP2 DUP4 SUB SUB DUP2 MSTORE SWAP1 PUSH1 0x40 MSTORE PUSH32 0x319AF33300000000000000000000000000000000000000000000000000000000 PUSH28 0xFFFFFFFFFFFFFFFFFFFFFFFFFFFFFFFFFFFFFFFFFFFFFFFFFFFFFFFF NOT AND PUSH1 0x20 DUP3 ADD DUP1 MLOAD PUSH28 0xFFFFFFFFFFFFFFFFFFFFFFFFFFFFFFFFFFFFFFFFFFFFFFFFFFFFFFFF DUP4 DUP2 DUP4 AND OR DUP4 MSTORE POP POP POP POP PUSH2 0x3D8 JUMP JUMPDEST POP POP JUMP JUMPDEST PUSH2 0x3D4 DUP3 DUP3 PUSH1 0x40 MLOAD PUSH1 0x24 ADD PUSH2 0x352 SWAP3 SWAP2 SWAP1 PUSH2 0x4CA JUMP JUMPDEST PUSH1 0x40 MLOAD PUSH1 0x20 DUP2 DUP4 SUB SUB DUP2 MSTORE SWAP1 PUSH1 0x40 MSTORE PUSH32 0xB60E72CC00000000000000000000000000000000000000000000000000000000 PUSH28 0xFFFFFFFFFFFFFFFFFFFFFFFFFFFFFFFFFFFFFFFFFFFFFFFFFFFFFFFF NOT AND PUSH1 0x20 DUP3 ADD DUP1 MLOAD PUSH28 0xFFFFFFFFFFFFFFFFFFFFFFFFFFFFFFFFFFFFFFFFFFFFFFFFFFFFFFFF DUP4 DUP2 DUP4 AND OR DUP4 MSTORE POP POP POP POP PUSH2 0x3D8 JUMP JUMPDEST POP POP JUMP JUMPDEST PUSH1 0x0 DUP2 MLOAD SWAP1 POP PUSH1 0x0 PUSH11 0x636F6E736F6C652E6C6F67 SWAP1 POP PUSH1 0x20 DUP4 ADD PUSH1 0x0 DUP1 DUP5 DUP4 DUP6 GAS STATICCALL POP POP POP POP POP JUMP JUMPDEST PUSH1 0x0 DUP2 CALLDATALOAD SWAP1 POP PUSH2 0x410 DUP2 PUSH2 0x63B JUMP JUMPDEST SWAP3 SWAP2 POP POP JUMP JUMPDEST PUSH1 0x0 PUSH1 0x20 DUP3 DUP5 SUB SLT ISZERO PUSH2 0x42C JUMPI PUSH2 0x42B PUSH2 0x625 JUMP JUMPDEST JUMPDEST PUSH1 0x0 PUSH2 0x43A DUP5 DUP3 DUP6 ADD PUSH2 0x401 JUMP JUMPDEST SWAP2 POP POP SWAP3 SWAP2 POP POP JUMP JUMPDEST PUSH2 0x44C DUP2 PUSH2 0x587 JUMP JUMPDEST DUP3 MSTORE POP POP JUMP JUMPDEST PUSH1 0x0 PUSH2 0x45D DUP3 PUSH2 0x515 JUMP JUMPDEST PUSH2 0x467 DUP2 DUP6 PUSH2 0x520 JUMP JUMPDEST SWAP4 POP PUSH2 0x477 DUP2 DUP6 PUSH1 0x20 DUP7 ADD PUSH2 0x5C3 JUMP JUMPDEST PUSH2 0x480 DUP2 PUSH2 0x62A JUMP JUMPDEST DUP5 ADD SWAP2 POP POP SWAP3 SWAP2 POP POP JUMP JUMPDEST PUSH2 0x494 DUP2 PUSH2 0x5B9 JUMP JUMPDEST DUP3 MSTORE POP POP JUMP JUMPDEST PUSH1 0x0 PUSH1 0x40 DUP3 ADD SWAP1 POP DUP2 DUP2 SUB PUSH1 0x0 DUP4 ADD MSTORE PUSH2 0x4B4 DUP2 DUP6 PUSH2 0x452 JUMP JUMPDEST SWAP1 POP PUSH2 0x4C3 PUSH1 0x20 DUP4 ADD DUP5 PUSH2 0x443 JUMP JUMPDEST SWAP4 SWAP3 POP POP POP JUMP JUMPDEST PUSH1 0x0 PUSH1 0x40 DUP3 ADD SWAP1 POP DUP2 DUP2 SUB PUSH1 0x0 DUP4 ADD MSTORE PUSH2 0x4E4 DUP2 DUP6 PUSH2 0x452 JUMP JUMPDEST SWAP1 POP PUSH2 0x4F3 PUSH1 0x20 DUP4 ADD DUP5 PUSH2 0x48B JUMP JUMPDEST SWAP4 SWAP3 POP POP POP JUMP JUMPDEST PUSH1 0x0 PUSH1 0x20 DUP3 ADD SWAP1 POP PUSH2 0x50F PUSH1 0x0 DUP4 ADD DUP5 PUSH2 0x48B JUMP JUMPDEST SWAP3 SWAP2 POP POP JUMP JUMPDEST PUSH1 0x0 DUP2 MLOAD SWAP1 POP SWAP2 SWAP1 POP JUMP JUMPDEST PUSH1 0x0 DUP3 DUP3 MSTORE PUSH1 0x20 DUP3 ADD SWAP1 POP SWAP3 SWAP2 POP POP JUMP JUMPDEST PUSH1 0x0 PUSH2 0x53C DUP3 PUSH2 0x5B9 JUMP JUMPDEST SWAP2 POP PUSH2 0x547 DUP4 PUSH2 0x5B9 JUMP JUMPDEST SWAP3 POP DUP3 PUSH32 0xFFFFFFFFFFFFFFFFFFFFFFFFFFFFFFFFFFFFFFFFFFFFFFFFFFFFFFFFFFFFFFFF SUB DUP3 GT ISZERO PUSH2 0x57C JUMPI PUSH2 0x57B PUSH2 0x5F6 JUMP JUMPDEST JUMPDEST DUP3 DUP3 ADD SWAP1 POP SWAP3 SWAP2 POP POP JUMP JUMPDEST PUSH1 0x0 PUSH2 0x592 DUP3 PUSH2 0x599 JUMP JUMPDEST SWAP1 POP SWAP2 SWAP1 POP JUMP JUMPDEST PUSH1 0x0 PUSH20 0xFFFFFFFFFFFFFFFFFFFFFFFFFFFFFFFFFFFFFFFF DUP3 AND SWAP1 POP SWAP2 SWAP1 POP JUMP JUMPDEST PUSH1 0x0 DUP2 SWAP1 POP SWAP2 SWAP1 POP JUMP JUMPDEST PUSH1 0x0 JUMPDEST DUP4 DUP2 LT ISZERO PUSH2 0x5E1 JUMPI DUP1 DUP3 ADD MLOAD DUP2 DUP5 ADD MSTORE PUSH1 0x20 DUP2 ADD SWAP1 POP PUSH2 0x5C6 JUMP JUMPDEST DUP4 DUP2 GT ISZERO PUSH2 0x5F0 JUMPI PUSH1 0x0 DUP5 DUP5 ADD MSTORE JUMPDEST POP POP POP POP JUMP JUMPDEST PUSH32 0x4E487B7100000000000000000000000000000000000000000000000000000000 PUSH1 0x0 MSTORE PUSH1 0x11 PUSH1 0x4 MSTORE PUSH1 0x24 PUSH1 0x0 REVERT JUMPDEST PUSH1 0x0 DUP1 REVERT JUMPDEST PUSH1 0x0 PUSH1 0x1F NOT PUSH1 0x1F DUP4 ADD AND SWAP1 POP SWAP2 SWAP1 POP JUMP JUMPDEST PUSH2 0x644 DUP2 PUSH2 0x587 JUMP JUMPDEST DUP2 EQ PUSH2 0x64F JUMPI PUSH1 0x0 DUP1 REVERT JUMPDEST POP JUMP INVALID LOG2 PUSH5 0x6970667358 0x22 SLT KECCAK256 AND 0xD5 SWAP10 0xCD ADD 0xED DIV SLOAD 0xDA EQ PUSH13 0x47936A0BA15D2147F10797EFE0 0xAC 0x2C DUP1 0x5F SWAP2 0xED PUSH7 0xE464736F6C6343 STOP ADDMOD SMOD STOP CALLER "
				},
				"gasEstimates": {
					"creation": {
						"codeDepositCost": "334400",
						"executionCost": "374",
						"totalCost": "334774"
					},
					"external": {
						"": "173",
						"balances(address)": "2814",
						"buy()": "1400",
						"getBalanceOfContract()": "infinite",
						"stake()": "infinite",
						"withdraw()": "infinite"
					}
				},
				"methodIdentifiers": {
					"balances(address)": "27e235e3",
					"buy()": "a6f2ae3a",
					"getBalanceOfContract()": "22968885",
					"stake()": "3a4b66f1",
					"withdraw()": "3ccfd60b"
				}
			},
			"storageLayout": {
				"storage": [
					{
						"astId": 10,
						"contract": "contracts/4_DebugTheGraph.sol:DeubgTheGraph",
						"label": "balances",
						"offset": 0,
						"slot": "0",
						"type": "t_mapping(t_address,t_uint256)"
					}
				],
				"types": {
					"t_address": {
						"encoding": "inplace",
						"label": "address",
						"numberOfBytes": "20"
					},
					"t_mapping(t_address,t_uint256)": {
						"encoding": "mapping",
						"key": "t_address",
						"label": "mapping(address => uint256)",
						"numberOfBytes": "32",
						"value": "t_uint256"
					},
					"t_uint256": {
						"encoding": "inplace",
						"label": "uint256",
						"numberOfBytes": "32"
					}
				}
			},
			"userdoc": {
				"kind": "user",
				"methods": {},
				"version": 1
			}
		}
	}
}