{
	"contracts/4_DebugTheGraph.sol": {
		"DeubgTheGraph": {
			"abi": [
				{
					"anonymous": false,
					"inputs": [
						{
							"indexed": false,
							"internalType": "uint256",
							"name": "abc",
							"type": "uint256"
						}
					],
					"name": "ABC",
					"type": "event"
				},
				{
					"stateMutability": "payable",
					"type": "fallback"
				},
				{
					"inputs": [
						{
							"internalType": "address",
							"name": "",
							"type": "address"
						}
					],
					"name": "balances",
					"outputs": [
						{
							"internalType": "uint256",
							"name": "",
							"type": "uint256"
						}
					],
					"stateMutability": "view",
					"type": "function"
				},
				{
					"inputs": [],
					"name": "buy",
					"outputs": [],
					"stateMutability": "nonpayable",
					"type": "function"
				},
				{
					"inputs": [],
					"name": "getBalanceOfContract",
					"outputs": [
						{
							"internalType": "uint256",
							"name": "",
							"type": "uint256"
						}
					],
					"stateMutability": "view",
					"type": "function"
				},
				{
					"inputs": [],
					"name": "stake",
					"outputs": [],
					"stateMutability": "payable",
					"type": "function"
				},
				{
					"inputs": [],
					"name": "withdraw",
					"outputs": [],
					"stateMutability": "payable",
					"type": "function"
				},
				{
					"stateMutability": "payable",
					"type": "receive"
				}
			],
			"devdoc": {
				"kind": "dev",
				"methods": {},
				"version": 1
			},
			"evm": {
				"assembly": "    /* \"contracts/4_DebugTheGraph.sol\":100:1164  contract DeubgTheGraph {... */\n  mstore(0x40, 0x80)\n  callvalue\n  dup1\n  iszero\n  tag_1\n  jumpi\n  0x00\n  dup1\n  revert\ntag_1:\n  pop\n  dataSize(sub_0)\n  dup1\n  dataOffset(sub_0)\n  0x00\n  codecopy\n  0x00\n  return\nstop\n\nsub_0: assembly {\n        /* \"contracts/4_DebugTheGraph.sol\":100:1164  contract DeubgTheGraph {... */\n      mstore(0x40, 0x80)\n      jumpi(tag_1, lt(calldatasize, 0x04))\n      shr(0xe0, calldataload(0x00))\n      dup1\n      0x22968885\n      eq\n      tag_3\n      jumpi\n      dup1\n      0x27e235e3\n      eq\n      tag_4\n      jumpi\n      dup1\n      0x3a4b66f1\n      eq\n      tag_5\n      jumpi\n      dup1\n      0x3ccfd60b\n      eq\n      tag_6\n      jumpi\n      dup1\n      0xa6f2ae3a\n      eq\n      tag_7\n      jumpi\n      jump(tag_2)\n    tag_1:\n      jumpi(tag_2, calldatasize)\n      stop\n    tag_2:\n      stop\n        /* \"contracts/4_DebugTheGraph.sol\":521:628  function getBalanceOfContract() public view returns (uint256) {... */\n    tag_3:\n      callvalue\n      dup1\n      iszero\n      tag_12\n      jumpi\n      0x00\n      dup1\n      revert\n    tag_12:\n      pop\n      tag_13\n      tag_14\n      jump\t// in\n    tag_13:\n      mload(0x40)\n      tag_15\n      swap2\n      swap1\n      tag_16\n      jump\t// in\n    tag_15:\n      mload(0x40)\n      dup1\n      swap2\n      sub\n      swap1\n      return\n        /* \"contracts/4_DebugTheGraph.sol\":184:228  mapping (address => uint256) public balances */\n    tag_4:\n      callvalue\n      dup1\n      iszero\n      tag_17\n      jumpi\n      0x00\n      dup1\n      revert\n    tag_17:\n      pop\n      tag_18\n      0x04\n      dup1\n      calldatasize\n      sub\n      dup2\n      add\n      swap1\n      tag_19\n      swap2\n      swap1\n      tag_20\n      jump\t// in\n    tag_19:\n      tag_21\n      jump\t// in\n    tag_18:\n      mload(0x40)\n      tag_22\n      swap2\n      swap1\n      tag_16\n      jump\t// in\n    tag_22:\n      mload(0x40)\n      dup1\n      swap2\n      sub\n      swap1\n      return\n        /* \"contracts/4_DebugTheGraph.sol\":306:479  function stake() payable public  {... */\n    tag_5:\n      tag_23\n      tag_24\n      jump\t// in\n    tag_23:\n      stop\n        /* \"contracts/4_DebugTheGraph.sol\":796:1078  function withdraw() public payable {... */\n    tag_6:\n      tag_25\n      tag_26\n      jump\t// in\n    tag_25:\n      stop\n        /* \"contracts/4_DebugTheGraph.sol\":235:299  function buy() public {... */\n    tag_7:\n      callvalue\n      dup1\n      iszero\n      tag_27\n      jumpi\n      0x00\n      dup1\n      revert\n    tag_27:\n      pop\n      tag_28\n      tag_29\n      jump\t// in\n    tag_28:\n      stop\n        /* \"contracts/4_DebugTheGraph.sol\":521:628  function getBalanceOfContract() public view returns (uint256) {... */\n    tag_14:\n        /* \"contracts/4_DebugTheGraph.sol\":574:581  uint256 */\n      0x00\n        /* \"contracts/4_DebugTheGraph.sol\":600:621  address(this).balance */\n      selfbalance\n        /* \"contracts/4_DebugTheGraph.sol\":593:621  return address(this).balance */\n      swap1\n      pop\n        /* \"contracts/4_DebugTheGraph.sol\":521:628  function getBalanceOfContract() public view returns (uint256) {... */\n      swap1\n      jump\t// out\n        /* \"contracts/4_DebugTheGraph.sol\":184:228  mapping (address => uint256) public balances */\n    tag_21:\n      mstore(0x20, 0x00)\n      dup1\n      0x00\n      mstore\n      keccak256(0x00, 0x40)\n      0x00\n      swap2\n      pop\n      swap1\n      pop\n      sload\n      dup2\n      jump\t// out\n        /* \"contracts/4_DebugTheGraph.sol\":306:479  function stake() payable public  {... */\n    tag_24:\n        /* \"contracts/4_DebugTheGraph.sol\":349:385  console.log(\"msg.sender\",msg.sender) */\n      tag_32\n      mload(0x40)\n      dup1\n      0x40\n      add\n      0x40\n      mstore\n      dup1\n      0x0a\n      dup2\n      mstore\n      0x20\n      add\n      0x6d73672e73656e64657200000000000000000000000000000000000000000000\n      dup2\n      mstore\n      pop\n        /* \"contracts/4_DebugTheGraph.sol\":374:384  msg.sender */\n      caller\n        /* \"contracts/4_DebugTheGraph.sol\":349:360  console.log */\n      tag_33\n        /* \"contracts/4_DebugTheGraph.sol\":349:385  console.log(\"msg.sender\",msg.sender) */\n      jump\t// in\n    tag_32:\n        /* \"contracts/4_DebugTheGraph.sol\":395:429  console.log(\"msg.value\",msg.value) */\n      tag_34\n      mload(0x40)\n      dup1\n      0x40\n      add\n      0x40\n      mstore\n      dup1\n      0x09\n      dup2\n      mstore\n      0x20\n      add\n      0x6d73672e76616c75650000000000000000000000000000000000000000000000\n      dup2\n      mstore\n      pop\n        /* \"contracts/4_DebugTheGraph.sol\":419:428  msg.value */\n      callvalue\n        /* \"contracts/4_DebugTheGraph.sol\":395:406  console.log */\n      tag_35\n        /* \"contracts/4_DebugTheGraph.sol\":395:429  console.log(\"msg.value\",msg.value) */\n      jump\t// in\n    tag_34:\n        /* \"contracts/4_DebugTheGraph.sol\":463:472  msg.value */\n      callvalue\n        /* \"contracts/4_DebugTheGraph.sol\":439:447  balances */\n      0x00\n        /* \"contracts/4_DebugTheGraph.sol\":439:459  balances[msg.sender] */\n      dup1\n        /* \"contracts/4_DebugTheGraph.sol\":448:458  msg.sender */\n      caller\n        /* \"contracts/4_DebugTheGraph.sol\":439:459  balances[msg.sender] */\n      0xffffffffffffffffffffffffffffffffffffffff\n      and\n      0xffffffffffffffffffffffffffffffffffffffff\n      and\n      dup2\n      mstore\n      0x20\n      add\n      swap1\n      dup2\n      mstore\n      0x20\n      add\n      0x00\n      keccak256\n      0x00\n        /* \"contracts/4_DebugTheGraph.sol\":439:472  balances[msg.sender] += msg.value */\n      dup3\n      dup3\n      sload\n      tag_36\n      swap2\n      swap1\n      tag_37\n      jump\t// in\n    tag_36:\n      swap3\n      pop\n      pop\n      dup2\n      swap1\n      sstore\n      pop\n        /* \"contracts/4_DebugTheGraph.sol\":306:479  function stake() payable public  {... */\n      jump\t// out\n        /* \"contracts/4_DebugTheGraph.sol\":796:1078  function withdraw() public payable {... */\n    tag_26:\n        /* \"contracts/4_DebugTheGraph.sol\":841:859  console.log(\"1.5\") */\n      tag_39\n      mload(0x40)\n      dup1\n      0x40\n      add\n      0x40\n      mstore\n      dup1\n      0x03\n      dup2\n      mstore\n      0x20\n      add\n      0x312e350000000000000000000000000000000000000000000000000000000000\n      dup2\n      mstore\n      pop\n        /* \"contracts/4_DebugTheGraph.sol\":841:852  console.log */\n      tag_40\n        /* \"contracts/4_DebugTheGraph.sol\":841:859  console.log(\"1.5\") */\n      jump\t// in\n    tag_39:\n        /* \"contracts/4_DebugTheGraph.sol\":796:1078  function withdraw() public payable {... */\n      jump\t// out\n        /* \"contracts/4_DebugTheGraph.sol\":235:299  function buy() public {... */\n    tag_29:\n        /* \"contracts/4_DebugTheGraph.sol\":272:292  ABC(block.timestamp) */\n      0xdde71ec107d36cacc35f19230110eaa83cd22c0640f1ded308eeb1d9b037c6c1\n        /* \"contracts/4_DebugTheGraph.sol\":276:291  block.timestamp */\n      timestamp\n        /* \"contracts/4_DebugTheGraph.sol\":272:292  ABC(block.timestamp) */\n      mload(0x40)\n      tag_42\n      swap2\n      swap1\n      tag_16\n      jump\t// in\n    tag_42:\n      mload(0x40)\n      dup1\n      swap2\n      sub\n      swap1\n      log1\n        /* \"contracts/4_DebugTheGraph.sol\":235:299  function buy() public {... */\n      jump\t// out\n        /* \"hardhat/console.sol\":6352:6488  function log(string memory p0, address p1) internal view {... */\n    tag_33:\n        /* \"hardhat/console.sol\":6413:6484  _sendLogPayload(abi.encodeWithSignature(\"log(string,address)\", p0, p1)) */\n      tag_44\n        /* \"hardhat/console.sol\":6476:6478  p0 */\n      dup3\n        /* \"hardhat/console.sol\":6480:6482  p1 */\n      dup3\n        /* \"hardhat/console.sol\":6429:6483  abi.encodeWithSignature(\"log(string,address)\", p0, p1) */\n      add(0x24, mload(0x40))\n      tag_45\n      swap3\n      swap2\n      swap1\n      tag_46\n      jump\t// in\n    tag_45:\n      mload(0x40)\n      0x20\n      dup2\n      dup4\n      sub\n      sub\n      dup2\n      mstore\n      swap1\n      0x40\n      mstore\n      and(not(0xffffffffffffffffffffffffffffffffffffffffffffffffffffffff), 0x319af33300000000000000000000000000000000000000000000000000000000)\n      0x20\n      dup3\n      add\n      dup1\n      mload\n      0xffffffffffffffffffffffffffffffffffffffffffffffffffffffff\n      dup4\n      dup2\n      dup4\n      and\n      or\n      dup4\n      mstore\n      pop\n      pop\n      pop\n      pop\n        /* \"hardhat/console.sol\":6413:6428  _sendLogPayload */\n      tag_47\n        /* \"hardhat/console.sol\":6413:6484  _sendLogPayload(abi.encodeWithSignature(\"log(string,address)\", p0, p1)) */\n      jump\t// in\n    tag_44:\n        /* \"hardhat/console.sol\":6352:6488  function log(string memory p0, address p1) internal view {... */\n      pop\n      pop\n      jump\t// out\n        /* \"hardhat/console.sol\":5936:6072  function log(string memory p0, uint256 p1) internal view {... */\n    tag_35:\n        /* \"hardhat/console.sol\":5997:6068  _sendLogPayload(abi.encodeWithSignature(\"log(string,uint256)\", p0, p1)) */\n      tag_49\n        /* \"hardhat/console.sol\":6060:6062  p0 */\n      dup3\n        /* \"hardhat/console.sol\":6064:6066  p1 */\n      dup3\n        /* \"hardhat/console.sol\":6013:6067  abi.encodeWithSignature(\"log(string,uint256)\", p0, p1) */\n      add(0x24, mload(0x40))\n      tag_50\n      swap3\n      swap2\n      swap1\n      tag_51\n      jump\t// in\n    tag_50:\n      mload(0x40)\n      0x20\n      dup2\n      dup4\n      sub\n      sub\n      dup2\n      mstore\n      swap1\n      0x40\n      mstore\n      and(not(0xffffffffffffffffffffffffffffffffffffffffffffffffffffffff), 0xb60e72cc00000000000000000000000000000000000000000000000000000000)\n      0x20\n      dup3\n      add\n      dup1\n      mload\n      0xffffffffffffffffffffffffffffffffffffffffffffffffffffffff\n      dup4\n      dup2\n      dup4\n      and\n      or\n      dup4\n      mstore\n      pop\n      pop\n      pop\n      pop\n        /* \"hardhat/console.sol\":5997:6012  _sendLogPayload */\n      tag_47\n        /* \"hardhat/console.sol\":5997:6068  _sendLogPayload(abi.encodeWithSignature(\"log(string,uint256)\", p0, p1)) */\n      jump\t// in\n    tag_49:\n        /* \"hardhat/console.sol\":5936:6072  function log(string memory p0, uint256 p1) internal view {... */\n      pop\n      pop\n      jump\t// out\n        /* \"hardhat/console.sol\":5072:5184  function log(string memory p0) internal view {... */\n    tag_40:\n        /* \"hardhat/console.sol\":5121:5180  _sendLogPayload(abi.encodeWithSignature(\"log(string)\", p0)) */\n      tag_53\n        /* \"hardhat/console.sol\":5176:5178  p0 */\n      dup2\n        /* \"hardhat/console.sol\":5137:5179  abi.encodeWithSignature(\"log(string)\", p0) */\n      add(0x24, mload(0x40))\n      tag_54\n      swap2\n      swap1\n      tag_55\n      jump\t// in\n    tag_54:\n      mload(0x40)\n      0x20\n      dup2\n      dup4\n      sub\n      sub\n      dup2\n      mstore\n      swap1\n      0x40\n      mstore\n      and(not(0xffffffffffffffffffffffffffffffffffffffffffffffffffffffff), 0x41304fac00000000000000000000000000000000000000000000000000000000)\n      0x20\n      dup3\n      add\n      dup1\n      mload\n      0xffffffffffffffffffffffffffffffffffffffffffffffffffffffff\n      dup4\n      dup2\n      dup4\n      and\n      or\n      dup4\n      mstore\n      pop\n      pop\n      pop\n      pop\n        /* \"hardhat/console.sol\":5121:5136  _sendLogPayload */\n      tag_47\n        /* \"hardhat/console.sol\":5121:5180  _sendLogPayload(abi.encodeWithSignature(\"log(string)\", p0)) */\n      jump\t// in\n    tag_53:\n        /* \"hardhat/console.sol\":5072:5184  function log(string memory p0) internal view {... */\n      pop\n      jump\t// out\n        /* \"hardhat/console.sol\":176:464  function _sendLogPayload(bytes memory payload) private view {... */\n    tag_47:\n        /* \"hardhat/console.sol\":240:261  uint256 payloadLength */\n      0x00\n        /* \"hardhat/console.sol\":264:271  payload */\n      dup2\n        /* \"hardhat/console.sol\":264:278  payload.length */\n      mload\n        /* \"hardhat/console.sol\":240:278  uint256 payloadLength = payload.length */\n      swap1\n      pop\n        /* \"hardhat/console.sol\":282:304  address consoleAddress */\n      0x00\n        /* \"hardhat/console.sol\":129:171  0x000000000000000000636F6e736F6c652e6c6f67 */\n      0x636f6e736f6c652e6c6f67\n        /* \"hardhat/console.sol\":282:322  address consoleAddress = CONSOLE_ADDRESS */\n      swap1\n      pop\n        /* \"hardhat/console.sol\":373:375  32 */\n      0x20\n        /* \"hardhat/console.sol\":364:371  payload */\n      dup4\n        /* \"hardhat/console.sol\":360:376  add(payload, 32) */\n      add\n        /* \"hardhat/console.sol\":455:456  0 */\n      0x00\n        /* \"hardhat/console.sol\":452:453  0 */\n      dup1\n        /* \"hardhat/console.sol\":437:450  payloadLength */\n      dup5\n        /* \"hardhat/console.sol\":423:435  payloadStart */\n      dup4\n        /* \"hardhat/console.sol\":407:421  consoleAddress */\n      dup6\n        /* \"hardhat/console.sol\":400:405  gas() */\n      gas\n        /* \"hardhat/console.sol\":389:457  staticcall(gas(), consoleAddress, payloadStart, payloadLength, 0, 0) */\n      staticcall\n        /* \"hardhat/console.sol\":335:461  {... */\n      pop\n      pop\n      pop\n      pop\n        /* \"hardhat/console.sol\":176:464  function _sendLogPayload(bytes memory payload) private view {... */\n      pop\n      jump\t// out\n        /* \"#utility.yul\":7:146   */\n    tag_58:\n        /* \"#utility.yul\":53:58   */\n      0x00\n        /* \"#utility.yul\":91:97   */\n      dup2\n        /* \"#utility.yul\":78:98   */\n      calldataload\n        /* \"#utility.yul\":69:98   */\n      swap1\n      pop\n        /* \"#utility.yul\":107:140   */\n      tag_60\n        /* \"#utility.yul\":134:139   */\n      dup2\n        /* \"#utility.yul\":107:140   */\n      tag_61\n      jump\t// in\n    tag_60:\n        /* \"#utility.yul\":7:146   */\n      swap3\n      swap2\n      pop\n      pop\n      jump\t// out\n        /* \"#utility.yul\":152:481   */\n    tag_20:\n        /* \"#utility.yul\":211:217   */\n      0x00\n        /* \"#utility.yul\":260:262   */\n      0x20\n        /* \"#utility.yul\":248:257   */\n      dup3\n        /* \"#utility.yul\":239:246   */\n      dup5\n        /* \"#utility.yul\":235:258   */\n      sub\n        /* \"#utility.yul\":231:263   */\n      slt\n        /* \"#utility.yul\":228:347   */\n      iszero\n      tag_63\n      jumpi\n        /* \"#utility.yul\":266:345   */\n      tag_64\n      tag_65\n      jump\t// in\n    tag_64:\n        /* \"#utility.yul\":228:347   */\n    tag_63:\n        /* \"#utility.yul\":386:387   */\n      0x00\n        /* \"#utility.yul\":411:464   */\n      tag_66\n        /* \"#utility.yul\":456:463   */\n      dup5\n        /* \"#utility.yul\":447:453   */\n      dup3\n        /* \"#utility.yul\":436:445   */\n      dup6\n        /* \"#utility.yul\":432:454   */\n      add\n        /* \"#utility.yul\":411:464   */\n      tag_58\n      jump\t// in\n    tag_66:\n        /* \"#utility.yul\":401:464   */\n      swap2\n      pop\n        /* \"#utility.yul\":357:474   */\n      pop\n        /* \"#utility.yul\":152:481   */\n      swap3\n      swap2\n      pop\n      pop\n      jump\t// out\n        /* \"#utility.yul\":487:605   */\n    tag_67:\n        /* \"#utility.yul\":574:598   */\n      tag_69\n        /* \"#utility.yul\":592:597   */\n      dup2\n        /* \"#utility.yul\":574:598   */\n      tag_70\n      jump\t// in\n    tag_69:\n        /* \"#utility.yul\":569:572   */\n      dup3\n        /* \"#utility.yul\":562:599   */\n      mstore\n        /* \"#utility.yul\":487:605   */\n      pop\n      pop\n      jump\t// out\n        /* \"#utility.yul\":611:975   */\n    tag_71:\n        /* \"#utility.yul\":699:702   */\n      0x00\n        /* \"#utility.yul\":727:766   */\n      tag_73\n        /* \"#utility.yul\":760:765   */\n      dup3\n        /* \"#utility.yul\":727:766   */\n      tag_74\n      jump\t// in\n    tag_73:\n        /* \"#utility.yul\":782:853   */\n      tag_75\n        /* \"#utility.yul\":846:852   */\n      dup2\n        /* \"#utility.yul\":841:844   */\n      dup6\n        /* \"#utility.yul\":782:853   */\n      tag_76\n      jump\t// in\n    tag_75:\n        /* \"#utility.yul\":775:853   */\n      swap4\n      pop\n        /* \"#utility.yul\":862:914   */\n      tag_77\n        /* \"#utility.yul\":907:913   */\n      dup2\n        /* \"#utility.yul\":902:905   */\n      dup6\n        /* \"#utility.yul\":895:899   */\n      0x20\n        /* \"#utility.yul\":888:893   */\n      dup7\n        /* \"#utility.yul\":884:900   */\n      add\n        /* \"#utility.yul\":862:914   */\n      tag_78\n      jump\t// in\n    tag_77:\n        /* \"#utility.yul\":939:968   */\n      tag_79\n        /* \"#utility.yul\":961:967   */\n      dup2\n        /* \"#utility.yul\":939:968   */\n      tag_80\n      jump\t// in\n    tag_79:\n        /* \"#utility.yul\":934:937   */\n      dup5\n        /* \"#utility.yul\":930:969   */\n      add\n        /* \"#utility.yul\":923:969   */\n      swap2\n      pop\n        /* \"#utility.yul\":703:975   */\n      pop\n        /* \"#utility.yul\":611:975   */\n      swap3\n      swap2\n      pop\n      pop\n      jump\t// out\n        /* \"#utility.yul\":981:1099   */\n    tag_81:\n        /* \"#utility.yul\":1068:1092   */\n      tag_83\n        /* \"#utility.yul\":1086:1091   */\n      dup2\n        /* \"#utility.yul\":1068:1092   */\n      tag_84\n      jump\t// in\n    tag_83:\n        /* \"#utility.yul\":1063:1066   */\n      dup3\n        /* \"#utility.yul\":1056:1093   */\n      mstore\n        /* \"#utility.yul\":981:1099   */\n      pop\n      pop\n      jump\t// out\n        /* \"#utility.yul\":1105:1418   */\n    tag_55:\n        /* \"#utility.yul\":1218:1222   */\n      0x00\n        /* \"#utility.yul\":1256:1258   */\n      0x20\n        /* \"#utility.yul\":1245:1254   */\n      dup3\n        /* \"#utility.yul\":1241:1259   */\n      add\n        /* \"#utility.yul\":1233:1259   */\n      swap1\n      pop\n        /* \"#utility.yul\":1305:1314   */\n      dup2\n        /* \"#utility.yul\":1299:1303   */\n      dup2\n        /* \"#utility.yul\":1295:1315   */\n      sub\n        /* \"#utility.yul\":1291:1292   */\n      0x00\n        /* \"#utility.yul\":1280:1289   */\n      dup4\n        /* \"#utility.yul\":1276:1293   */\n      add\n        /* \"#utility.yul\":1269:1316   */\n      mstore\n        /* \"#utility.yul\":1333:1411   */\n      tag_86\n        /* \"#utility.yul\":1406:1410   */\n      dup2\n        /* \"#utility.yul\":1397:1403   */\n      dup5\n        /* \"#utility.yul\":1333:1411   */\n      tag_71\n      jump\t// in\n    tag_86:\n        /* \"#utility.yul\":1325:1411   */\n      swap1\n      pop\n        /* \"#utility.yul\":1105:1418   */\n      swap3\n      swap2\n      pop\n      pop\n      jump\t// out\n        /* \"#utility.yul\":1424:1847   */\n    tag_46:\n        /* \"#utility.yul\":1565:1569   */\n      0x00\n        /* \"#utility.yul\":1603:1605   */\n      0x40\n        /* \"#utility.yul\":1592:1601   */\n      dup3\n        /* \"#utility.yul\":1588:1606   */\n      add\n        /* \"#utility.yul\":1580:1606   */\n      swap1\n      pop\n        /* \"#utility.yul\":1652:1661   */\n      dup2\n        /* \"#utility.yul\":1646:1650   */\n      dup2\n        /* \"#utility.yul\":1642:1662   */\n      sub\n        /* \"#utility.yul\":1638:1639   */\n      0x00\n        /* \"#utility.yul\":1627:1636   */\n      dup4\n        /* \"#utility.yul\":1623:1640   */\n      add\n        /* \"#utility.yul\":1616:1663   */\n      mstore\n        /* \"#utility.yul\":1680:1758   */\n      tag_88\n        /* \"#utility.yul\":1753:1757   */\n      dup2\n        /* \"#utility.yul\":1744:1750   */\n      dup6\n        /* \"#utility.yul\":1680:1758   */\n      tag_71\n      jump\t// in\n    tag_88:\n        /* \"#utility.yul\":1672:1758   */\n      swap1\n      pop\n        /* \"#utility.yul\":1768:1840   */\n      tag_89\n        /* \"#utility.yul\":1836:1838   */\n      0x20\n        /* \"#utility.yul\":1825:1834   */\n      dup4\n        /* \"#utility.yul\":1821:1839   */\n      add\n        /* \"#utility.yul\":1812:1818   */\n      dup5\n        /* \"#utility.yul\":1768:1840   */\n      tag_67\n      jump\t// in\n    tag_89:\n        /* \"#utility.yul\":1424:1847   */\n      swap4\n      swap3\n      pop\n      pop\n      pop\n      jump\t// out\n        /* \"#utility.yul\":1853:2276   */\n    tag_51:\n        /* \"#utility.yul\":1994:1998   */\n      0x00\n        /* \"#utility.yul\":2032:2034   */\n      0x40\n        /* \"#utility.yul\":2021:2030   */\n      dup3\n        /* \"#utility.yul\":2017:2035   */\n      add\n        /* \"#utility.yul\":2009:2035   */\n      swap1\n      pop\n        /* \"#utility.yul\":2081:2090   */\n      dup2\n        /* \"#utility.yul\":2075:2079   */\n      dup2\n        /* \"#utility.yul\":2071:2091   */\n      sub\n        /* \"#utility.yul\":2067:2068   */\n      0x00\n        /* \"#utility.yul\":2056:2065   */\n      dup4\n        /* \"#utility.yul\":2052:2069   */\n      add\n        /* \"#utility.yul\":2045:2092   */\n      mstore\n        /* \"#utility.yul\":2109:2187   */\n      tag_91\n        /* \"#utility.yul\":2182:2186   */\n      dup2\n        /* \"#utility.yul\":2173:2179   */\n      dup6\n        /* \"#utility.yul\":2109:2187   */\n      tag_71\n      jump\t// in\n    tag_91:\n        /* \"#utility.yul\":2101:2187   */\n      swap1\n      pop\n        /* \"#utility.yul\":2197:2269   */\n      tag_92\n        /* \"#utility.yul\":2265:2267   */\n      0x20\n        /* \"#utility.yul\":2254:2263   */\n      dup4\n        /* \"#utility.yul\":2250:2268   */\n      add\n        /* \"#utility.yul\":2241:2247   */\n      dup5\n        /* \"#utility.yul\":2197:2269   */\n      tag_81\n      jump\t// in\n    tag_92:\n        /* \"#utility.yul\":1853:2276   */\n      swap4\n      swap3\n      pop\n      pop\n      pop\n      jump\t// out\n        /* \"#utility.yul\":2282:2504   */\n    tag_16:\n        /* \"#utility.yul\":2375:2379   */\n      0x00\n        /* \"#utility.yul\":2413:2415   */\n      0x20\n        /* \"#utility.yul\":2402:2411   */\n      dup3\n        /* \"#utility.yul\":2398:2416   */\n      add\n        /* \"#utility.yul\":2390:2416   */\n      swap1\n      pop\n        /* \"#utility.yul\":2426:2497   */\n      tag_94\n        /* \"#utility.yul\":2494:2495   */\n      0x00\n        /* \"#utility.yul\":2483:2492   */\n      dup4\n        /* \"#utility.yul\":2479:2496   */\n      add\n        /* \"#utility.yul\":2470:2476   */\n      dup5\n        /* \"#utility.yul\":2426:2497   */\n      tag_81\n      jump\t// in\n    tag_94:\n        /* \"#utility.yul\":2282:2504   */\n      swap3\n      swap2\n      pop\n      pop\n      jump\t// out\n        /* \"#utility.yul\":2591:2690   */\n    tag_74:\n        /* \"#utility.yul\":2643:2649   */\n      0x00\n        /* \"#utility.yul\":2677:2682   */\n      dup2\n        /* \"#utility.yul\":2671:2683   */\n      mload\n        /* \"#utility.yul\":2661:2683   */\n      swap1\n      pop\n        /* \"#utility.yul\":2591:2690   */\n      swap2\n      swap1\n      pop\n      jump\t// out\n        /* \"#utility.yul\":2696:2865   */\n    tag_76:\n        /* \"#utility.yul\":2780:2791   */\n      0x00\n        /* \"#utility.yul\":2814:2820   */\n      dup3\n        /* \"#utility.yul\":2809:2812   */\n      dup3\n        /* \"#utility.yul\":2802:2821   */\n      mstore\n        /* \"#utility.yul\":2854:2858   */\n      0x20\n        /* \"#utility.yul\":2849:2852   */\n      dup3\n        /* \"#utility.yul\":2845:2859   */\n      add\n        /* \"#utility.yul\":2830:2859   */\n      swap1\n      pop\n        /* \"#utility.yul\":2696:2865   */\n      swap3\n      swap2\n      pop\n      pop\n      jump\t// out\n        /* \"#utility.yul\":2871:3176   */\n    tag_37:\n        /* \"#utility.yul\":2911:2914   */\n      0x00\n        /* \"#utility.yul\":2930:2950   */\n      tag_100\n        /* \"#utility.yul\":2948:2949   */\n      dup3\n        /* \"#utility.yul\":2930:2950   */\n      tag_84\n      jump\t// in\n    tag_100:\n        /* \"#utility.yul\":2925:2950   */\n      swap2\n      pop\n        /* \"#utility.yul\":2964:2984   */\n      tag_101\n        /* \"#utility.yul\":2982:2983   */\n      dup4\n        /* \"#utility.yul\":2964:2984   */\n      tag_84\n      jump\t// in\n    tag_101:\n        /* \"#utility.yul\":2959:2984   */\n      swap3\n      pop\n        /* \"#utility.yul\":3118:3119   */\n      dup3\n        /* \"#utility.yul\":3050:3116   */\n      0xffffffffffffffffffffffffffffffffffffffffffffffffffffffffffffffff\n        /* \"#utility.yul\":3046:3120   */\n      sub\n        /* \"#utility.yul\":3043:3044   */\n      dup3\n        /* \"#utility.yul\":3040:3121   */\n      gt\n        /* \"#utility.yul\":3037:3144   */\n      iszero\n      tag_102\n      jumpi\n        /* \"#utility.yul\":3124:3142   */\n      tag_103\n      tag_104\n      jump\t// in\n    tag_103:\n        /* \"#utility.yul\":3037:3144   */\n    tag_102:\n        /* \"#utility.yul\":3168:3169   */\n      dup3\n        /* \"#utility.yul\":3165:3166   */\n      dup3\n        /* \"#utility.yul\":3161:3170   */\n      add\n        /* \"#utility.yul\":3154:3170   */\n      swap1\n      pop\n        /* \"#utility.yul\":2871:3176   */\n      swap3\n      swap2\n      pop\n      pop\n      jump\t// out\n        /* \"#utility.yul\":3182:3278   */\n    tag_70:\n        /* \"#utility.yul\":3219:3226   */\n      0x00\n        /* \"#utility.yul\":3248:3272   */\n      tag_106\n        /* \"#utility.yul\":3266:3271   */\n      dup3\n        /* \"#utility.yul\":3248:3272   */\n      tag_107\n      jump\t// in\n    tag_106:\n        /* \"#utility.yul\":3237:3272   */\n      swap1\n      pop\n        /* \"#utility.yul\":3182:3278   */\n      swap2\n      swap1\n      pop\n      jump\t// out\n        /* \"#utility.yul\":3284:3410   */\n    tag_107:\n        /* \"#utility.yul\":3321:3328   */\n      0x00\n        /* \"#utility.yul\":3361:3403   */\n      0xffffffffffffffffffffffffffffffffffffffff\n        /* \"#utility.yul\":3354:3359   */\n      dup3\n        /* \"#utility.yul\":3350:3404   */\n      and\n        /* \"#utility.yul\":3339:3404   */\n      swap1\n      pop\n        /* \"#utility.yul\":3284:3410   */\n      swap2\n      swap1\n      pop\n      jump\t// out\n        /* \"#utility.yul\":3416:3493   */\n    tag_84:\n        /* \"#utility.yul\":3453:3460   */\n      0x00\n        /* \"#utility.yul\":3482:3487   */\n      dup2\n        /* \"#utility.yul\":3471:3487   */\n      swap1\n      pop\n        /* \"#utility.yul\":3416:3493   */\n      swap2\n      swap1\n      pop\n      jump\t// out\n        /* \"#utility.yul\":3499:3806   */\n    tag_78:\n        /* \"#utility.yul\":3567:3568   */\n      0x00\n        /* \"#utility.yul\":3577:3690   */\n    tag_111:\n        /* \"#utility.yul\":3591:3597   */\n      dup4\n        /* \"#utility.yul\":3588:3589   */\n      dup2\n        /* \"#utility.yul\":3585:3598   */\n      lt\n        /* \"#utility.yul\":3577:3690   */\n      iszero\n      tag_113\n      jumpi\n        /* \"#utility.yul\":3676:3677   */\n      dup1\n        /* \"#utility.yul\":3671:3674   */\n      dup3\n        /* \"#utility.yul\":3667:3678   */\n      add\n        /* \"#utility.yul\":3661:3679   */\n      mload\n        /* \"#utility.yul\":3657:3658   */\n      dup2\n        /* \"#utility.yul\":3652:3655   */\n      dup5\n        /* \"#utility.yul\":3648:3659   */\n      add\n        /* \"#utility.yul\":3641:3680   */\n      mstore\n        /* \"#utility.yul\":3613:3615   */\n      0x20\n        /* \"#utility.yul\":3610:3611   */\n      dup2\n        /* \"#utility.yul\":3606:3616   */\n      add\n        /* \"#utility.yul\":3601:3616   */\n      swap1\n      pop\n        /* \"#utility.yul\":3577:3690   */\n      jump(tag_111)\n    tag_113:\n        /* \"#utility.yul\":3708:3714   */\n      dup4\n        /* \"#utility.yul\":3705:3706   */\n      dup2\n        /* \"#utility.yul\":3702:3715   */\n      gt\n        /* \"#utility.yul\":3699:3800   */\n      iszero\n      tag_114\n      jumpi\n        /* \"#utility.yul\":3788:3789   */\n      0x00\n        /* \"#utility.yul\":3779:3785   */\n      dup5\n        /* \"#utility.yul\":3774:3777   */\n      dup5\n        /* \"#utility.yul\":3770:3786   */\n      add\n        /* \"#utility.yul\":3763:3790   */\n      mstore\n        /* \"#utility.yul\":3699:3800   */\n    tag_114:\n        /* \"#utility.yul\":3548:3806   */\n      pop\n        /* \"#utility.yul\":3499:3806   */\n      pop\n      pop\n      pop\n      jump\t// out\n        /* \"#utility.yul\":3812:3992   */\n    tag_104:\n        /* \"#utility.yul\":3860:3937   */\n      0x4e487b7100000000000000000000000000000000000000000000000000000000\n        /* \"#utility.yul\":3857:3858   */\n      0x00\n        /* \"#utility.yul\":3850:3938   */\n      mstore\n        /* \"#utility.yul\":3957:3961   */\n      0x11\n        /* \"#utility.yul\":3954:3955   */\n      0x04\n        /* \"#utility.yul\":3947:3962   */\n      mstore\n        /* \"#utility.yul\":3981:3985   */\n      0x24\n        /* \"#utility.yul\":3978:3979   */\n      0x00\n        /* \"#utility.yul\":3971:3986   */\n      revert\n        /* \"#utility.yul\":4121:4238   */\n    tag_65:\n        /* \"#utility.yul\":4230:4231   */\n      0x00\n        /* \"#utility.yul\":4227:4228   */\n      dup1\n        /* \"#utility.yul\":4220:4232   */\n      revert\n        /* \"#utility.yul\":4244:4346   */\n    tag_80:\n        /* \"#utility.yul\":4285:4291   */\n      0x00\n        /* \"#utility.yul\":4336:4338   */\n      0x1f\n        /* \"#utility.yul\":4332:4339   */\n      not\n        /* \"#utility.yul\":4327:4329   */\n      0x1f\n        /* \"#utility.yul\":4320:4325   */\n      dup4\n        /* \"#utility.yul\":4316:4330   */\n      add\n        /* \"#utility.yul\":4312:4340   */\n      and\n        /* \"#utility.yul\":4302:4340   */\n      swap1\n      pop\n        /* \"#utility.yul\":4244:4346   */\n      swap2\n      swap1\n      pop\n      jump\t// out\n        /* \"#utility.yul\":4352:4474   */\n    tag_61:\n        /* \"#utility.yul\":4425:4449   */\n      tag_121\n        /* \"#utility.yul\":4443:4448   */\n      dup2\n        /* \"#utility.yul\":4425:4449   */\n      tag_70\n      jump\t// in\n    tag_121:\n        /* \"#utility.yul\":4418:4423   */\n      dup2\n        /* \"#utility.yul\":4415:4450   */\n      eq\n        /* \"#utility.yul\":4405:4468   */\n      tag_122\n      jumpi\n        /* \"#utility.yul\":4464:4465   */\n      0x00\n        /* \"#utility.yul\":4461:4462   */\n      dup1\n        /* \"#utility.yul\":4454:4466   */\n      revert\n        /* \"#utility.yul\":4405:4468   */\n    tag_122:\n        /* \"#utility.yul\":4352:4474   */\n      pop\n      jump\t// out\n\n    auxdata: 0xa264697066735822122076515ae0ec4dca3469f968081235109c60ba93cbf8614f1df9349c14b3ae430964736f6c63430008070033\n}\n",
				"bytecode": {
					"linkReferences": {},
					"object": "608060405234801561001057600080fd5b506106fb806100206000396000f3fe60806040526004361061004e5760003560e01c8063229688851461005757806327e235e3146100825780633a4b66f1146100bf5780633ccfd60b146100c9578063a6f2ae3a146100d357610055565b3661005557005b005b34801561006357600080fd5b5061006c6100ea565b604051610079919061056d565b60405180910390f35b34801561008e57600080fd5b506100a960048036038101906100a49190610467565b6100f2565b6040516100b6919061056d565b60405180910390f35b6100c761010a565b005b6100d16101df565b005b3480156100df57600080fd5b506100e861021f565b005b600047905090565b60006020528060005260406000206000915090505481565b6101496040518060400160405280600a81526020017f6d73672e73656e6465720000000000000000000000000000000000000000000081525033610258565b6101886040518060400160405280600981526020017f6d73672e76616c75650000000000000000000000000000000000000000000000815250346102f4565b346000803373ffffffffffffffffffffffffffffffffffffffff1673ffffffffffffffffffffffffffffffffffffffff16815260200190815260200160002060008282546101d691906105a4565b92505081905550565b61021d6040518060400160405280600381526020017f312e350000000000000000000000000000000000000000000000000000000000815250610390565b565b7fdde71ec107d36cacc35f19230110eaa83cd22c0640f1ded308eeb1d9b037c6c14260405161024e919061056d565b60405180910390a1565b6102f0828260405160240161026e92919061050d565b6040516020818303038152906040527f319af333000000000000000000000000000000000000000000000000000000007bffffffffffffffffffffffffffffffffffffffffffffffffffffffff19166020820180517bffffffffffffffffffffffffffffffffffffffffffffffffffffffff8381831617835250505050610429565b5050565b61038c828260405160240161030a92919061053d565b6040516020818303038152906040527fb60e72cc000000000000000000000000000000000000000000000000000000007bffffffffffffffffffffffffffffffffffffffffffffffffffffffff19166020820180517bffffffffffffffffffffffffffffffffffffffffffffffffffffffff8381831617835250505050610429565b5050565b610426816040516024016103a491906104eb565b6040516020818303038152906040527f41304fac000000000000000000000000000000000000000000000000000000007bffffffffffffffffffffffffffffffffffffffffffffffffffffffff19166020820180517bffffffffffffffffffffffffffffffffffffffffffffffffffffffff8381831617835250505050610429565b50565b60008151905060006a636f6e736f6c652e6c6f679050602083016000808483855afa5050505050565b600081359050610461816106ae565b92915050565b60006020828403121561047d5761047c610698565b5b600061048b84828501610452565b91505092915050565b61049d816105fa565b82525050565b60006104ae82610588565b6104b88185610593565b93506104c8818560208601610636565b6104d18161069d565b840191505092915050565b6104e58161062c565b82525050565b6000602082019050818103600083015261050581846104a3565b905092915050565b6000604082019050818103600083015261052781856104a3565b90506105366020830184610494565b9392505050565b6000604082019050818103600083015261055781856104a3565b905061056660208301846104dc565b9392505050565b600060208201905061058260008301846104dc565b92915050565b600081519050919050565b600082825260208201905092915050565b60006105af8261062c565b91506105ba8361062c565b9250827fffffffffffffffffffffffffffffffffffffffffffffffffffffffffffffffff038211156105ef576105ee610669565b5b828201905092915050565b60006106058261060c565b9050919050565b600073ffffffffffffffffffffffffffffffffffffffff82169050919050565b6000819050919050565b60005b83811015610654578082015181840152602081019050610639565b83811115610663576000848401525b50505050565b7f4e487b7100000000000000000000000000000000000000000000000000000000600052601160045260246000fd5b600080fd5b6000601f19601f8301169050919050565b6106b7816105fa565b81146106c257600080fd5b5056fea264697066735822122076515ae0ec4dca3469f968081235109c60ba93cbf8614f1df9349c14b3ae430964736f6c63430008070033",
					"opcodes": "PUSH1 0x80 PUSH1 0x40 MSTORE CALLVALUE DUP1 ISZERO PUSH2 0x10 JUMPI PUSH1 0x0 DUP1 REVERT JUMPDEST POP PUSH2 0x6FB DUP1 PUSH2 0x20 PUSH1 0x0 CODECOPY PUSH1 0x0 RETURN INVALID PUSH1 0x80 PUSH1 0x40 MSTORE PUSH1 0x4 CALLDATASIZE LT PUSH2 0x4E JUMPI PUSH1 0x0 CALLDATALOAD PUSH1 0xE0 SHR DUP1 PUSH4 0x22968885 EQ PUSH2 0x57 JUMPI DUP1 PUSH4 0x27E235E3 EQ PUSH2 0x82 JUMPI DUP1 PUSH4 0x3A4B66F1 EQ PUSH2 0xBF JUMPI DUP1 PUSH4 0x3CCFD60B EQ PUSH2 0xC9 JUMPI DUP1 PUSH4 0xA6F2AE3A EQ PUSH2 0xD3 JUMPI PUSH2 0x55 JUMP JUMPDEST CALLDATASIZE PUSH2 0x55 JUMPI STOP JUMPDEST STOP JUMPDEST CALLVALUE DUP1 ISZERO PUSH2 0x63 JUMPI PUSH1 0x0 DUP1 REVERT JUMPDEST POP PUSH2 0x6C PUSH2 0xEA JUMP JUMPDEST PUSH1 0x40 MLOAD PUSH2 0x79 SWAP2 SWAP1 PUSH2 0x56D JUMP JUMPDEST PUSH1 0x40 MLOAD DUP1 SWAP2 SUB SWAP1 RETURN JUMPDEST CALLVALUE DUP1 ISZERO PUSH2 0x8E JUMPI PUSH1 0x0 DUP1 REVERT JUMPDEST POP PUSH2 0xA9 PUSH1 0x4 DUP1 CALLDATASIZE SUB DUP2 ADD SWAP1 PUSH2 0xA4 SWAP2 SWAP1 PUSH2 0x467 JUMP JUMPDEST PUSH2 0xF2 JUMP JUMPDEST PUSH1 0x40 MLOAD PUSH2 0xB6 SWAP2 SWAP1 PUSH2 0x56D JUMP JUMPDEST PUSH1 0x40 MLOAD DUP1 SWAP2 SUB SWAP1 RETURN JUMPDEST PUSH2 0xC7 PUSH2 0x10A JUMP JUMPDEST STOP JUMPDEST PUSH2 0xD1 PUSH2 0x1DF JUMP JUMPDEST STOP JUMPDEST CALLVALUE DUP1 ISZERO PUSH2 0xDF JUMPI PUSH1 0x0 DUP1 REVERT JUMPDEST POP PUSH2 0xE8 PUSH2 0x21F JUMP JUMPDEST STOP JUMPDEST PUSH1 0x0 SELFBALANCE SWAP1 POP SWAP1 JUMP JUMPDEST PUSH1 0x0 PUSH1 0x20 MSTORE DUP1 PUSH1 0x0 MSTORE PUSH1 0x40 PUSH1 0x0 KECCAK256 PUSH1 0x0 SWAP2 POP SWAP1 POP SLOAD DUP2 JUMP JUMPDEST PUSH2 0x149 PUSH1 0x40 MLOAD DUP1 PUSH1 0x40 ADD PUSH1 0x40 MSTORE DUP1 PUSH1 0xA DUP2 MSTORE PUSH1 0x20 ADD PUSH32 0x6D73672E73656E64657200000000000000000000000000000000000000000000 DUP2 MSTORE POP CALLER PUSH2 0x258 JUMP JUMPDEST PUSH2 0x188 PUSH1 0x40 MLOAD DUP1 PUSH1 0x40 ADD PUSH1 0x40 MSTORE DUP1 PUSH1 0x9 DUP2 MSTORE PUSH1 0x20 ADD PUSH32 0x6D73672E76616C75650000000000000000000000000000000000000000000000 DUP2 MSTORE POP CALLVALUE PUSH2 0x2F4 JUMP JUMPDEST CALLVALUE PUSH1 0x0 DUP1 CALLER PUSH20 0xFFFFFFFFFFFFFFFFFFFFFFFFFFFFFFFFFFFFFFFF AND PUSH20 0xFFFFFFFFFFFFFFFFFFFFFFFFFFFFFFFFFFFFFFFF AND DUP2 MSTORE PUSH1 0x20 ADD SWAP1 DUP2 MSTORE PUSH1 0x20 ADD PUSH1 0x0 KECCAK256 PUSH1 0x0 DUP3 DUP3 SLOAD PUSH2 0x1D6 SWAP2 SWAP1 PUSH2 0x5A4 JUMP JUMPDEST SWAP3 POP POP DUP2 SWAP1 SSTORE POP JUMP JUMPDEST PUSH2 0x21D PUSH1 0x40 MLOAD DUP1 PUSH1 0x40 ADD PUSH1 0x40 MSTORE DUP1 PUSH1 0x3 DUP2 MSTORE PUSH1 0x20 ADD PUSH32 0x312E350000000000000000000000000000000000000000000000000000000000 DUP2 MSTORE POP PUSH2 0x390 JUMP JUMPDEST JUMP JUMPDEST PUSH32 0xDDE71EC107D36CACC35F19230110EAA83CD22C0640F1DED308EEB1D9B037C6C1 TIMESTAMP PUSH1 0x40 MLOAD PUSH2 0x24E SWAP2 SWAP1 PUSH2 0x56D JUMP JUMPDEST PUSH1 0x40 MLOAD DUP1 SWAP2 SUB SWAP1 LOG1 JUMP JUMPDEST PUSH2 0x2F0 DUP3 DUP3 PUSH1 0x40 MLOAD PUSH1 0x24 ADD PUSH2 0x26E SWAP3 SWAP2 SWAP1 PUSH2 0x50D JUMP JUMPDEST PUSH1 0x40 MLOAD PUSH1 0x20 DUP2 DUP4 SUB SUB DUP2 MSTORE SWAP1 PUSH1 0x40 MSTORE PUSH32 0x319AF33300000000000000000000000000000000000000000000000000000000 PUSH28 0xFFFFFFFFFFFFFFFFFFFFFFFFFFFFFFFFFFFFFFFFFFFFFFFFFFFFFFFF NOT AND PUSH1 0x20 DUP3 ADD DUP1 MLOAD PUSH28 0xFFFFFFFFFFFFFFFFFFFFFFFFFFFFFFFFFFFFFFFFFFFFFFFFFFFFFFFF DUP4 DUP2 DUP4 AND OR DUP4 MSTORE POP POP POP POP PUSH2 0x429 JUMP JUMPDEST POP POP JUMP JUMPDEST PUSH2 0x38C DUP3 DUP3 PUSH1 0x40 MLOAD PUSH1 0x24 ADD PUSH2 0x30A SWAP3 SWAP2 SWAP1 PUSH2 0x53D JUMP JUMPDEST PUSH1 0x40 MLOAD PUSH1 0x20 DUP2 DUP4 SUB SUB DUP2 MSTORE SWAP1 PUSH1 0x40 MSTORE PUSH32 0xB60E72CC00000000000000000000000000000000000000000000000000000000 PUSH28 0xFFFFFFFFFFFFFFFFFFFFFFFFFFFFFFFFFFFFFFFFFFFFFFFFFFFFFFFF NOT AND PUSH1 0x20 DUP3 ADD DUP1 MLOAD PUSH28 0xFFFFFFFFFFFFFFFFFFFFFFFFFFFFFFFFFFFFFFFFFFFFFFFFFFFFFFFF DUP4 DUP2 DUP4 AND OR DUP4 MSTORE POP POP POP POP PUSH2 0x429 JUMP JUMPDEST POP POP JUMP JUMPDEST PUSH2 0x426 DUP2 PUSH1 0x40 MLOAD PUSH1 0x24 ADD PUSH2 0x3A4 SWAP2 SWAP1 PUSH2 0x4EB JUMP JUMPDEST PUSH1 0x40 MLOAD PUSH1 0x20 DUP2 DUP4 SUB SUB DUP2 MSTORE SWAP1 PUSH1 0x40 MSTORE PUSH32 0x41304FAC00000000000000000000000000000000000000000000000000000000 PUSH28 0xFFFFFFFFFFFFFFFFFFFFFFFFFFFFFFFFFFFFFFFFFFFFFFFFFFFFFFFF NOT AND PUSH1 0x20 DUP3 ADD DUP1 MLOAD PUSH28 0xFFFFFFFFFFFFFFFFFFFFFFFFFFFFFFFFFFFFFFFFFFFFFFFFFFFFFFFF DUP4 DUP2 DUP4 AND OR DUP4 MSTORE POP POP POP POP PUSH2 0x429 JUMP JUMPDEST POP JUMP JUMPDEST PUSH1 0x0 DUP2 MLOAD SWAP1 POP PUSH1 0x0 PUSH11 0x636F6E736F6C652E6C6F67 SWAP1 POP PUSH1 0x20 DUP4 ADD PUSH1 0x0 DUP1 DUP5 DUP4 DUP6 GAS STATICCALL POP POP POP POP POP JUMP JUMPDEST PUSH1 0x0 DUP2 CALLDATALOAD SWAP1 POP PUSH2 0x461 DUP2 PUSH2 0x6AE JUMP JUMPDEST SWAP3 SWAP2 POP POP JUMP JUMPDEST PUSH1 0x0 PUSH1 0x20 DUP3 DUP5 SUB SLT ISZERO PUSH2 0x47D JUMPI PUSH2 0x47C PUSH2 0x698 JUMP JUMPDEST JUMPDEST PUSH1 0x0 PUSH2 0x48B DUP5 DUP3 DUP6 ADD PUSH2 0x452 JUMP JUMPDEST SWAP2 POP POP SWAP3 SWAP2 POP POP JUMP JUMPDEST PUSH2 0x49D DUP2 PUSH2 0x5FA JUMP JUMPDEST DUP3 MSTORE POP POP JUMP JUMPDEST PUSH1 0x0 PUSH2 0x4AE DUP3 PUSH2 0x588 JUMP JUMPDEST PUSH2 0x4B8 DUP2 DUP6 PUSH2 0x593 JUMP JUMPDEST SWAP4 POP PUSH2 0x4C8 DUP2 DUP6 PUSH1 0x20 DUP7 ADD PUSH2 0x636 JUMP JUMPDEST PUSH2 0x4D1 DUP2 PUSH2 0x69D JUMP JUMPDEST DUP5 ADD SWAP2 POP POP SWAP3 SWAP2 POP POP JUMP JUMPDEST PUSH2 0x4E5 DUP2 PUSH2 0x62C JUMP JUMPDEST DUP3 MSTORE POP POP JUMP JUMPDEST PUSH1 0x0 PUSH1 0x20 DUP3 ADD SWAP1 POP DUP2 DUP2 SUB PUSH1 0x0 DUP4 ADD MSTORE PUSH2 0x505 DUP2 DUP5 PUSH2 0x4A3 JUMP JUMPDEST SWAP1 POP SWAP3 SWAP2 POP POP JUMP JUMPDEST PUSH1 0x0 PUSH1 0x40 DUP3 ADD SWAP1 POP DUP2 DUP2 SUB PUSH1 0x0 DUP4 ADD MSTORE PUSH2 0x527 DUP2 DUP6 PUSH2 0x4A3 JUMP JUMPDEST SWAP1 POP PUSH2 0x536 PUSH1 0x20 DUP4 ADD DUP5 PUSH2 0x494 JUMP JUMPDEST SWAP4 SWAP3 POP POP POP JUMP JUMPDEST PUSH1 0x0 PUSH1 0x40 DUP3 ADD SWAP1 POP DUP2 DUP2 SUB PUSH1 0x0 DUP4 ADD MSTORE PUSH2 0x557 DUP2 DUP6 PUSH2 0x4A3 JUMP JUMPDEST SWAP1 POP PUSH2 0x566 PUSH1 0x20 DUP4 ADD DUP5 PUSH2 0x4DC JUMP JUMPDEST SWAP4 SWAP3 POP POP POP JUMP JUMPDEST PUSH1 0x0 PUSH1 0x20 DUP3 ADD SWAP1 POP PUSH2 0x582 PUSH1 0x0 DUP4 ADD DUP5 PUSH2 0x4DC JUMP JUMPDEST SWAP3 SWAP2 POP POP JUMP JUMPDEST PUSH1 0x0 DUP2 MLOAD SWAP1 POP SWAP2 SWAP1 POP JUMP JUMPDEST PUSH1 0x0 DUP3 DUP3 MSTORE PUSH1 0x20 DUP3 ADD SWAP1 POP SWAP3 SWAP2 POP POP JUMP JUMPDEST PUSH1 0x0 PUSH2 0x5AF DUP3 PUSH2 0x62C JUMP JUMPDEST SWAP2 POP PUSH2 0x5BA DUP4 PUSH2 0x62C JUMP JUMPDEST SWAP3 POP DUP3 PUSH32 0xFFFFFFFFFFFFFFFFFFFFFFFFFFFFFFFFFFFFFFFFFFFFFFFFFFFFFFFFFFFFFFFF SUB DUP3 GT ISZERO PUSH2 0x5EF JUMPI PUSH2 0x5EE PUSH2 0x669 JUMP JUMPDEST JUMPDEST DUP3 DUP3 ADD SWAP1 POP SWAP3 SWAP2 POP POP JUMP JUMPDEST PUSH1 0x0 PUSH2 0x605 DUP3 PUSH2 0x60C JUMP JUMPDEST SWAP1 POP SWAP2 SWAP1 POP JUMP JUMPDEST PUSH1 0x0 PUSH20 0xFFFFFFFFFFFFFFFFFFFFFFFFFFFFFFFFFFFFFFFF DUP3 AND SWAP1 POP SWAP2 SWAP1 POP JUMP JUMPDEST PUSH1 0x0 DUP2 SWAP1 POP SWAP2 SWAP1 POP JUMP JUMPDEST PUSH1 0x0 JUMPDEST DUP4 DUP2 LT ISZERO PUSH2 0x654 JUMPI DUP1 DUP3 ADD MLOAD DUP2 DUP5 ADD MSTORE PUSH1 0x20 DUP2 ADD SWAP1 POP PUSH2 0x639 JUMP JUMPDEST DUP4 DUP2 GT ISZERO PUSH2 0x663 JUMPI PUSH1 0x0 DUP5 DUP5 ADD MSTORE JUMPDEST POP POP POP POP JUMP JUMPDEST PUSH32 0x4E487B7100000000000000000000000000000000000000000000000000000000 PUSH1 0x0 MSTORE PUSH1 0x11 PUSH1 0x4 MSTORE PUSH1 0x24 PUSH1 0x0 REVERT JUMPDEST PUSH1 0x0 DUP1 REVERT JUMPDEST PUSH1 0x0 PUSH1 0x1F NOT PUSH1 0x1F DUP4 ADD AND SWAP1 POP SWAP2 SWAP1 POP JUMP JUMPDEST PUSH2 0x6B7 DUP2 PUSH2 0x5FA JUMP JUMPDEST DUP2 EQ PUSH2 0x6C2 JUMPI PUSH1 0x0 DUP1 REVERT JUMPDEST POP JUMP INVALID LOG2 PUSH5 0x6970667358 0x22 SLT KECCAK256 PUSH23 0x515AE0EC4DCA3469F968081235109C60BA93CBF8614F1D 0xF9 CALLVALUE SWAP13 EQ 0xB3 0xAE NUMBER MULMOD PUSH5 0x736F6C6343 STOP ADDMOD SMOD STOP CALLER "
				},
				"gasEstimates": {
					"creation": {
						"codeDepositCost": "357400",
						"executionCost": "393",
						"totalCost": "357793"
					},
					"external": {
						"": "173",
						"balances(address)": "2814",
						"buy()": "1400",
						"getBalanceOfContract()": "317",
						"stake()": "infinite",
						"withdraw()": "infinite"
					}
				},
				"methodIdentifiers": {
					"balances(address)": "27e235e3",
					"buy()": "a6f2ae3a",
					"getBalanceOfContract()": "22968885",
					"stake()": "3a4b66f1",
					"withdraw()": "3ccfd60b"
				}
			},
			"storageLayout": {
				"storage": [
					{
						"astId": 10,
						"contract": "contracts/4_DebugTheGraph.sol:DeubgTheGraph",
						"label": "balances",
						"offset": 0,
						"slot": "0",
						"type": "t_mapping(t_address,t_uint256)"
					}
				],
				"types": {
					"t_address": {
						"encoding": "inplace",
						"label": "address",
						"numberOfBytes": "20"
					},
					"t_mapping(t_address,t_uint256)": {
						"encoding": "mapping",
						"key": "t_address",
						"label": "mapping(address => uint256)",
						"numberOfBytes": "32",
						"value": "t_uint256"
					},
					"t_uint256": {
						"encoding": "inplace",
						"label": "uint256",
						"numberOfBytes": "32"
					}
				}
			},
			"userdoc": {
				"kind": "user",
				"methods": {},
				"version": 1
			}
		}
	}
}